:0200000280007C
:1000000050300720C14B0800B94B0800B94B08001D
:10001000B94B0800B94B0800B94B080000000000BC
:10002000000000000000000000000000B94B0800C4
:10003000B94B080000000000B94B0800B94B08009C
:10004000B94B0800B94B0800B94B0800B94B080080
:10005000B94B0800B94B0800B94B0800B94B080070
:10006000B94B0800B94B080000000000A548080083
:10007000BD480800D5480800ED4808000000000011
:1000800000000000B94B0800B94B0800B94B08004C
:10009000B94B0800B94B0800B94B0800B94B080030
:1000A000B94B080000000000B94B0800B94B08002C
:1000B000B94B0800B94B0800B94B0800B94B080010
:1000C000B94B0800B94B0800B94B0800B94B080000
:1000D000B94B0800B94B0800B94B0800B94B0800F0
:1000E000B94B0800B94B0800B94B0800D50108000E
:1000F000B94B080010B5054C237833B9044B13B144
:100100000448AFF300800123237010BD840E072044
:1001100000000000907A0800084B10B51BB1084998
:100120000848AFF300800848036803B910BD074BC7
:10013000002BFBD0BDE81040184700BF00000000B6
:10014000880E0720907A0800907A080000000000CE
:1001500080B586B000AFF860B9607A6000237B613B
:10016000FB68002B12D04FF0FF3313E00B4B1B68E2
:100170000B4A1268B96810469847BB680133BB60E8
:100180007B6901337B617B68013B7B607B68002B73
:10019000ECDC7B6918461837BD4680BDA00F0720F0
:1001A0000010072080B483B000AF0346FB710849FC
:1001B00097F907305B09FA7902F01F02012000FA73
:1001C00002F241F8232000BF0C37BD4680BC7047C7
:1001D00000E100E080B582B000AF114B1B697B608D
:1001E0007B68DBB2002B17D00D4BD3F830327B602D
:1001F0007B6803F40003002B0ED00A4B01221A6027
:10020000084A7B6893600748074B98470548074BA7
:100210009847074B01221A6000BF0837BD4680BDD2
:1002200000400B40A80F072001030800350208001A
:10023000A00E072080B485B000AF78607B689B6912
:10024000FB603A7B2B4B1A707A7B2A4B5A70294BF6
:100250001B780A2B00D047E0264B5B78403B062BEF
:1002600041D801A252F823F0850208009302080049
:10027000A1020800AF020800BD020800CB0208007E
:10028000D90208001C4B01221A701C4B00221A7064
:100290002AE01A4B01221A70174B01221A7023E030
:1002A000164B02221A70144B01221A701CE0134BD9
:1002B00003221A70104B01221A7015E00F4B042212
:1002C0001A700D4B01221A700EE00C4B05221A70A9
:1002D000094B01221A7007E0084B06221A70064BE0
:1002E00001221A7000E000BF00BF00BF1437BD46F6
:1002F00080BC7047A40F0720A40E0720C80F07205A
:1003000080B487B000AF786000237B617B681B6896
:10031000FB747B689B68FB60FB6803F40003002BA5
:1003200006D0FB6803F08073002B01D002237B61B1
:10033000264AFB7C5B01134403F503731B6823F01F
:1003400060427B685A61FB681B0CDBB203F00F0351
:10035000DAB27B689A711D4AFB7C5B01134403F59A
:1003600005731A687B689A61184AFB7C5B01134429
:1003700003F506731A687B68DA61144AFB7C5B013B
:10038000134403F504731A687B689A607B689B6862
:10039000FB60FB6803F08073002B03D07B6943F0A4
:1003A00004037B610949FB7C7A689279120402F4A8
:1003B000702242F400025B010B4403F507731A60DC
:1003C0007B6918461C37BD4680BC704700400B4017
:1003D00080B485B000AF78607B681B68FB732A4AE5
:1003E000FB7B5B01134403F504731A687B689A6016
:1003F0007B689B68BB60BB6803F40003002B01D1E2
:1004000001233BE07B685B79002B0BD01E49FB7B13
:100410007A68126942F000525B010B4403F50273E3
:100420001A6008E01849FB7B7A6812695B010B448B
:1004300003F502731A601449FB7B7A6892695B01C9
:100440000B4403F505731A607B689B79042B08D96C
:100450000D49FB7B7A68D2695B010B4403F5067397
:100460001A600949FB7B7A689279120402F47022BF
:100470005B010B4403F507731A6000231846143719
:10048000BD4680BC704700BF00400B4080B485B0C3
:1004900000AF0346FB71074B5B6A23F0FF03FB6071
:1004A0000449FA79FB6813434B6200BF1437BD4619
:1004B00080BC704700400B4080B485B000AF7860CE
:1004C0007B681B68FB737B681B79002B2FD1354A37
:1004D000FB7B10335B01134400221A60314AFB7B23
:1004E00010335B011344043300221A602D4AFB7B56
:1004F0005B01134403F5027300221A60294AFB7B57
:100500005B01134403F5057300221A60254AFB7B47
:100510005B01134403F5067300221A60214AFB7B3A
:100520005B01134403F5077300221A6035E01D4890
:10053000FB7B1C49FA7B103252010A44126822F4F8
:1005400070227968C97909040A4310335B010344B6
:100550001A601449FB7B7A68D26810335B010B4444
:1005600004331A600F49FB7B7A6812695B010B4404
:1005700003F502731A600B48FB7B0A49FA7B1032C1
:1005800052010A44126822F0E0627968097909068A
:100590000A4310335B0103441A601437BD4680BC24
:1005A000704700BF00400B4080B58EB000AF534B8A
:1005B000BB62782387F82730514B524AC3F8E420B6
:1005C0004F4A4F4B1B6823F0010313604C49BB6A31
:1005D000DB78013B03F00702BB6A9B78013B1B0100
:1005E00003F070031A43BB6A5B78013B1B0203F400
:1005F000E0631A43BB6A1B79013B1B0303F44053BE
:100600001A4397F82730013B1B0403F4FE031343FE
:100610004B6100233B72002387F82F300BE097F8E3
:100620002F307B603B1D1846374B984797F82F308B
:10063000013387F82F3097F82F30072BEFD9304A46
:100640002F4B1B6843F00103136000237B630023DF
:100650003B6305E02A4B1B697B633B6B01333B63C8
:100660007B6B03F40013002B03D13B6B274A9342AF
:10067000F0D93B6B264A934203D12648264B984734
:1006800002E02648244B9847254B01221A60244B50
:1006900001221A71224B0022DA71214B00225A7179
:1006A0001F4B204ADA601E4B4FF440221A611C484F
:1006B000154B98472B201C4B9847114B02225A6030
:1006C000174B00221A60164B03221A71144B012299
:1006D000DA71134B00225A71114B124ADA60104B37
:1006E0004FF420121A610E48074B984702210F4819
:1006F0000F4B984700BF3837BD4680BD30790800A2
:1007000000400B40004E4143B90408009F860100A1
:10071000A086010078790800B55E08009C79080081
:10072000A80F07200000F01FA5010800000E0E40D2
:100730003111080080B500AF144B9847144B154A8F
:10074000C3F8E4200B20144B98470C20124B984719
:100750000D20114B98470E200F4B984718200E4B39
:1007600098472B200C4B984705200B4B98470820A7
:10077000094B98471B20084B98472120064B984768
:10078000034B064AC3F8E42000BF80BDB543080010
:1007900000060E4000434D50A107080001434D5094
:1007A00080B483B000AF78607B682C2B01D9012323
:1007B0002FE07B681F2B13D8184B9A6901217B68A7
:1007C00001FA03F31A4001217B6801FA03F39A420C
:1007D0001ED0124A01217B6801FA03F3136117E06E
:1007E0007B68203B7B600D4BD3F8082101217B689F
:1007F00001FA03F31A4001217B6801FA03F39A42DC
:1008000006D0064A01217B6801FA03F3C2F80031E1
:10081000002318460C37BD4680BC704700060E40CA
:1008200080B582B000AF01210020134B9847002112
:100830000020124B9847124B80221A70104BC32293
:100840005A70104B9847104B984701200F4B984710
:10085000002202210A480E4B984700237B6002E0E9
:100860007B6801337B607B68B3F57A7FF8D300BF88
:100870000837BD4680BD00BFAD1508000116080051
:10088000D80F0720011B08005D1A0800B5160800E4
:10089000ED16080080B582B000AF01210020134B97
:1008A000984700210020124B9847124B80221A7063
:1008B000104BC3225A70104B9847104B9847012099
:1008C0000F4B9847002202210A480E4B98470023FD
:1008D0007B6002E07B6801337B607B68B3F57A7FE5
:1008E000F8D300BF0837BD4680BD00BFAD15080076
:1008F00001160800D80F0720011B0800791A08000C
:10090000B5160800ED16080080B582B000AF0121D1
:100910000120134B984700210120124B9847124B9E
:1009200080221A70104BC3225A70104B9847104BFC
:10093000984702200F4B9847002202210A480E4B8D
:10094000984700237B6002E07B6801337B607B6813
:10095000B3F57A7FF8D300BF0837BD4680BD00BF2E
:10096000AD15080001160800D80F0720011B08006C
:10097000911A0800B5160800ED16080080B500AF02
:10098000114B124AC3F8E420114B104AC3F8E4207B
:10099000104B0E4AC3F8E4200F4B0C4AC3F8E42076
:1009A0000E4B98470E4B98470E4B98470E4B984767
:1009B0000E4B9847044B00221A67054B4FF4001268
:1009C0001A6700BF80BD00BF000E0E40004F4950A7
:1009D00000100E4000120E4000140E404D0C080096
:1009E000250F0800CD0F0800150B0800F1090800BD
:1009F00080B500AF08213C483C4B984708213A4855
:100A00003B4B9847082138483A4B984708213648CD
:100A1000394B984708213448384B984707213248CA
:100A2000324B984707213048314B984707212E48D1
:100A3000304B984707212C482F4B984707212A48CD
:100A40002E4B984706212848284B984706212648D0
:100A5000274B984706212448264B984706212248D1
:100A6000254B984706212048244B984702212448CB
:100A70001E4B984702212248224B984702212048CA
:100A8000214B984702211E48204B984702211C48C1
:100A90001F4B984701211A48144B984701211848C9
:100AA000184B984701211648174B984701211448C5
:100AB000164B984701211248154B984700211048C2
:100AC0000A4B984700210E480E4B984700210C48CE
:100AD0000D4B984700210A480C4B984700210848C5
:100AE0000B4B984700BF80BD00120E407D100800E0
:100AF000C5100800551108000D1108009D110800CF
:100B000000140E40E9100800311108003D100800E3
:100B1000C511080080B500AF0F214648464B9847E5
:100B200010214448444B984714214248424B98476F
:100B300011214048404B984712213E483E4B984770
:100B400013213C483C4B98470E213A483A4B984772
:100B50000F213848394B984710213648374B984772
:100B600014213448354B984711213248334B98476C
:100B700012213048314B984713212E482F4B98476C
:100B80000E212C482D4B98470F212A482C4B984773
:100B9000102128482A4B984714212648284B98476B
:100BA00011212448264B984712212248244B98476C
:100BB00013212048224B98470E211E48204B98476E
:100BC0000F211C481F4B984710211A481D4B98476E
:100BD000142118481B4B984711211648194B984768
:100BE00012211448174B984713211248154B984768
:100BF0000E211048134B98470F210E48124B98476F
:100C000010210C48104B984714210A480E4B984766
:100C1000112108480C4B9847122106480A4B984767
:100C200013210448084B98470E210248064B984769
:100C300000BF80BD000E0E407D100800E9100800C6
:100C4000311108003D100800C511080080B500AF43
:100C50001A219148914B984719218F488F4B9847FB
:100C60001B218D488D4B98471C218B488B4B9847F7
:100C70001D218948894B984715218948874B9847FA
:100C800017218748854B984706218348854B98470D
:100C900006218148844B984706217F48834B98471B
:100CA00006217D48824B984706217B48814B984717
:100CB000052179487B4B9847052177487A4B98471F
:100CC00005217548794B984705217348784B98471B
:100CD00005217148774B984704216F48714B98471D
:100CE00004216D48704B984704216B486F4B98471F
:100CF000042169486E4B9847042167486D4B98471B
:100D000003216548674B984703216348664B984722
:100D100003216148654B984703215F48644B98471E
:100D200003215D48634B984700215D485D4B984720
:100D300000215B485C4B9847002159485B4B984722
:100D4000002157485C4B984700215548594B98471C
:100D500001215348534B984701215148524B984722
:100D600001214F48514B984701214D48524B98471C
:100D700001214B484F4B984702214948494B98471E
:100D800002214748484B984702214548474B98471E
:100D900002214348484B984702214148454B984718
:100DA00003213F483F4B984703213D483E4B98471E
:100DB00003213B483D4B9847032139483D4B984719
:100DC000032137483C4B984704213548354B984719
:100DD00004213348344B984704213148334B98471A
:100DE00004212F48334B984704212D48324B984714
:100DF00005212B482B4B9847052129482A4B98471A
:100E000005212748294B984705212548294B984714
:100E100005212348284B984706212148214B984714
:100E200006211F48204B984706211D481F4B984715
:100E300006211B481F4B9847062119481E4B98470F
:100E400007211748174B984707211548164B984715
:100E500007211348154B984707211148154B984710
:100E600007210F48144B984708210D480D4B984710
:100E700008210B480C4B9847082109480B4B984711
:100E8000082107480B4B9847082105480A4B98470B
:100E90000E21034812E000BF000E0E40A110080012
:100EA00000100E407D100800C51008005511080004
:100EB0000D1108009D11080031110800134B9847CF
:100EC0000E211348134B98470E211148124B984797
:100ED0000E210F48114B98470E210D48104B984793
:100EE0000F210B48094B98470F210948094B984798
:100EF0000F210748084B98470F210548074B984793
:100F00000F210348064B984700BF80BD7D100800A5
:100F100000100E40C5100800551108009D11080072
:100F20003111080080B500AF01211E481E4B9847C3
:100F300001211C481D4B984701211A481C4B98471A
:100F4000012118481B4B9847012116481A4B984716
:100F500000211448144B984700211248134B98471E
:100F600000211048124B984700210E48114B98471A
:100F700000210C48104B984702210A480F4B984714
:100F8000022108480E4B984702210648084B984713
:100F9000022104480B4B9847022102480A4B98470C
:100FA00000BF80BD000E0E40A1100800E91008002F
:100FB00031110800C5110800791108007D100800E2
:100FC000C51008009D1108005511080080B500AF3C
:100FD00008211448144B984708211248134B98478E
:100FE00008211048124B984708210E48114B98478A
:100FF00008210C48104B984709210A480A4B98478A
:1010000009210848094B984709210648084B984789
:1010100009210448074B984709210248064B984785
:1010200000BF80BD000E0E40A1100800E9100800AE
:1010300031110800C51108007911080080B483B08F
:1010400000AF786039607B68DA6C01213B6801FA97
:1010500003F31A4001213B6801FA03F39A4206D1D7
:1010600001223B6802FA03F31A467B685A640023A4
:1010700018460C37BD4680BC704700BF80B483B0B3
:1010800000AF7860396001223B6802FA03F31A4628
:101090007B681A60002318460C37BD4680BC704739
:1010A00080B483B000AF7860396001223B6802FAF7
:1010B00003F31A467B685A60002318460C37BD4676
:1010C00080BC704780B483B000AF78603960012283
:1010D0003B6802FA03F31A467B681A61002318463C
:1010E0000C37BD4680BC704780B483B000AF7860D9
:1010F000396001223B6802FA03F31A467B685A61A1
:10110000002318460C37BD4680BC704780B483B0BE
:1011100000AF7860396001223B6802FA03F31A4697
:101120007B681A63002318460C37BD4680BC7047A5
:1011300080B483B000AF7860396001223B6802FA66
:1011400003F31A467B685A63002318460C37BD46E2
:1011500080BC704780B483B000AF786039600122F2
:101160003B6802FA03F31A467B685A660023184666
:101170000C37BD4680BC704780B483B000AF786048
:10118000396001223B6802FA03F31A467B681A664B
:10119000002318460C37BD4680BC704780B483B02E
:1011A00000AF7860396001223B6802FA03F31A4607
:1011B0007B68C3F8A020002318460C37BD4680BCCE
:1011C000704700BF80B483B000AF786039600122FF
:1011D0003B6802FA03F31A467B68C3F8A420002395
:1011E00018460C37BD4680BC704700BF80B584B040
:1011F00000AF2A4B98472A4B98472A4B98472A4BCF
:1012000006221A700520294B9847052201212648FD
:10121000274B98470023FB6002E0FB680133FB602B
:10122000FB68B3F57A7FF8D31F4B43221A701E4B2D
:1012300031225A701C4B84229A701B4BE022DA70C8
:10124000194B00221A710520184B984705220521D9
:101250001548174B98470023BB6002E0BB68013379
:10126000BB60BB68B3F57A7FF8D30F4B08221A70C6
:1012700005200E4B9847052201210B480C4B98473F
:1012800000237B6002E07B6801337B607B68B3F501
:101290007A7FF8D300BF1037BD4680BD1D1B080004
:1012A000391B0800011B0800D80F0720B5160800DD
:1012B000ED16080080B584B000AF2A4B98472A4B42
:1012C00098472A4B98472A4B06221A700620294B2A
:1012D0009847062201212648274B98470023FB60A8
:1012E00002E0FB680133FB60FB68B3F57A7FF8D35B
:1012F0001F4B43221A701E4B31225A701C4B842202
:101300009A701B4BE022DA70194B00221A710620EA
:10131000184B9847062205211548174B984700237C
:10132000BB6002E0BB680133BB60BB68B3F57A7F8A
:10133000F8D30F4B08221A7006200E4B984706224E
:1013400001210B480C4B984700237B6002E07B682F
:1013500001337B607B68B3F57A7FF8D300BF103729
:10136000BD4680BD1D1B0800391B0800011B08007D
:10137000D80F0720B5160800ED16080080B584B018
:1013800000AF2A4B98472A4B98472A4B98472A4B3D
:1013900006221A700720294B984707220121264868
:1013A000274B98470023FB6002E0FB680133FB609A
:1013B000FB68B3F57A7FF8D31F4B43221A701E4B9C
:1013C00031225A701C4B84229A701B4BE022DA7037
:1013D000194B00221A710720184B98470722052144
:1013E0001548174B98470023BB6002E0BB680133E8
:1013F000BB60BB68B3F57A7FF8D30F4B08221A7035
:1014000007200E4B9847072201210B480C4B9847A9
:1014100000237B6002E07B6801337B607B68B3F56F
:101420007A7FF8D300BF1037BD4680BD1D1B080072
:10143000391B0800011B0800D80F0720B51608004B
:10144000ED16080080B483B000AF78607B68072B8E
:1014500025D801A252F823F0791408007F1408005F
:10146000851408008B1408008F14080093140800DA
:10147000971408009B1408004FF4FA4310E04FF44F
:1014800000430DE04FF400430AE0084B08E0084B2E
:1014900006E0084B04E0074B02E0064B00E00023A7
:1014A00018460C37BD4680BC704700BF00093D00A0
:1014B00000127A00001BB70080B500AF0620044B75
:1014C000984702461346DB009B1A5B00184680BD16
:1014D0004514080080B500AF024B984703465B08EF
:1014E000184680BDB914080080B582B000AF78609E
:1014F0007868034B984700BF0837BD4680BD00BFE2
:10150000394B080090B482B000AF0346FB710B4624
:10151000BB7113467B711149FB791048FA790C3283
:1015200050F8222092B20C3341F823200B4CFB7967
:101530000A49FA790C3251F82210BA79120402F4ED
:101540007F027879000602430A430C3344F82320D3
:1015500000BF0837BD4690BC704700BF0080004008
:1015600080B483B000AF03463960FB710E49FB794C
:101570000D48FA790C3250F8222022F0F0020C3398
:1015800041F823200848FB790749FA790C3251F8D1
:1015900022103A680A430C3340F8232000BF0C376E
:1015A000BD4680BC704700BF0080004080B483B05F
:1015B00000AF03463960FB713B68002B0CD00F492C
:1015C000FB790E48FA790C3250F8222042F00102E1
:1015D0000C3341F823200BE00849FB790748FA79DE
:1015E0000C3250F8222022F001020C3341F8232063
:1015F00000BF0C37BD4680BC704700BF0080004074
:1016000080B483B000AF03463960FB713B68002BA8
:101610000CD00F49FB790E48FA790C3250F8222091
:1016200042F002020C3341F823200BE00849FB7919
:101630000748FA790C3250F8222022F002020C33CB
:1016400041F8232000BF0C37BD4680BC704700BF67
:101650000080004080B483B000AF03460A46FB71AF
:101660001346BB71BB79002B02D14FF0FF331AE058
:101670000F49FB790E48FA790C3250F8222022F4F7
:101680007F420C3341F823200948FB790849FA7955
:101690000C3251F82210BA79120292B20A430C337A
:1016A00040F82320002318460C37BD4680BC704705
:1016B0000080004080B483B000AF0346FB710A4A4B
:1016C000094B5B6823F4702353600749064B5A6843
:1016D000FB791B0403F4702313434B6000BF0C37EA
:1016E000BD4680BC704700BF0080004080B586B01A
:1016F00000AFF860B9601346FB71FB683B610023E3
:101700007B611BE03A697B6913441B78F9790022FD
:1017100018460E4B984700BF0D4B1B6903F00103A1
:10172000002BF9D00B480C4B98473A697B6913445E
:10173000084A12781A707B6901337B617A69BB6849
:101740009A42DFD300BF1837BD4680BDC9170800D5
:1017500000800040A60E07203918080080B588B028
:1017600000AFF860B9601346FB71FB68BB610023F2
:10177000FB611AE0BB691B78F979002218460F4B10
:10178000984700BF0E4B1B6903F00103002BF9D0F3
:1017900007F1170318460B4B9847BA69FB691344C6
:1017A000FA7D1A70FB690133FB61FA69BB689A42E2
:1017B000E0D300BF2037BD4680BD00BFC917080079
:1017C000008000403918080080B485B000AF03469F
:1017D000FB710B46BB7113467B7143F69823FB608C
:1017E00006E0FB685A1EFA60002B01D101231BE0C2
:1017F000104B1B6903F00203002BF2D07B79002B06
:1018000006D00C4A0B4B1B6843F08073136005E055
:10181000084A084B1B6823F080731360FB79BB6098
:10182000044ABB68D360002318461437BD4680BC09
:10183000704700BF0080004080B485B000AF786082
:1018400043F69823FB6006E0FB685A1EFA60002B03
:1018500001D101230FE00A4B1B6903F00103002BA8
:10186000F2D0074B9B68074A1360064B1B68DAB23D
:101870007B681A70002318461437BD4680BC704739
:1018800000800040A80E072080B500AF594B5A4A8F
:10189000C3F8E42059485A4B98471820594B9847A9
:1018A000544B02221A60534B80221A60514B4FF066
:1018B00080721A604F4A4F4B5B6843F001035360DC
:1018C0004C4A4C4B5B6843F010035360494A494B08
:1018D0005B6843F004035360464A464B5B6823F45D
:1018E000702353604349434B5A68474B1B78184653
:1018F00001238340DB431B0403F4702313434B6039
:1019000000210020414B984701210020404B98477F
:10191000002100203F4B98473F4B984702463F4BE2
:101920001B68B2FBF3F3DBB2194600203C4B98472F
:101930004022002100203B4B984700210120334BDF
:10194000984701210120324B984700210120314B5B
:101950009847314B98470246304B1B68B2FBF3F374
:10196000DBB2194601202E4B98474022002101206E
:101970002C4B984700210220244B9847012102203C
:10198000234B984700210220224B9847224B98472F
:101990000246224B1B68B2FBF3F3DBB2194602206E
:1019A0001F4B98474022002102201E4B98470021E0
:1019B0000320164B984701210320154B984700211F
:1019C0000320144B9847144B98470246134B1B684F
:1019D000B2FBF3F3DBB219460320114B98474022C8
:1019E000002103200F4B9847024B01221A6000BFD1
:1019F00080BD00BF0080004000495053C0790800FE
:101A0000B55E0800E9140800A50E0720AD15080012
:101A10000116080061150800D51408008C01072084
:101A2000551608000515080080B400AF034B1822B6
:101A30005A6300BFBD4680BC704700BF00100E4017
:101A400080B400AF044B08221A63034B10225A6380
:101A500000BFBD4680BC704700100E4080B400AF90
:101A6000044B08225A63034B10221A6300BFBD4681
:101A700080BC704700100E4080B400AF034B1822AA
:101A80001A6300BFBD4680BC704700BF00100E4007
:101A900080B400AF034B60225A6300BFBD4680BCD8
:101AA000704700BF00100E4080B400AF044B2022EE
:101AB0001A63034B40225A6300BFBD4680BC704787
:101AC00000100E4080B400AF044B20225A63034B39
:101AD00040221A6300BFBD4680BC704700100E4014
:101AE00080B400AF054B80221A63044B4FF4807220
:101AF0005A6300BFBD4680BC704700BF00100E4057
:101B000080B400AF044B03225A63034B04221A63D0
:101B100000BFBD4680BC704700100E4080B400AFCF
:101B2000044B03221A63034B04225A6300BFBD46D1
:101B300080BC704700100E4080B500AF06210848F9
:101B4000084B984705210648064B9847042104484E
:101B5000044B984703210248024B984700BF80BDC1
:101B6000000E0E400D11080080B500AF0621084898
:101B7000084B984705210648074B9847042104481D
:101B8000054B984703210248034B984700BF80BD8F
:101B9000000E0E40311108000D11080080B500AF95
:101BA00006210848084B984705210648074B9847E7
:101BB00004210448044B984703210248024B9847EC
:101BC00000BF80BD000E0E400D110800311108004D
:101BD00080B500AF06210848084B98470521064804
:101BE000064B984704210448054B984703210248B7
:101BF000024B984700BF80BD000E0E400D1108003B
:101C00003111080080B584B000AF2C4B98472C4BA5
:101C100098470023FB6002E0FB680133FB60FB6830
:101C200042F20F729342F7DD264B9847264B9847B6
:101C3000264B9847264B9847214B9847254B98476A
:101C40000023BB6002E0BB680133BB60BB68B3F537
:101C50007A7FF8DB204B9847204B9847204B9847DA
:101C6000204B9847154B9847154B9847184B98476A
:101C7000134B98471C4B984700237B6002E07B681E
:101C800001337B607B68B3F57A7FF8DB174B9847AD
:101C9000174B9847094B9847094B984700233B60DF
:101CA00002E03B6801333B603B68B3F57A7FF8DBC9
:101CB000002318461037BD4680BD00BF1D1B08001D
:101CC000391B0800ED110800B51208007D1308004B
:101CD000011B0800691B08005D2A0800D12A0800C2
:101CE00021080800950808009D1B08000909080044
:101CF000492B080080B59EB000AF03463960FB71E8
:101D00003B6800221A809E4B7B67FB79013B112BBD
:101D100000F2958601A252F823F000BF651D08006D
:101D2000DB1D0800491E0800B51E0800E31E080060
:101D30005D1F08000F20080085200800FB20080018
:101D400051210800C721080003230800FB230800D5
:101D500007250800C527080037260800FD280800C9
:101D60003F2A080008218748874B9847874B9847A8
:101D7000874B10221A70864B00225A70844B002227
:101D80009A7007E07B6F5A1E7A67002B02D10123FD
:101D900000F056BE7F4BDB6B9B0803F00103002B6A
:101DA000F0D17D4B984705207C4B984705220321B5
:101DB00077487B4B9847764B5A787A4B5A70744BDE
:101DC0009A78784B1A70774B1B889AB23B681A80C6
:101DD0006E4B9847002300F033BE6C4B98476C4B1A
:101DE00010221A706A4B00225A70694B00229A70B6
:101DF00007E07B6F5A1E7A67002B02D1012300F0A7
:101E00001FBE644BDB6B5B0803F00103002BF0D1BA
:101E1000614B98470620614B9847062203215C4896
:101E20005F4B98475A4B5A785E4B5A70584B9A788A
:101E30005C4B1A705B4B1B889AB23B681A80534B01
:101E40009847002300F0FCBD504B9847504B1022A0
:101E50001A704F4B00225A704D4B00229A7007E0C7
:101E60007B6F5A1E7A67002B02D1012300F0E8BD78
:101E7000484BDB6B03F00103002BF1D1464B984735
:101E80000720464B9847072203214148444B984777
:101E90003F4B5A78434B5A703D4B9A78414B1A70DE
:101EA000404B1B889AB23B681A80384B98470023F6
:101EB00000F0C6BD3C4B9847344B9847364B98478B
:101EC000334B00221A70324B00225A70304B0022E2
:101ED0009A707B6F5A1E7A67002BFAD1012300F0AB
:101EE000AFBD2B4B01221A70294B00225A70284B90
:101EF00000229A7007E07B6F5A1E7A67002B02D18E
:101F0000012300F09DBD294BDB6BDB0B03F00103CC
:101F1000002BF0D1204B98471C4B9847244B9847F7
:101F2000244B984701201D4B984701220321184854
:101F30001B4B9847164B5A781A4B5A70144B9A7889
:101F4000184B1A70174B1B889AB23B681A80164BB5
:101F500098470E4B9847002300F072BD0C4B0122AE
:101F60001A700B4B00225A70094B00229A7023E022
:101F70007B6F5A1E7A67002B1ED1012300F060BDD3
:101F800040420F0000120E400D110800391B0800DE
:101F9000D80F072000140E40011B0800B5160800DA
:101FA0005D170800D40F07201D1B0800000E0E400F
:101FB000691B0800291A08008F4BDB6B1B0C03F010
:101FC0000103002BD4D18D4B98478D4B98478D4BF7
:101FD00098478D4B984701208C4B9847012203214D
:101FE0008B488C4B98478A4B5A788B4B5A70884B4E
:101FF0009A78894B1A70884B1B889AB23B681A8072
:10200000864B98477E4B9847002300F019BD804BC4
:1020100001221A707E4B00225A707D4B00229A706A
:1020200007E07B6F5A1E7A67002B02D1012300F074
:1020300007BD714BDB6B5B0C03F00103002BF0D190
:102040006E4B98476F4B9847754B984701206F4BE5
:102050009847012203216E486E4B98476C4B5A7883
:102060006D4B5A706A4B9A786B4B1A706A4B1B888F
:102070009AB23B681A80694B9847614B9847002396
:1020800000F0DEBC624B01221A70614B00225A70D4
:102090005F4B00229A7007E07B6F5A1E7A67002B15
:1020A00002D1012300F0CCBC534BDB6B9B0C03F043
:1020B0000103002BF0D1514B9847524B9847594B95
:1020C00098470120514B9847012203215048514B1A
:1020D00098474F4B5A78504B5A704D4B9A784E4B0D
:1020E0001A704D4B1B889AB23B681A804B4B98472D
:1020F000434B9847002300F0A3BC454B01221A70C4
:10210000434B00225A70424B00229A703B4B984737
:10211000454B9847454B984702203C4B9847022235
:1021200003213B483B4B9847394B5A783A4B5A70FE
:10213000374B9A78384B1A70374B1B889AB23B68EA
:102140001A80364B98472E4B9847002300F078BCF6
:102150002F4B01221A702E4B00225A702C4B00225A
:102160009A7007E07B6F5A1E7A67002B02D1012319
:1021700000F066BC204BDB6BDB0C03F00103002B93
:10218000F0D11E4B98472A4B9847284B984702207E
:102190001E4B9847022203211D481E4B98471C4B9B
:1021A0005A781D4B5A701A4B9A781B4B1A701A4B5F
:1021B0001B889AB23B681A80184B9847104B984777
:1021C000002300F03DBC124B00221A70104B00227D
:1021D0005A700A4B9847174B9847094B9847164B2C
:1021E00098470320094B9847032202210848094BCE
:1021F000984700233B6724E0000E0E40011B0800B7
:10220000391B0800691B0800411A0800B5160800B0
:10221000D80F07205D170800D40F07201D1B0800EA
:102220005D1A0800791A0800A91A08009D1B080009
:10223000911A0800E11A0800D11B08003B6F013316
:102240003B673B6FB3F57A7FF8D38F4B00221A7050
:102250008D4B00225A70032202218B488B4B9847EA
:10226000894B1A788A4B5A70874B5A78884B1A7068
:10227000874B1B88FB86844B08221A70824B0022F6
:102280005A70844B9847844B9847844B9847844BAB
:1022900098470320834B9847032202217A487B4BBF
:1022A00098470023FB6602E0FB6E0133FB66FB6E82
:1022B000B3F57A7FF8D3744B08221A70724B002260
:1022C0005A70032202217048704B98476E4B1A785F
:1022D0006F4B5A706C4B5A786D4B1A706C4B1B8855
:1022E000BB86BB8E4FF4E16202FB03F2FB8E92FBD6
:1022F000F3F39AB23B681A806B4B9847674B984749
:102300009EE3614B00221A705F4B00225A70614BB2
:102310009847614B9847614B9847614B984703201A
:10232000604B9847032202215748584B9847002397
:10233000BB6602E0BB6E0133BB66BB6EB3F57A7F52
:10234000F8D3514B00221A704F4B00225A700322CF
:1023500002214D484D4B98474B4B1A784C4B5A70C5
:10236000494B5A784A4B1A70494B1B88FB86464B9F
:1023700010221A70444B00225A70464B9847464B25
:102380009847464B9847464B98470320454B9847FC
:10239000032202213C483D4B984700237B6602E024
:1023A0007B6E01337B667B6EB3F57A7FF8D3364B59
:1023B00010221A70344B00225A7003220221324834
:1023C000324B9847304B1A78314B5A702E4B5A7813
:1023D0002F4B1A702E4B1B887B867B8E4FF4E1624D
:1023E00002FB03F2FB8E92FBF3F39AB23B681A8076
:1023F0002D4B9847294B984722E3234B00221A7014
:10240000214B00225A70234B9847234B9847234B6C
:102410009847234B98470320224B984703220221D9
:1024200019481A4B984700233B6602E03B6E013384
:102430003B663B6EB3F57A7FF8D3134B00221A70DC
:10244000114B00225A70032202210F480F4B98476C
:102450000D4B1A780E4B5A700B4B5A780C4B1A7066
:102460000B4B1B88FB86084B38221A70064B002248
:102470005A7003200B4B9847032202210248034B5A
:1024800098470023FB6514E0D80F07205D1708006C
:10249000D40F0720011B0800E11A0800391B0800AF
:1024A000D11B0800B51608001D1B0800FB6D013389
:1024B000FB65FB6DB3F57A7FF8D3934B38221A7026
:1024C000914B00225A70032202218F488F4B98476C
:1024D0008D4B1A788E4B5A708B4B5A788C4B1A70E6
:1024E0008B4B1B883B863B8E4FF4E16202FB03F271
:1024F000FB8E92FBF3F39AB23B681A80854B9847A8
:10250000854B98479CE2804B00221A707E4B00223C
:102510005A70824B9847824B98477F4B9847814B24
:1025200098470320804B9847032202217648774B37
:1025300098470023BB6502E0BB6D0133BB65BB6DF3
:10254000B3F57A7FF8D3704B00221A706E4B0022DD
:102550005A70032202216C486C4B98476A4B1A78D8
:102560006B4B5A70684B5A78694B1A70684B1B88D2
:10257000FB86654B28221A70634B00225A70674B0A
:102580009847674B9847644B9847664B984703209A
:10259000654B9847032202215B485C4B9847002318
:1025A0007B6502E07B6D01337B657B6DB3F57A7FE4
:1025B000F8D3554B28221A70534B00225A7003222D
:1025C00002215148514B98474F4B1A78504B5A7043
:1025D0004D4B5A784E4B1A704D4B1B88FB85FB8E2A
:1025E0004FF4E16202FB03F2FB8D92FBF3F24F4BDF
:1025F000104698470346BB624D4B4E49B86A984710
:102600000346BB624C4BB96A4FF07E509847034675
:102610001A464A4B4A491046984703467B62494B43
:10262000786A984703469AB23B681A80394B9847B4
:10263000394B984704E2344B00221A70324B002287
:102640005A70364B9847364B9847334B9847354B23
:1026500098470320344B9847032202212A482B4BEA
:10266000984700233B6502E03B6D01333B653B6DC2
:10267000B3F57A7FF8D3244B00221A70224B002244
:102680005A70032202212048204B98471E4B1A788B
:102690001F4B5A701C4B5A781D4B1A701C4B1B88D1
:1026A000FB861C4B98471C4B9847174B20221A70EF
:1026B000154B00225A70194B9847194B9847164BE7
:1026C0009847184B98470320174B9847032202213D
:1026D0000D480E4B98470023FB6402E0FB6C01336E
:1026E000FB64FB6CB3F57A7FF8D3074B20221A709A
:1026F000054B00225A70032202210348034B9847DE
:102700000023BB6423E000BFD80F07205D1708003B
:10271000D40F07201D1B0800391B0800011B0800EF
:10272000E11A0800D11B0800B5160800ED58080092
:102730008157080000001643FD5A0800955908000B
:1027400000247449215D0800BB6C0133BB64BB6C81
:10275000B3F57A7FF8D3934B1A78934B5A70914B19
:102760005A78914B1A70904B1B887B84FB8E4FF4E8
:10277000E16202FB03F27B8C92FBF3F28B4B10467F
:1027800098470346FB618A4B8A49F8699847034694
:10279000FB61894BF9694FF07E50984703461A4612
:1027A000864B8749104698470346BB61854BB869FD
:1027B000984703469AB23B681A80834B9847834BED
:1027C00098473DE1774B00221A70764B00225A70F1
:1027D0007F4B98477F4B98477C4B98477E4B984759
:1027E00003207E4B9847032202216E487C4B98477A
:1027F00000237B6402E07B6C01337B647B6CB3F56C
:102800007A7FF8D3674B00221A70664B00225A7009
:10281000032202216348724B9847624B1A78624B3D
:102820005A70604B5A78604B1A705F4B1B88FB865E
:10283000654B9847654B98475A4B18221A70594B6D
:1028400000225A70624B9847624B98475F4B9847FB
:10285000614B98470320614B98470322022151485E
:102860005F4B984700233B6402E03B6C01333B64C1
:102870003B6CB3F57A7FF8D34A4B18221A70494B58
:1028800000225A70032202214648554B9847454B77
:102890001A78454B5A70434B5A78434B1A70424B47
:1028A0001B88FB82FB8E4FF4E16202FB03F2FB8A82
:1028B00092FBF3F23D4B1046984703463B613C4B7D
:1028C0003C493869984703463B613B4B39694FF0B7
:1028D0007E50984703461A46384B39491046984768
:1028E0000346FB60374BF868984703469AB23B684B
:1028F0001A80354B9847354B9847A1E0294B002269
:102900001A70284B00225A70314B9847314B984728
:102910002E4B9847304B98470320304B9847032263
:10292000022120482E4B98470023FB6302E0FB6BFB
:102930000133FB63FB6BB3F57A7FF8D3194B0022AD
:102940001A70184B00225A70032202211548244B9A
:102950009847144B1A78144B5A70124B5A78124BF2
:102960001A70114B1B88FB86174B9847174B9847DB
:102970000C4B30221A700B4B00225A70144B9847A4
:10298000144B9847114B9847134B98470320134B10
:102990009847032202210348114B98470023BB6349
:1029A00023E000BFD80F0720D40F0720ED58080000
:1029B0008157080000001643FD5A08009559080089
:1029C00000247449215D08001D1B0800391B080004
:1029D000011B0800E11A0800D11B0800B516080009
:1029E0005D170800BB6B0133BB63BB6BB3F57A7F2C
:1029F000F8D3154B30221A70134B00225A70032261
:102A000002211148114B98470F4B1A78104B5A70FE
:102A10000D4B5A780E4B1A700D4B1B887B817B89AE
:102A200042F2107202FB03F2FB8E92FBF3F39AB2B6
:102A30003B681A80074B9847074B984700E000BF58
:102A400018467837BD4680BDD80F07205D170800AF
:102A5000D40F07201D1B0800391B080080B582B069
:102A600000AF01210020134B984700210020124B9A
:102A70009847124B80221A70104BC3225A70104B89
:102A80009847104B984701200F4B9847002202218E
:102A90000A480E4B984700237B6002E07B680133B5
:102AA0007B607B68B3F57A7FF8D300BF0837BD46FB
:102AB00080BD00BFAD15080001160800D80F072023
:102AC000011B0800291A0800B5160800ED160800B9
:102AD00080B582B000AF01210020134B9847002140
:102AE0000020124B9847124B80221A70104BC322C1
:102AF0005A70104B9847104B984701200F4B98473E
:102B0000002202210A480E4B984700237B6002E016
:102B10007B6801337B607B680A4A9342F8D900BF27
:102B20000837BD4680BD00BFAD150800011608007E
:102B3000D80F0720011B0800411A0800B51608002D
:102B4000ED1608007F96980080B584B000AF012193
:102B50000120274B984700210120264B9847264B00
:102B600080221A70244BC3225A70244B9847244B5E
:102B700098470220234B9847002202211E48224BEF
:102B800098470023FB6002E0FB680133FB60FB68B1
:102B9000B3F57A7FF8D300210120154B9847002127
:102BA0000120144B98470023BB6002E0BB6801334F
:102BB000BB60BB68B3F57A7FF8D30F4BF0221A7075
:102BC0000220104B9847114B9847022201210A48D6
:102BD0000D4B984700237B6002E07B6801337B60EC
:102BE0007B68B3F57A7FF8D300BF1037BD4680BD50
:102BF000AD15080001160800D80F0720011B0800BA
:102C0000A91A0800B5160800ED160800C51A080034
:102C100090B585B000AF78604FF00003BB60002333
:102C2000FB6071E03C4AFB6852F833203B4B79680B
:102C3000104698470346002B07D0374AFB68DB0055
:102C400013445B68364A136061E0334AFB6852F80C
:102C50003320344B7968104698470346002B4CD0FC
:102C6000FB6801332C4A52F833202F4B7968104609
:102C700098470346002B40D0FB680133264ADB000F
:102C800013445868244AFB68DB0013445A68274BF6
:102C90001146984703461C46FB6801331E4A52F80A
:102CA00033001D4AFB6852F83320204B11469847E9
:102CB00003461A461E4B1146204698470346BB6002
:102CC000154AFB6852F83320184B1146786898472C
:102CD00003461A46174BB9681046984703461846EC
:102CE0000D4AFB68DB0013445A68134B11469847A2
:102CF00003461A460A4B1A6009E0094B4FF00002DE
:102D00001A60FB680133FB60FB68952B8ADD00BF0E
:102D10001437BD4690BD00BF90010720BD5C080080
:102D2000AC0E0720D15C08000D5D0800815708003B
:102D3000FD5A0800955908008557080080B584B0F1
:102D400000AF78607B681B783B727B685B787B7236
:102D50007B685B887B817B689B88BB817B68DB8829
:102D6000FB81BB68124A9361FB68114AD361104B27
:102D700008229A710E4B00221A600D4B03221A7121
:102D80000B4B0122DA710A4B00225A71084B094A97
:102D9000DA60074B4FF420121A610548064B98473A
:102DA0000120064B984700BF1037BD4680BD00BFCD
:102DB000A80F07200000F01FD10308008D040800B1
:102DC00080B584B000AF78607E4B1B78DBB2062BF9
:102DD00000F2F18001A252F823F000BFF92D0800A3
:102DE000D32E0800F92E08001F2F0800452F0800D9
:102DF0006B2F0800912F080003233B7201237B7285
:102E00007B681B887B817B685B88BB817B689B8838
:102E1000FB8107F1080318466B4B984703233B726D
:102E200002237B727B68DB887B817B681B89BB818B
:102E30007B685B89FB8107F108031846624B984762
:102E400003233B7203237B727B689B897B817B68B6
:102E5000DB89BB817B681B8AFB8107F1080318466D
:102E6000594B984703233B7204237B727B685B8A30
:102E70007B817B689B8ABB817B68DB8AFB8107F156
:102E800008031846504B984703233B7205237B7277
:102E90007B681B8B7B817B685B8BBB817B689B8B9F
:102EA000FB8107F108031846474B984703233B7201
:102EB00006237B727B68DB8B7B817B681B8CBB81F1
:102EC0007B685B8CFB8107F1080318463E4B9847F3
:102ED00072E003233B7201237B727B681B887B813A
:102EE0007B685B88BB817B689B88FB8107F108035B
:102EF0001846354B98475FE003233B7202237B72F1
:102F00007B68DB887B817B681B89BB817B685B89F5
:102F1000FB8107F1080318462B4B98474CE003232D
:102F20003B7203237B727B689B897B817B68DB8997
:102F3000BB817B681B8AFB8107F108031846224B83
:102F4000984739E003233B7204237B727B685B8ADA
:102F50007B817B689B8ABB817B68DB8AFB8107F175
:102F600008031846184B984726E003233B720523B5
:102F70007B727B681B8B7B817B685B8BBB817B68F7
:102F80009B8BFB8107F1080318460F4B984713E012
:102F900003233B7206237B727B68DB8B7B817B6820
:102FA0001B8CBB817B685B8CFB8107F10803184697
:102FB000054B984700E000BF00BF18461037BD46DC
:102FC00080BD00BFC80F07203D2D08000000000095
:102FD000F0B58FB000AF78600023FB8607F13203B5
:102FE00019460120194B98470346BB86BB8E002B20
:102FF00005D17B8EBB81BA897B681A8001E0144BB6
:10300000984707F1320319460220104B98470346B0
:10301000BB86BB8E002B05D17B8EFB81FA897B683A
:103020005A8001E00B4B984707F132031946032001
:10303000064B98470346BB86BB8E002B0CD17B8E7C
:103040003B823A8A7B689A8008E000BFF51C080042
:10305000ED110800B5120800924B984707F13203B2
:1030600019460520904B98470346BB86BB8E002B24
:1030700011D17B8EBB828D4B1B88002B02D1BA8A6B
:103080008A4B1A80BB8A01211846894B9847874B87
:103090001A887B681A8107F1320319460620824B91
:1030A00098470346BB86BB8E002B11D17B8EFB82DB
:1030B000804B1B88002B02D1FA8A7E4B1A80FB8A38
:1030C000022118467A4B98477A4B1A887B685A81B6
:1030D00007F1320319460920734B98470346BB8614
:1030E000BB8E002B11D17B8EBB83734B1B88002BB7
:1030F00002D1BA8B704B1A80BB8B032118466C4BE4
:1031000098476D4B1A887B681A8207F1320319467B
:103110000720654B98470346BB86BB8E002B03D127
:103120007B8E1A46654B1A60654B1A68634B1B68A9
:103130001344634A1360634B1B780133DAB2614B6B
:103140001A70604B1B78052B38D15D4B1B685E4AAB
:10315000A2FB03239A085D4B1046984702465C4B3E
:103160001A605B4B1A685B4B5B49104698470346F5
:103170001A46584B59491046984703461A46584B29
:103180004FF08F411046984703461A46504B1A603D
:103190004F4B1B681846534B9847534B1A68534B79
:1031A0001046984703469BB23B833A8B7B689A81D3
:1031B000434B00221A60434B00221A7007F132037E
:1031C00019460820384B98470346BB86BB8E002B18
:1031D00003D17B8E1A46464B1A60464B1A68444B05
:1031E0001B681344434A1360434B1B780133DAB224
:1031F000414B1A70404B1B78322B38D13D4B1B682A
:103200003E4AA2FB03231A09304B10469847024658
:103210002F4B1A602E4B1A682E4B2F491046984799
:1032200003461A462B4B2D491046984703461A462B
:103230002B4B4FF08F411046984703461A46244BBC
:103240001A60234B1B681846264B9847264B1A6872
:10325000264B1046984703469BB27B837A8B7B684C
:10326000DA81244B00221A60234B00221A7007F1E6
:10327000320319460A200C4B98470346BB86BB8E87
:10328000002B03D17B8E1A461D4B1A601D4B1A680A
:103290001B4B1B6813441B4A13601B4B1B780133E9
:1032A00034E000BF7D130800F51C0800B40E0720B1
:1032B000AD370800B20E0720B00E0720E80E072039
:1032C000DC0E0720BF0E0720CDCCCCCCE558080083
:1032D000F80F0720955908000000C9430000C842B4
:1032E000FD5A0800112C0800AC0E0720215D0800D3
:1032F000EC0E0720E00E0720C00E07201F85EB51C3
:10330000F00E0720E40E0720C10E0720DAB2944B1E
:103310001A70934B1B78052B3BD1924B1B68924A3A
:10332000A2FB03239A08914B104698470246904B04
:103330001A608F4B1A688F4B8F4910469847034687
:103340001A468C4B8D491046984703461A468C4BBB
:103350004FF08F411046984703461A46844B1A6037
:10336000834B1B681846874B9847874B1A68874BD7
:103370001046984703469BB2A3F58C739BB2FB8320
:10338000FA8B7B685A82774B00221A60744B0022BA
:103390001A7007F1320319460F207D4B98477B8E38
:1033A0001A467C4B1A607C4B1A687A4B1B68134494
:1033B000794A1360794B1B780133DAB2774B1A7074
:1033C000764B1B78052B67D1734B1B68664AA2FBB3
:1033D00003239B08704A13606F4B1B689AB27B688B
:1033E0009A827B689A89614B1046984702466C4BDB
:1033F0001A606B4B1A68624B604910469847034647
:103400001A46674B1A607B689A8A584B1046984751
:103410000246644B1A60634B1A68634B1968554B3C
:103420001046984703461A46604B10469847054693
:103430000E465B4B1A685E4B5E4910469847034642
:103440001A465A4B104698475B4C43A3D3E90023D6
:10345000A04703460C4618462146584C4FF0000240
:10346000574BA04703460C461A462346554C284660
:103470003146A04703460C4619462246524B0846A1
:103480001146984703469AB27B689A82424B0022C3
:103490001A60424B00221A7007F1320319461020BD
:1034A0003B4B98477B8E1A46484B1A60484B1A682C
:1034B000464B1B681344464A1360464B1B78013346
:1034C000DAB2444B1A70434B1B78322B40F0BC806D
:1034D0003F4B1B68404AA2FB03231B093C4A136075
:1034E0003B4B1B689AB27B68DA827B68DA891F4B98
:1034F0001046984702462A4B1A60294B1A68204BFF
:103500001E491046984703461A46254B1A607B68A9
:10351000DA8A164B104698470246224B1A60214B16
:103520001A68224B1046984705460E461C4B1A68EF
:103530001F4B20491046984703461A461B4B10461E
:1035400098471D4C04A3D3E90023A04703460C462B
:1035500044E000BFAFF300801B2FDD240681953FC0
:10356000C10E0720E40E0720CDCCCCCCE5580800D6
:10357000F80F0720955908000000C9430000C84211
:10358000FD5A0800112C0800AC0E0720215D080030
:10359000F51C0800D00E0720C40E0720BC0E072023
:1035A000F00F0720F40F072040060720CD51080038
:1035B000815708000000C84175520800114F0800EB
:1035C0000000F03FC954080099560800D40E0720A7
:1035D000C80E0720BD0E07201F85EB511846214657
:1035E0005D4C4FF000025D4BA04703460C461A4667
:1035F00023465B4C28463146A04703460C461946F5
:103600002246584B0846114698470246564B1A60C8
:10361000554B1A68554B10469847554C4AA3D3E969
:103620000023A04703460C4619462246514B084644
:103630001146984703469AB27B68DA824E4B0022C5
:103640001A604E4B00221A7007F1320319460E2001
:103650004B4B98477B8E1A464A4B1A604A4B1A6866
:10366000484B1B681344484A1360484B1B7801338E
:10367000DAB2464B1A70454B1B78052B60D1424B92
:103680001B68434AA2FB03239B083F4A13603E4B3F
:103690001B689AB27B681A837B685A8A3D4B104636
:1036A000984702463C4B1A603B4B1A683B4B3C49DF
:1036B0001046984703461A46374B1A607B681A8BA8
:1036C000344B104698470246274B1A60264B1A681F
:1036D000264B1046984705460E462F4B1A68314B2D
:1036E00031491046984703461A46204B10469847E2
:1036F0001F4C17A3D3E90023A04703460C461846E6
:103700002146154C4FF00002144BA04703460C46CF
:103710001A462346124C28463146A04703460C461B
:1037200019462246134B08461146984703469AB25B
:103730007B681A83144B00221A60144B00221A7003
:1037400000BF3C37BD46F0BD85EB51B81E051240A9
:103750001B2FDD240681953F114F08000000F03F2C
:10376000C9540800D9560800F40F0720CD510800AD
:103770007552080099560800C80E0720BD0E072094
:10378000F51C0800D80E0720CC0E0720BE0E07201F
:10379000CDCCCCCCE5580800F00F0720FD5A08002E
:1037A0000000C842815708000000C84180B483B0BF
:1037B00000AF03460A46FB8013467B717B79022BE0
:1037C0001ED0032B36D0012B00D04DE0294B002218
:1037D0001A80284B1A88FB8813449AB2254B1A800A
:1037E000254B1B881A461346DB009A1AFB881344A4
:1037F000002B00DA0733DB109AB21F4B1A8033E03C
:103800001E4B00221A801D4B1A88FB8813449AB263
:103810001A4B1A801A4B1B881A461346DB009A1A59
:10382000FB881344002B00DA0733DB109AB2144BE9
:103830001A8019E0134B00221A80124B1A88FB8859
:1038400013449AB20F4B1A800F4B1B881A4613462B
:10385000DB009A1AFB881344002B00DA0733DB10D5
:103860009AB2094B1A8000BF002318460C37BD4698
:1038700080BC7047BA0E0720B40E0720B80E072090
:10388000B20E0720B60E0720B00E072080B500AF9D
:10389000064B9847064B9847064B9847064B984768
:1038A000064B9847064B984700BF80BD3507080078
:1038B000714008007D09080089180800A905080062
:1038C000051C080080B586B000AFF860B9607A606A
:1038D00000237B61FB68012B1ED0FB68022B1BD0F1
:1038E000FB68032B18D04FF0FF3319E00E4B1A681A
:1038F0000E4B1868BB68591CB9601B781946904775
:103900000346002B02DA4FF0FF3309E07B690133F5
:103910007B617B68013B7B607B68002BE6D17B6928
:1039200018461837BD4680BDFC0F07200010072041
:1039300080B489B000AFF860B9607A60BB681A01E2
:103940007B689A4202D81023FB6101E00823FB61E7
:103950007B68DA00FB69B96801FB03F35B081A4472
:10396000FB69B96801FB03F3B2FBF3F3BB61BB690D
:10397000DB087B61BB6903F007033B617B69002BBC
:1039800003D07B69B3F5803F01D301230FE0FB69CE
:10399000082B05D1FB685B6843F40022FB685A6082
:1039A0003B691A047B691A43FB681A6200231846B4
:1039B0002437BD4680BC704780B582B000AF7860C8
:1039C00078680D4B98477B6800225A607B6800221C
:1039D0005A627B6800229A627868084B9847786838
:1039E000074B98477868074B98477868064B984785
:1039F00000BF0837BD4680BD8D3B0800A93A0800CE
:103A0000D93A0800F13A08000D3B080080B584B0AF
:103A100000AFF860B9607A60F8681A4B98471A4BA3
:103A200000221A60BB68002B09D0BB681B687A684B
:103A30001946F868154B98470346002B01D001231F
:103A40001BE0BB685A68BB689B681A43BB681B696C
:103A50001A43BB68DB681A430B4B1B6813430A4AC3
:103A60001360094B1B68084A1360FB685A68064BD1
:103A70001B681A43FB685A60002318461037BD467E
:103A800080BD00BFB9390800F40E072031390800A5
:103A900080B483B000AF78607B6840221A6000BFBA
:103AA0000C37BD4680BC704780B483B000AF7860EF
:103AB0007B6888221A6000BF0C37BD4680BC704707
:103AC00080B483B000AF78607B6810221A6000BFBA
:103AD0000C37BD4680BC704780B483B000AF7860BF
:103AE0007B6824221A6000BF0C37BD4680BC70473B
:103AF00080B483B000AF78607B684FF480721A6046
:103B000000BF0C37BD4680BC704700BF80B483B097
:103B100000AF78607B684FF400221A6000BF0C375A
:103B2000BD4680BC704700BF80B483B000AF7860F2
:103B300039607B685B6903F00203002B01D101232C
:103B400005E03B68C3F308027B68DA61002318468E
:103B50000C37BD4680BC704780B483B000AF78603E
:103B600039607B685B6903F00103002B01D10123FD
:103B700006E07B689B69C3F308023B681A60002378
:103B800018460C37BD4680BC704700BF80B483B078
:103B900000AF78607B68044AC3F8E42000BF0C37AC
:103BA000BD4680BC704700BF0041535580B485B00E
:103BB00000AF786039600023FB607B68AC221A603C
:103BC0003B681A683B685B68B2FBF3F31B09FB6058
:103BD000FB68002B03D0FB68B3F5803F01D30123C2
:103BE0000FE07B68FA681A623B689A687B685A60E3
:103BF0007B6840F20222C3F820217B6850221A60C1
:103C0000002318461437BD4680BC704780B483B08B
:103C100000AF78600B46FB707B685B6903F00203C2
:103C2000002B01D1012303E0FA787B68DA610023DD
:103C300018460C37BD4680BC704700BF80B483B0C7
:103C400000AF786039607B685B6903F00103002B8B
:103C500001D1012305E07B689B69DAB23B681A70E9
:103C6000002318460C37BD4680BC704780B483B033
:103C700000AF78607B68072B25D801A252F823F0AB
:103C8000A13C0800A73C0800AD3C0800B33C08007C
:103C9000B73C0800BB3C0800BF3C0800C33C080020
:103CA0004FF4FA4310E04FF400430DE04FF40043AB
:103CB0000AE0084B08E0084B06E0084B04E0074B1D
:103CC00002E0064B00E0002318460C37BD4680BCDE
:103CD000704700BF00093D0000127A00001BB700CA
:103CE00080B500AF0620044B984702461346DB0020
:103CF0009B1A5B00184680BD6D3C080080B500AF84
:103D0000024B984703465B08184680BDE13C08001B
:103D100080B582B000AF78607868034B984700BFE9
:103D20000837BD4680BD00BF394B080080B58CB058
:103D300000AF78603960404B984703467B623B6830
:103D40001B68BB623B689B68FB623B681B68FB604F
:103D50003B685B683B613B689B687B613B68DB68F9
:103D6000BB610023FB617B68344A934208D1082081
:103D7000334B984707F1240319467868314B98472D
:103D80007B68314A934211D111202D4B98472A4B21
:103D90009847024607F10C03194678682B4B984761
:103DA00078682B4B984778682A4B98477B682A4A53
:103DB000934211D11220224B98471F4B984702463D
:103DC00007F10C0319467868204B98477868204B18
:103DD000984778681F4B98477B68204A934211D1D7
:103DE0001320174B9847144B9847024607F10C03D2
:103DF00019467868154B98477868154B9847786846
:103E0000144B98477B68164A934211D114200C4BEF
:103E10009847094B9847024607F10C031946786802
:103E20000A4B984778680A4B98477868094B984737
:103E300000BF3037BD4680BDFD3C080000080E4085
:103E4000113D0800AD3B0800008009400D3A080014
:103E5000913A0800C13A080000C0094000000A4039
:103E600000400A4080B582B000AF78600B46FB701E
:103E70007B68274A93420AD100BFFB7819467868CD
:103E8000244B98470346002BF7D101233CE07B6885
:103E9000214A93420AD100BFFB78194678681F4B2C
:103EA00098470346002BF7D101232DE07B681C4A7D
:103EB00093420AD100BFFB7819467868174B9847A0
:103EC0000346002BF7D101231EE07B68154A93427D
:103ED0000AD100BFFB7819467868104B9847034613
:103EE000002BF7D101230FE07B680F4A93420AD1E0
:103EF00000BFFB7819467868084B98470346002BAB
:103F0000F7D1012300E0002318460837BD4680BDE5
:103F100000080E400D3C080000800940293B0800C5
:103F200000C0094000000A4000400A4080B584B04B
:103F300000AF786039600023FB607B682B4A9342B6
:103F400007D100BF39687868294B98470346002B92
:103F5000F8D17B68274A93420DD100BF07F10C03CB
:103F600019467868244B98470346002BF6D1FB6826
:103F7000DAB23B681A707B68204A93420DD100BFC9
:103F800007F10C03194678681B4B98470346002B32
:103F9000F6D1FB68DAB23B681A707B68184A934224
:103FA0000DD100BF07F10C0319467868124B9847F2
:103FB0000346002BF6D1FB68DAB23B681A707B68C7
:103FC000104A93420DD100BF07F10C0319467868DF
:103FD000094B98470346002BF6D1FB68DAB23B68E1
:103FE0001A7000BF1037BD4680BD00BF00080E40EC
:103FF0003D3C080000800940593B080000C00940D2
:1040000000000A4000400A4080B582B000AF7860EE
:1040100039600F4A7B6813600E4B0F4A1A600F4BD2
:104020000F4A1A60396878680E4B98470E4B1B6828
:104030009B68002118460D4B98470B4B1B685B682B
:1040400000211846094B984700BF0837BD4680BD80
:1040500000100720FC0F0720653E0800A00F072076
:104060002D3F08002D3D0800700A0720C55E08009E
:1040700080B584B000AF3B4600221A605A609A6057
:10408000DA604FF4E1333B604FF40063BB603B46C2
:1040900019460548054B98470548064B984700BF09
:1040A0001037BD4680BD00BF00080E400940080023
:1040B000107A0800B55E080080B582B000AF786065
:1040C0007B68072B31D801A252F823F02941080060
:1040D000ED400800F5400800FD40080005410800DB
:1040E0000D410800154108001F4108000020114B38
:1040F00098471AE001200F4B984716E000200E4B1E
:10410000984712E010200C4B98470EE020200A4BF5
:1041100098470AE03E210020084B984705E03E21E1
:104120000120064B984700E000BF00BF0837BD469E
:1041300080BD00BF85490800F1490800614A0800B8
:1041400080B582B000AF78607B68072B26D801A2CB
:1041500052F823F0754108007941080079410800C0
:104160008B4108008B4108008B4108008B410800FF
:104170008B410800012312E00B4B98470346002BAC
:1041800014BF01230023DBB209E0084B9847034624
:10419000002B14BF01230023DBB200E000231846EC
:1041A0000837BD4680BD00BFBD490800D94A080098
:1041B00080B483B000AF78607B68072B25D801A25C
:1041C00052F823F0E5410800EB410800F1410800F6
:1041D000F7410800FB410800FF41080003420800C6
:1041E000074208004FF4FA4310E04FF400430DE09B
:1041F0004FF400430AE0084B08E0084B06E0084B88
:1042000004E0074B02E0064B00E0002318460C37A1
:10421000BD4680BC704700BF00093D0000127A0017
:10422000001BB70080B582B000AF0346FB7100BF32
:10423000FB791846054B9847034683F00103DBB230
:10424000002BF5D100BF0837BD4680BD41410800B5
:1042500080B586B000AFF8607A603B600B46FB72B9
:104260007B68002B07D13B68002B04D1FB684FF41F
:1042700070021A6019E0FB7A18460E4B9847024606
:104280007B68B2FBF3F37B617B693A6802FB03F363
:104290007B613B68013B1A04074B13407A68D2B23A
:1042A000134343F47C52FB681A6000BF1837BD46C5
:1042B00080BD00BFB14108000000FF0780B582B09B
:1042C00000AF786039603B68002B08D1094B9847F4
:1042D000094A7B681B6843F00053936205E0064A75
:1042E0007B681B6843F48033D36100BF0837BD4649
:1042F00080BD00BFF14A080000060E4080B582B0C4
:1043000000AF78607B68002B03D1054B98470346CC
:1043100002E0044B9847034618460837BD4680BD67
:10432000094B0800214B080080B582B000AF03465E
:10433000FB71FB79033B042B08D8FB791846064B2D
:104340009847FB791846054B984700E000BF00BF2F
:104350000837BD4680BD00BFB940080025420800AF
:1043600080B582B000AF786000BF7868044B984792
:104370000346002BF9D0002318460837BD4680BD00
:10438000FD42080080B500AF0620044B9847024666
:104390001346DB009B1A5B00184680BDB141080044
:1043A00080B500AF024B984703465B08184680BDB6
:1043B0008543080090B583B000AF1148114B984772
:1043C0000620114B9847381D0E23012206210F4C61
:1043D000A0473B1D002118460D4B984700200D4B70
:1043E000984710200C4B98470C4B98470C4B98471C
:1043F00003461846034B984700BF0C37BD4690BD97
:1044000000BD0105D10007202943080051420800E2
:10441000BD4208006143080005490800694C0800D6
:10442000A143080080B582B000AF78607868034B84
:10443000984700BF0837BD4680BD00BF394B080014
:1044400080B500AF0B20064B98470C20044B9847D3
:104450000D20034B98470E20014B984700BF80BDAD
:104460002544080080B500AF174B4FF400425A6056
:10447000164B98474FF060513B20154B98474FF033
:1044800060515520124B98474FF060515620104B09
:104490009847104968200E4B98470F495C200C4BF9
:1044A00098470E4A4FF440710D480E4B98474FF015
:1044B00000612B20064B98474FF000612A20044BE7
:1044C000984700BF80BD00BF501A0E40414408000D
:1044D000C5460800790000280100002801000008F6
:1044E000000E0E40E946080080B485B000AFF860C9
:1044F000B9607A607B68002B03D0FB68BA685A66A3
:1045000002E0FB68BA681A6600BF1437BD4680BC7B
:10451000704700BF80B487B000AFF860B9607A60C0
:10452000FB687A685A64BB68B3F1805F1FD0B3F14F
:10453000805F05D8002B27D0B3F1006F0AD01FE0B1
:10454000B3F1405F20D0B3F1605F1DD0B3F1205FC5
:104550001AD015E0FB681B6F7B61FB681A6F7B68E4
:10456000D9437B690B401A40FB681A6708E0FB6877
:104570001B6F7B617A687B691A43FB681A6700BF0F
:10458000FB687A685A6000E000BF1C37BD4680BCFB
:10459000704700BF80B584B000AFF860B9607A6042
:1045A000B968F868194B98477B6803F001031A460D
:1045B000B968F868164B98477B6803F00A03002B2C
:1045C00003D0FB68BA681A6202E0FB68BA685A62F4
:1045D0007B6803F00203002B04D0FB68BA68C3F8C1
:1045E000802008E07B6803F00803002B03D0FB6801
:1045F000BA68C3F88420FB68BA685A61FB68BA6875
:104600001A6000BF1037BD4680BD00BF7946080064
:10461000E944080080B584B000AFF860B9607A6002
:104620003B60B968F868124B9847BA69B968F8688E
:10463000104B98473B68002B03D0FB68BA681A659B
:1046400002E0FB68BA685A657B68002B03D0FB6800
:10465000BA681A6302E0FB68BA685A63FB68BA6812
:104660001A61FB68BA681A6000BF1037BD4680BD8A
:1046700079460800E944080080B483B000AF786050
:1046800039607B683A685A6400BF0C37BD4680BC0D
:10469000704700BF80B483B000AF78607B68DB6C8C
:1046A00018460C37BD4680BC704700BF80B483B04D
:1046B00000AF78607B689B6C18460C37BD4680BCA9
:1046C000704700BF80B584B000AF7860396078680B
:1046D000044B9847F86000BF00BF18461037BD462E
:1046E00080BD00BFCD47080090B587B002AFF8602D
:1046F000B9607A607B6803F0F043B3F1205F2ED09D
:10470000B3F1205F06D8B3F1006F0AD0B3F1805F38
:1047100016D04CE0B3F1405F27D0B3F1605F24D0F6
:1047200045E0BA684FF00061F868244B98477B6811
:1047300003F001031A46B968F868214B984738E03E
:10474000BA684FF08051F8681C4B98477B6803F0BB
:1047500001031A46B968F868194B984729E07A6846
:10476000B968F868174B984723E07B6803F06053FB
:10477000B3F1605F0CBF01230023DBB21A467B68F4
:1047800003F00403002B14BF01230023DBB21946FE
:104790007B6803F00103002B14BF01230023DBB26D
:1047A00000930B46B968F868074CA04701E0002366
:1047B00000E0012318461437BD4690BD154508009A
:1047C000E9440800954508001546080080B485B006
:1047D00000AF78607B685B0903F5001303F2077391
:1047E0005B02FB60FB6818461437BD4680BC70470F
:1047F00080B584B000AF786039607868264B984700
:10480000F8607868254B98470246FB681340FB60C8
:10481000FB68002B3CD00023BB6034E0204ABB681F
:104820001B0113441A683B689A4226D11C4ABB6894
:104830001B01134404331A68FB681340002B1CD07F
:10484000174ABB681B0113440C331B681449BA6830
:1048500012010A4410681249BA6812010A4404326B
:104860001268114698470E4ABB681B011344043373
:104870001B68DB43FA681340FB60BB680133BB6015
:10488000BB68062B03D8FB68002BC7D100E000BF34
:1048900000BF1037BD4680BD95460800AD460800F4
:1048A000F80E072080B500AF0B210248024B984755
:1048B00000BF80BD000E0E40F147080080B500AF7C
:1048C0000C210248024B984700BF80BD00100E40EB
:1048D000F147080080B500AF0D210248024B984710
:1048E00000BF80BD00120E40F147080080B500AF48
:1048F0000E210248024B984700BF80BD00140E40B5
:10490000F147080080B485B000AF78601C491C4BAB
:104910001B6B23F070027B6813430B634FF400633F
:10492000FB6007E0FB68002B01D1012323E0FB685B
:10493000013BFB60124B9B6E03F00803002BF1D090
:104940000F4A0F4B1B6B23F0030343F00203136367
:104950004FF40063FB6007E0FB68002B01D10123EB
:1049600009E0FB68013BFB60054B9B6E03F008030D
:10497000002BF1D0002318461437BD4680BC704789
:1049800000060E4080B483B000AF78607B68012BD6
:1049900007D1084A074B9B6843F0254343F4801333
:1049A0009360044B044A1A6000BF0C37BD4680BCBC
:1049B000704700BF101A0E40080000A580B400AF79
:1049C000094B5B6903F08003002B07D0074B9B6EFC
:1049D00003F08003002B01D0012300E000231846E0
:1049E000BD4680BC704700BF101A0E4000060E4046
:1049F00080B483B000AF7860184A184B1B6A43F448
:104A00005C1343F00803136200BF144B9B6E03F466
:104A10000033002BF9D01149104B1B6A23F45C13AF
:104A200023F070037A68134343F45C130B6200BFF6
:104A30000A4B9B6E03F40033002BF9D0074A074B57
:104A40001B6A23F09B7323F4803343F45C131362DB
:104A500000BF0C37BD4680BC704700BF00060E404B
:104A600080B483B000AF786039607B68002B08D0D9
:104A70001649164B1B6A164A1A40164B13430B6213
:104A80001EE01249114B1B6A23F45C1323F003034D
:104A90003A68120292B2134343F45C1343F00103E9
:104AA0000B6200BF094B9B6E03F00103002BF9D092
:104AB000064A064B1B6A43F09B7343F48033136230
:104AC00000BF0C37BD4680BC704700BF00060E40DB
:104AD000FCFFC8FE0200370180B400AF034B9B6EA1
:104AE00003F480331846BD4680BC704700060E4074
:104AF00080B400AF034B4FF000529A6200BFBD4636
:104B000080BC704700060E4080B400AF034B9B6E24
:104B100003F002031846BD4680BC704700060E40F5
:104B200080B400AF034B9B6E03F040031846BD46B4
:104B300080BC704700060E4080B483B000AF786040
:104B40007B682C2B01D901232FE07B681F2B13D806
:104B5000184B9A6901217B6801FA03F31A4001217D
:104B60007B6801FA03F39A421ED0124A01217B6846
:104B700001FA03F3136117E07B68203B7B600D4B68
:104B8000D3F8082101217B6801FA03F31A400121BF
:104B90007B6801FA03F39A4206D0064A01217B683A
:104BA00001FA03F3C2F80031002318460C37BD4662
:104BB00080BC704700060E4080B400AFFEE700BF27
:104BC00080B582B000AF1E4B7B601E4B3B607A68A5
:104BD0003B689A420CD007E03B681A1D3A607A683D
:104BE000111D796012681A603B68174A9342F3D32B
:104BF000164B3B6004E03B681A1D3A6000221A60C5
:104C00003B68134A9342F6D3124B7B60124A7B688F
:104C100023F0604323F07F0393607B68B3F1005F70
:104C200009D37B680D4A934205D80B4A0A4B9B680F
:104C300043F0005393600A4B98470A4B9847FEE7AE
:104C4000907A080000000720840E0720840E0720B9
:104C5000501007200000080000ED00E0FFFF0F20CB
:104C6000615D0800A94E080080B400AF574B1B6B74
:104C700003F00303032B00F28A8001A252F823F011
:104C8000914C0800B14C0800014D0800014D08008E
:104C90004F4B5B6903F08003002B04D04D4B4FF466
:104CA00000421A6073E04B4B4FF4FA421A606EE018
:104CB000464B1B6A03F08073002B03D0454B464ADA
:104CC0001A6064E0434B454A1A60404B1B6A03F08C
:104CD0007003102B04D0202B08D0002B0ED00EE038
:104CE0003C4B1B685B003B4A136008E0394B1A6879
:104CF00013465B001344374A136000E000BF46E0F0
:104D0000324B1B6A03F08073002B03D0314B324AC5
:104D10001A601CE02F4B314A1A602C4B1B6A03F0BF
:104D20007003102B04D0202B08D0002B0ED00EE0E7
:104D3000284B1B685B00274A136008E0254B1A6864
:104D400013465B001344234A136000E000BF1F4B6F
:104D50001B6B03F00303022B15D11C4B9A6A204BEB
:104D600013401B0C01331B4A126802FB03F3194A60
:104D70001360164B9B6ADBB2164A1268B2FBF3F360
:104D8000144A136002E0134B164A1A6000BF0F4B1F
:104D90001B6B03F07003702B08D10E4B1B68124A7B
:104DA000A2FB03235B080B4A13600AE0074B1B6B53
:104DB00003F070031B09074A126822FA03F3054A3D
:104DC000136000BFBD4680BC704700BF00060E40A8
:104DD000101A0E4044060720001BB70000093D00D2
:104DE0000000FF07001C4E0EABAAAAAA80B485B033
:104DF00000AF7860104BFB60104B1B68002B02D19A
:104E00000E4B0F4A1A600D4B1B68BB60BA687B687B
:104E10001A44FB689A4202DD4FF0FF3306E0074B6D
:104E20001A687B681344054A1360BB681846143738
:104E3000BD4680BC704700BFFC7F0820680F07207C
:104E40005030072080B483B000AF78604FF0FF335C
:104E500018460C37BD4680BC704700BF80B483B095
:104E600000AF786039603B684FF400525A6000230D
:104E700018460C37BD4680BC704700BF80B483B075
:104E800000AF7860012318460C37BD4680BC7047E0
:104E900080B485B000AFF860B9607A60002318462E
:104EA0001437BD4680BC704780B582B000AF0F4B51
:104EB00098470F4B984700233B6000237B6002E03C
:104EC0007B6801337B607B68092BF9DD09480A4B5D
:104ED00098470A4B1B78DBB2002BEED00548084BF5
:104EE0009847064B00221A70E7E700BF65440800A8
:104EF0008D38080004100720D12F0800A40E0720C9
:104F0000C12D080081F0004102E000BF83F00043A2
:104F100030B54FEA41044FEA430594EA050F08BF54
:104F200090EA020F1FBF54EA000C55EA020C7FEA18
:104F3000645C7FEA655C00F0E2804FEA5454D4EB95
:104F40005555B8BF6D420CDD2C4480EA020281EA5F
:104F5000030382EA000083EA010180EA020281EA97
:104F60000303362D88BF30BD11F0004F4FEA0131E9
:104F70004FF4801C4CEA113102D0404261EB4101F8
:104F800013F0004F4FEA03334CEA133302D052427E
:104F900063EB430394EA050F00F0A780A4F101043A
:104FA000D5F1200E0DDB02FA0EFC22FA05F2801874
:104FB00041F1000103FA0EF2801843FA05F359415A
:104FC0000EE0A5F120050EF1200E012A03FA0EFCD9
:104FD00028BF4CF0020C43FA05F3C01851EBE37103
:104FE00001F0004507D54FF0000EDCF1000C7EEB20
:104FF00000006EEB0101B1F5801F1BD3B1F5001F5E
:105000000CD349085FEA30004FEA3C0C04F101047C
:105010004FEA445212F5800F80F09A80BCF1004FA5
:1050200008BF5FEA500C50F1000041EB045141EA27
:10503000050130BD5FEA4C0C404141EB010111F428
:10504000801FA4F10104E9D191F0000F04BF0146D3
:105050000020B1FA81F308BF2033A3F10B03B3F1B1
:1050600020020CDA0C3208DD02F1140CC2F10C0241
:1050700001FA0CF021FA02F10CE002F11402D8BF9F
:10508000C2F1200C01FA02F120FA0CFCDCBF41EA6B
:105090000C019040E41AA2BF01EB0451294330BD3A
:1050A0006FEA04041F3C1CDA0C340EDC04F1140417
:1050B000C4F1200220FA04F001FA02F340EA0300EE
:1050C00021FA04F345EA030130BDC4F10C04C4F134
:1050D000200220FA02F001FA04F340EA0300294614
:1050E00030BD21FA04F0294630BD94F0000F83F45E
:1050F000801306BF81F480110134013D4EE77FEA41
:10510000645C18BF7FEA655C29D094EA050F08BF8C
:1051100090EA020F05D054EA000C04BF194610466D
:1051200030BD91EA030F1EBF0021002030BD5FEAB1
:10513000545C05D14000494128BF41F0004130BDD9
:1051400014F580043CBF01F5801130BD01F000452D
:1051500045F0FE4141F470014FF0000030BD7FEAA0
:10516000645C1ABF194610467FEA655C1CBF0B469B
:10517000024650EA013406BF52EA033591EA030FB2
:1051800041F4002130BD00BF90F0000F04BF0021AA
:10519000704730B54FF4806404F132044FF00005DD
:1051A0004FF0000150E700BF90F0000F04BF002156
:1051B000704730B54FF4806404F1320410F00045BC
:1051C00048BF40424FF000013EE700BF42004FEAB7
:1051D000E2014FEA31014FEA02701FBF12F07F4334
:1051E00093F07F4F81F06051704792F0000F14BF31
:1051F00093F07F4F704730B54FF4607401F0004575
:1052000021F0004120E700BF50EA010208BF7047CB
:1052100030B54FF000050AE050EA010208BF7047C0
:1052200030B511F0004502D5404261EB41014FF429
:10523000806404F132045FEA915C3FF4DCAE4FF02D
:1052400003025FEADC0C18BF03325FEADC0C18BF14
:10525000033202EBDC02C2F1200300FA03FC20FA65
:1052600002F001FA03FE40EA0E0021FA02F11444B2
:10527000C1E600BF70B54FF0FF0C4CF4E06C1CEAC7
:1052800011541DBF1CEA135594EA0C0F95EA0C0F3C
:1052900000F0DEF82C4481EA030621EA4C5123EAAF
:1052A0004C5350EA013518BF52EA033541F48011DE
:1052B00043F4801338D0A0FB02CE4FF00005E1FB91
:1052C00002E506F00042E0FB03E54FF00006E1FBDB
:1052D00003569CF0000F18BF4EF0010EA4F1FF041E
:1052E000B6F5007F64F5407404D25FEA4E0E6D415E
:1052F00046EB060642EAC62141EA55514FEAC5206F
:1053000040EA5E504FEACE2EB4F1FD0C88BFBCF5EA
:10531000E06F1ED8BEF1004F08BF5FEA500E50F19B
:10532000000041EB045170BD06F0004646EA010161
:1053300040EA020081EA0301B4EB5C04C2BFD4EB93
:105340000C0541EA045170BD41F480114FF0000E8C
:10535000013C00F3AB8014F1360FDEBF002001F0FA
:10536000004170BDC4F10004203C35DA0C341BDC74
:1053700004F11404C4F1200500FA05F320FA04F046
:1053800001FA05F240EA020001F0004221F000417A
:1053900010EBD37021FA04F642EB06015EEA430EED
:1053A00008BF20EAD37070BDC4F10C04C4F120051D
:1053B00000FA04F320FA05F001FA04F240EA0200D0
:1053C00001F0004110EBD37041F100015EEA430EA1
:1053D00008BF20EAD37070BDC4F1200500FA05F2C1
:1053E0004EEA020E20FA04F301FA05F243EA020340
:1053F00021FA04F001F0004121FA04F220EA02004F
:1054000000EBD3705EEA430E08BF20EAD37070BD94
:1054100094F0000F0FD101F00046400041EB010174
:1054200011F4801F08BF013CF7D041EA060195F056
:10543000000F18BF704703F00046520043EB030310
:1054400013F4801F08BF013DF7D043EA06037047FD
:1054500094EA0C0F0CEA135518BF95EA0C0F0CD008
:1054600050EA410618BF52EA4306D1D181EA03014E
:1054700001F000414FF0000070BD50EA410606BF48
:105480001046194652EA430619D094EA0C0F02D18D
:1054900050EA013613D195EA0C0F05D152EA0336D2
:1054A0001CBF104619460AD181EA030101F00041F0
:1054B00041F0FE4141F470014FF0000070BD41F039
:1054C000FE4141F4780170BD70B54FF0FF0C4CF413
:1054D000E06C1CEA11541DBF1CEA135594EA0C0F32
:1054E00095EA0C0F00F0A7F8A4EB050481EA030E7F
:1054F00052EA03354FEA013100F088804FEA033366
:105500004FF0805545EA131343EA12634FEA022233
:1055100045EA111545EA10654FEA00260EF00041F4
:105520009D4208BF964244F1FD0404F5407402D246
:105530005B084FEA3202B61A65EB03055B084FEAD7
:1055400032024FF480104FF4002CB6EB020E75EBD4
:10555000030E22BFB61A754640EA0C005B084FEAFC
:105560003202B6EB020E75EB030E22BFB61A754679
:1055700040EA5C005B084FEA3202B6EB020E75EBC4
:10558000030E22BFB61A754640EA9C005B084FEA3C
:105590003202B6EB020E75EB030E22BFB61A754649
:1055A00040EADC0055EA060E18D04FEA051545EA38
:1055B00016754FEA06164FEAC30343EA52734FEAE1
:1055C000C2025FEA1C1CC0D111F4801F0BD141EA5A
:1055D00000014FF000004FF0004CB6E711F4801FBF
:1055E00004BF01430020B4F1FD0C88BFBCF5E06F9F
:1055F0003FF6AFAEB5EB030C04BFB6EB020C5FEAAF
:10560000500C50F1000041EB045170BD0EF0004E03
:105610004EEA113114EB5C04C2BFD4EB0C0541EA35
:10562000045170BD41F480114FF0000E013C90E632
:1056300045EA060E8DE60CEA135594EA0C0F08BFF6
:1056400095EA0C0F3FF43BAF94EA0C0F0AD150EAF5
:1056500001347FF434AF95EA0C0F7FF425AF104688
:1056600019462CE795EA0C0F06D152EA03353FF4B0
:10567000FDAE1046194622E750EA410618BF52EA2D
:1056800043067FF4C5AE50EA41047FF40DAF52EA01
:1056900043057FF4EBAE12E74A0011D212F5001277
:1056A00011D20DD56FF47873B3EB62520ED44FEA7A
:1056B000C12343F0004343EA505323FA02F07047FA
:1056C0004FF00000704750EA013002D14FF0FF3038
:1056D00070474FF0000070474FEA4102B2F1E043DB
:1056E00024BFB3F5001CDCF1FE5C0DD901F0004CC9
:1056F0004FEAC0024CEA5070B2F1004F40EB830019
:1057000008BF20F00100704711F0804F21D113F144
:105710003872BCBF01F00040704741F480114FEA7D
:105720005252C2F11802C2F1200C10FA0CF320FA06
:1057300002F018BF40F001004FEAC1234FEAD32323
:1057400003FA0CFC40EA0C0023FA02F34FEA43038D
:10575000CCE77FEA625307D150EA01331EBF4FF016
:10576000FE4040F44000704701F0004040F0FE4031
:1057700040F40000704700BF80F0004002E000BF2E
:1057800081F0004142001FBF5FEA410392EA030F2C
:105790007FEA226C7FEA236C6AD04FEA1262D2EB76
:1057A0001363C1BFD218414048404140B8BF5B427B
:1057B000192B88BF704710F0004F40F4000020F014
:1057C0007F4018BF404211F0004F41F4000121F02A
:1057D0007F4118BF494292EA030F3FD0A2F1010274
:1057E00041FA03FC10EB0C00C3F1200301FA03F1B2
:1057F00000F0004302D5494260EB4000B0F5000FD5
:1058000013D3B0F1807F06D340084FEA310102F193
:105810000102FE2A51D2B1F1004F40EBC25008BF45
:1058200020F0010040EA03007047490040EB00000F
:1058300010F4000FA2F10102EDD1B0FA80FCACF13E
:10584000080CB2EB0C0200FA0CF0AABF00EBC2503D
:1058500052421843BCBFD0401843704792F0000F2B
:1058600081F4000106BF80F400000132013BB5E77E
:105870004FEA41037FEA226C18BF7FEA236C21D0F4
:1058800092EA030F04D092F0000F08BF0846704759
:1058900090EA010F1CBF0020704712F07F4F04D127
:1058A000400028BF40F00040704712F100723CBF3A
:1058B00000F50000704700F0004343F0FE4040F464
:1058C000000070477FEA226216BF08467FEA236322
:1058D0000146420206BF5FEA412390EA010F40F40D
:1058E000800070474FF0000304E000BF10F0004359
:1058F00048BF40425FEA000C08BF704743F0964340
:1059000001464FF000001CE050EA010208BF70475A
:105910004FF000030AE000BF50EA010208BF7047E1
:1059200011F0004302D5404261EB41015FEA010CF6
:1059300002BF84460146002043F0B64308BFA3F1EE
:105940008053A3F50003BCFA8CF2083AA3EBC253D0
:1059500010DB01FA02FC634400FA02FCC2F12002EF
:10596000BCF1004F20FA02F243EB020008BF20F026
:105970000100704702F1200201FA02FCC2F120028C
:1059800050EA4C0021FA02F243EB020008BF20EA81
:10599000DC7070474FF0FF0C1CEAD0521EBF1CEAAF
:1059A000D15392EA0C0F93EA0C0F6FD01A4480EA9D
:1059B000010C400218BF5FEA41211ED04FF0006386
:1059C00043EA501043EA5111A0FB01310CF00040B2
:1059D000B1F5000F3EBF490041EAD3715B0040EAD8
:1059E000010062F17F02FD2A1DD8B3F1004F40EBA8
:1059F000C25008BF20F00100704790F0000F0CF07B
:105A0000004C08BF49024CEA502040EA51207F3A3E
:105A1000C2BFD2F1FF0340EAC250704740F4000019
:105A20004FF00003013A5DDC12F1190FDCBF00F00A
:105A300000407047C2F10002410021FA02F1C2F1B8
:105A4000200200FA02FC5FEA310040F1000053EA54
:105A50004C0308BF20EADC70704792F0000F00F0A2
:105A6000004C02BF400010F4000F013AF9D040EAA8
:105A70000C0093F0000F01F0004C02BF490011F43C
:105A8000000F013BF9D041EA0C018FE70CEAD1533A
:105A900092EA0C0F18BF93EA0C0F0AD030F0004CBA
:105AA00018BF31F0004CD8D180EA010000F000406E
:105AB000704790F0000F17BF90F0004F084691F02C
:105AC000000F91F0004F14D092EA0C0F01D1420266
:105AD0000FD193EA0C0F03D14B0218BF084608D12F
