S00C0000435055322E73726563FE
S214080000F82E0720A93F0800A13F0800A13F0800D6
S214080010A13F0800A13F0800A13F0800000000001B
S214080020000000000000000000000000A13F0800DB
S214080030A13F080000000000A13F0800A13F0800FB
S214080040A13F0800A13F0800A13F0800A13F080003
S214080050A13F0800A13F0800A13F0800A13F0800F3
S214080060A13F0800A13F080000000000253C08004A
S2140800703D3C0800553C08006D3C080000000000A8
S21408008000000000A13F0800A13F0800A13F0800AB
S214080090A13F0800A13F0800A13F0800A13F0800B3
S2140800A0A13F080000000000A13F0800391508001D
S2140800B0C915080099160800A13F0800A13F0800C6
S2140800C0A13F0800C1160800A13F0800A13F08008C
S2140800D0A13F0800A13F0800A13F0800A13F080073
S2140800E0A13F0800A13F0800A13F0800A1020800A0
S2140800F0A13F080010B5054C237833B9044B13B15B
S2140801000448AFF300800123237010BD14090720AC
S2140801100000000054770800084B10B51BB10849CA
S2140801200848AFF300800848036803B910BD074BBA
S214080130002BFBD0BDE81040184700BF00000000A9
S21408014018090720547708005477080000000000B4
S21408015080B582B000AF78607868034B984700BFD8
S2140801600837BD4680BD00BFE93E080080B582B0AE
S21408017000AF78607B68054A934202D11820044B8A
S214080180984700BF0837BD4680BD00BF00800040C6
S2140801905101080080B500AF074B9847074B084A3F
S2140801A0C3F8E420054B074A1A61044B40F63F02A1
S2140801B0C3F8002100BF80BD2D36080000060E409B
S2140801C000434D50007940F880B483B000AF034632
S2140801D0FB71084997F907305B09FA7902F01F02A4
S2140801E0012000FA02F241F8232000BF0C37BD4672
S2140801F080BC704700E100E080B48BB000AF786048
S2140802000B46FB707B687B62FB7887F823307B6A3B
S214080210FB61FB69BB61BB695B097B617B6903F5B5
S214080220001303F207735B023B6197F82330002B39
S21408023009D07B6AFB60FB6803F01F0301229A4023
S2140802403B691A6308E07B6ABB60BB6803F01F0360
S21408025001229A403B695A6300BF2C37BD4680BCD2
S214080260704700BF80B483B000AF786039607B68A1
S2140802703A681A6000BF0C37BD4680BC704700BF9E
S21408028080B582B000AF78607B681B68002118468E
S214080290024B984700BF0837BD4680BDF9010800E5
S2140802A080B582B000AF114B1B697B607B68DBB200
S2140802B0002B17D00D4BD3F830327B607B6803F4E5
S2140802C00003002B0ED00A4B01221A60084A7B68EE
S2140802D093600748074B98470548074B9847074BCE
S2140802E001221A6000BF0837BD4680BD00400B409B
S2140802F0580A0720D104080001030800440907200B
S21408030080B485B000AF78607B689B69654A1360E7
S214080310644B1B780A2B40F0BF80624B5B78FB73FC
S214080320614AFB7B13705F4B5B88BB815F4B1B7816
S214080330002B03D0012B00F09680ADE0FB7B203B22
S214080340092B00F28C8001A252F823F075030800EE
S214080350AD030800C9030800070408004B0408009A
S214080360D7030800EB03080035040800F903080063
S214080370910308004E4B1B78DBB20133DAB24C4BC4
S2140803801A704C4AFB7B1370484B00221A7069E0BF
S214080390474B1B78DBB20133DAB2454B1A70464A34
S2140803A0FB7B1370414B00221A705BE0404B1B78B6
S2140803B0DBB20133DAB23E4B1A70404AFB7B13704D
S2140803C03A4B00221A704DE0394B01221A70374B0F
S2140803D000221A7046E03A4AFB7B1370344B01221F
S2140803E01A70324B00221A703CE0314B01221A7008
S2140803F02E4B00221A7035E02D4B01221A702B4B1B
S21408040000221A702EE0BB89002B2AD0BB892D4A01
S21408041013602D4B01221A70254B1B78DBB2013373
S214080420DAB2234B1A70294AFB7B13701F4B002243
S2140804301A7016E0244B00221A701D4B1B78DBB28C
S2140804400133DAB21A4B1A700CE0184B01221A70F4
S2140804501D4B00221A70164B00221A7002E000BFCD
S2140804601AE000BF18E0BB89002B14D0BB89154AD8
S21408047013600E4B01221A70134B00221A700C4B95
S21408048000221A70104B01221A70094B01221A70AA
S214080490064B00221A7000BF00BF1437BD4680BC4A
S2140804A0704700BF500A0720380907203009072080
S2140804B0780A07203C0907203B0907203D09072042
S2140804C03F0907207C0A07204C0A07203E09072018
S2140804D080B487B000AF786000237B617B681B68B8
S2140804E0FB747B689B68FB60FB6803F40003002BC7
S2140804F006D0FB6803F08073002B01D002237B61D3
S214080500264AFB7C5B01134403F503731B6823F040
S21408051060427B685A61FB681B0CDBB203F00F0372
S214080520DAB27B689A711D4AFB7C5B01134403F5BB
S21408053005731A687B689A61184AFB7C5B0113444A
S21408054003F506731A687B68DA61144AFB7C5B015C
S214080550134403F504731A687B689A607B689B6883
S214080560FB60FB6803F08073002B03D07B6943F0C5
S21408057004037B610949FB7C7A689279120402F4C9
S214080580702242F400025B010B4403F507731A60FD
S2140805907B6918461C37BD4680BC704700400B4038
S2140805A080B485B000AF78607B681B68FB732A4A06
S2140805B0FB7B5B01134403F504731A687B689A6037
S2140805C07B689B68BB60BB6803F40003002B01D103
S2140805D001233BE07B685B79002B0BD01E49FB7B35
S2140805E07A68126942F000525B010B4403F5027305
S2140805F01A6008E01849FB7B7A6812695B010B44AD
S21408060003F502731A601449FB7B7A6892695B01EA
S2140806100B4403F505731A607B689B79042B08D98D
S2140806200D49FB7B7A68D2695B010B4403F50673B8
S2140806301A600949FB7B7A689279120402F47022E0
S2140806405B010B4403F507731A600023184614373A
S214080650BD4680BC704700BF00400B4080B485B0E4
S21408066000AF0346FB71074B5B6A23F0FF03FB6092
S2140806700449FA79FB6813434B6200BF1437BD463A
S21408068080BC704700400B4080B485B000AF7860EF
S2140806907B681B68FB737B681B79002B2FD1354A58
S2140806A0FB7B10335B01134400221A60314AFB7B44
S2140806B010335B011344043300221A602D4AFB7B77
S2140806C05B01134403F5027300221A60294AFB7B78
S2140806D05B01134403F5057300221A60254AFB7B69
S2140806E05B01134403F5067300221A60214AFB7B5C
S2140806F05B01134403F5077300221A6035E01D48B2
S214080700FB7B1C49FA7B103252010A44126822F419
S21408071070227968C97909040A4310335B010344D7
S2140807201A601449FB7B7A68D26810335B010B4465
S21408073004331A600F49FB7B7A6812695B010B4425
S21408074003F502731A600B48FB7B0A49FA7B1032E2
S21408075052010A44126822F0E062796809790906AB
S2140807600A4310335B0103441A601437BD4680BC45
S214080770704700BF00400B4080B58EB000AF4F4BAF
S214080780BB62782387F827304D4B4E4AC3F8E420DF
S2140807904B4A4B4B1B6823F0010313604849BB6A5E
S2140807A0DB78013B03F00702BB6A9B78013B1B0121
S2140807B003F070031A43BB6A5B78013B1B0203F421
S2140807C0E0631A43BB6A1B79013B1B0303F44053DF
S2140807D01A4397F82730013B1B0403F4FE03134320
S2140807E04B6100233B72002387F82F300BE097F805
S2140807F02F307B603B1D1846334B984797F82F30B1
S214080800013387F82F3097F82F30072BEFD92C4A6B
S2140808102B4B1B6843F00103136000237B63002304
S2140808203B6305E0264B1B697B633B6B01333B63ED
S2140808307B6B03F40013002B03D13B6B234A9342D4
S214080840F0D9234B01221A60214B01221A71204B42
S2140808500022DA711E4B00225A711D4B1D4ADA60BF
S2140808601B4B4FF480221A611948174B98472B20C8
S214080870194B9847124B02225A60154B00221A60F1
S214080880134B03221A71124B0122DA71104B002205
S2140808905A710F4B0F4ADA600D4B4FF420121A614B
S2140808A00B48094B984702210C480D4B98470B48B4
S2140808B00C4B984700BF3837BD4680BD34760800D5
S2140808C000400B40004E4143890608009F86010001
S2140808D0580A07200000FC1FC9010800840A0720E0
S2140808E0650208008102080080B584B000AF1E4B80
S2140808F006221A8001211C481C4B98470023FB60DF
S21408090002E0FB680133FB60FB6842F20F72934219
S214080910F7DD154B43221A80134B3A225A80124BA6
S21408092004229A80104B9822DA800F4B00221A81F4
S21408093005210D480D4B98470B4B08221A800121BC
S21408094009480A4B98470023BB6002E0BB6801339E
S214080950BB60BB6842F20F729342F7DD00237B60F0
S21408096000BF1037BD4680BD780E0720A90B0800CB
S21408097080B584B000AF1E4B06221A8001211C48A1
S2140809801C4B98470023FB6002E0FB680133FB60C2
S214080990FB6842F20F729342F7DD154B43221A802A
S2140809A0134B3A225A80124B04229A80104B9822F4
S2140809B0DA800F4B00221A8105210D480D4B984707
S2140809C00B4B08221A80012109480A4B9847002336
S2140809D0BB6002E0BB680133BB60BB6842F20F72C3
S2140809E09342F7DD00237B6000BF1037BD4680BD0D
S2140809F0780E0720A90B080090B482B000AF034613
S214080A00FB800B467B7113463B711149FB881048E7
S214080A10FA880C3250F8222092B20C3341F8232080
S214080A200B4CFB880A49FA880C3251F822107A795E
S214080A30120402F47F023879000602430A430C3394
S214080A4044F8232000BF0837BD4690BC704700BF57
S214080A500080004080B483B000AF03463960FB8056
S214080A600E49FB880D48FA880C3250F8222022F0EE
S214080A70F0020C3341F823200848FB880749FA8817
S214080A800C3251F822103A680A430C3340F82320F7
S214080A9000BF0C37BD4680BC704700BF00800040D2
S214080AA080B483B000AF03463960FB803B68002BF8
S214080AB00CD00F49FB880E48FA880C3250F82220D2
S214080AC042F001020C3341F823200BE00849FB886A
S214080AD00748FA880C3250F8222022F001020C331C
S214080AE041F8232000BF0C37BD4680BC704700BFC6
S214080AF00080004080B483B000AF03463960FB80B6
S214080B003B68002B0CD00F49FB880E48FA880C323D
S214080B1050F8222042F002020C3341F823200BE062
S214080B200849FB880748FA880C3250F8222022F039
S214080B3002020C3341F8232000BF0C37BD4680BCA8
S214080B40704700BF0080004080B483B000AF034603
S214080B500A46FB8013467B717B79002B02D14FF047
S214080B60FF331AE00F49FB880E48FA880C3250F813
S214080B70222022F47F420C3341F823200948FB88C0
S214080B800849FA880C3251F822107A79120292B281
S214080B900A430C3340F82320002318460C37BD467A
S214080BA080BC70470080004080B586B000AF786093
S214080BB0396043F698233B617B68FB6000237B61C2
S214080BC022E07B695B00FA6813441B88DBB2184690
S214080BD0124B984704E03B695A1E3A61002B18D01E
S214080BE00F4B1B6903F00103002BF4D00D480E4B86
S214080BF098477B695B00FA6813440A4A127892B2EF
S214080C001A807B6901337B617A693B689A42D8D33C
S214080C1000E000BF1837BD4680BD00BF890C08003D
S214080C2000800040490907202D0C080080B485B0D4
S214080C3000AF786043F69823FB6006E0FB685A1E10
S214080C40FA60002B01D1012315E00D4B1B6903F058
S214080C500103002BF2D00A4B1B6903F00103002B9B
S214080C6003D0074B9B68074A1360064B1B68DAB22B
S214080C707B681A70002318461437BD4680BC704738
S214080C80008000404C09072080B485B000AF0346BA
S214080C90FB7143F69823FB6006E0FB685A1EFA6071
S214080CA0002B01D101230BE0084B1B6903F002035C
S214080CB0002BF2D0FB79BB60044ABB68D3600023E4
S214080CC018461437BD4680BC704700BF00800040F9
S214080CD080B586B000AF7860396043F698233B61EC
S214080CE07B68FB6000237B611FE0FA687B6913441E
S214080CF01B78DBB21846114B984704E03B695A1E2E
S214080D003A61002B16D00E4B1B6903F00103002B2B
S214080D10F4D00C480C4B9847FA687B691344094A88
S214080D2012781A707B6901337B617A693B689A424C
S214080D30DBD300E000BF1837BD4680BD890C08002D
S214080D4000800040500907202D0C080080B582B0AE
S214080D5000AF434B434AC3F8E420434B434AC3F827
S214080D60E4203F48424B98473D4B02221A603C4BD2
S214080D7080221A603A4B4FF080721A60384A384B15
S214080D805B6843F001035360354A354B5B6843F0B4
S214080D9010035360374B1B789BB200211846364B1E
S214080DA09847344B1B789BB201211846334B98471B
S214080DB0304B1B789BB200211846314B98472D4B79
S214080DC01B789BB2FF2118462E4B9847294B1B7859
S214080DD09BB23022FF2118462B4B98472B4B1B788B
S214080DE09BB200211846244B9847284B1B789BB289
S214080DF001211846214B9847244B1B789BB20021AB
S214080E0018461F4B9847214B1B789BB2FF21184664
S214080E101C4B98471D4B1B789BB23022FF21184667
S214080E20194B98470E4B01221A60194B9847194BD5
S214080E30984700237B6002E07B6801337B607B6811
S214080E40154A9342F8D902211448154B9847154B72
S214080E509847154B984700BF0837BD4680BD00BF6A
S214080E60008000400049505300060E4000434D5095
S214080E706D01080048090720A10A0800F50A0800BD
S214080E80550A0800490B0800F90908000000072061
S214080E90AD0E0800E90808009F8601008C0E0720A2
S214080EA0D10C0800010F08007109080080B400AFD3
S214080EB0114A114B5B6823F0020353600E4A0E4B2F
S214080EC05B6823F4702353600B4A0B4B5B6823F074
S214080ED0040353600849084B5A68084B1B781846A1
S214080EE001238340DB431B0403F4702313434B6046
S214080EF000BFBD4680BC70470080004048090720F8
S214080F0080B400AF114A114B5B6823F002035360AC
S214080F100E4A0E4B5B6823F4702353600B4A0B4B48
S214080F205B6823F0040353600849084B5A68084B6B
S214080F301B78184601238340DB431B0403F4702305
S214080F4013434B6000BFBD4680BC7047008000401E
S214080F500000072080B584B000AF0346FB7100236D
S214080F60FB81294B01221A70274B07225A70FB79FE
S214080F70012B03D0022B22D000BF40E000BF234B3A
S214080F80DB6B9B0903F00103002BF8D1204B984735
S214080F90204B00221A701F4B00225A7002211D484F
S214080FA01D4B98471B4B1A781C4B5A70194B5A788E
S214080FB01A4B1A70194B1B88FB81FB891FE000BF70
S214080FC0124BDB6B5B0903F00103002BF8D1144BC3
S214080FD09847104B00221A700E4B00225A700221B6
S214080FE00C480D4B98470B4B1A780C4B5A70094B0C
S214080FF05A780A4B1A70094B1B88FB81FB891846DE
S2140810001037BD4680BD00BF400A072000120E40BC
S214081010AD0E08008C0E0720D10C0800840E0720A1
S214081020010F080080B500AF3B4B3C4AC3F8E420EC
S2140810303B4B3A4AC3F8E4203A4B384AC3F8E42014
S214081040394B364AC3F8E420334B4FF4C0225A666D
S214081050314B364A5A60304B4FF440725A662E4B24
S2140810604FF4F8421A602C4B4FF420521A612A4B60
S2140810704FF4A8425A61284B4FF400621A63264B75
S2140810804FF400525A63244B4FF420525A66244BAE
S214081090274A1A60224B4FF0C0621A61204B4FF461
S2140810A000425A611E4B4FF0C0621A631D4B214A1C
S2140810B01A601C4B204A1A611A4B204A5A61194B6F
S2140810C01F4A1A63174B1C4A5A66164B4FF40402FB
S2140810D05A63154B40F2EF621A60134B40F24F62A8
S2140810E01A61114B20225A610F4B40F24F621A6365
S2140810F00D4B40F24F625A664FF000610120114BCB
S21408110098474FF0006100200E4B98470E49022082
S2140811100C4B984700BF80BD000E0E40004F49504C
S21408112000100E4000120E4000140E400000063E4E
S214081130008000066AF08F0102F08F406800000108
S21408114002F00B00593908000100003080B483B063
S21408115000AF786039607B68B3F1805F14D0B3F174
S214081160805F03D8B3F1006F07D022E0B3F1C05F09
S21408117011D0B3F1005F15D01BE0114A01213B687E
S21408118001FA03F3136314E00E4A01213B6801FADF
S21408119003F313630DE00C4A01213B6801FA03F3DD
S2140811A0136306E0094A01213B6801FA03F3136357
S2140811B000BF002318460C37BD4680BC704700BFEA
S2140811C0000E0E4000100E4000120E4000140E4096
S2140811D080B483B000AF786039607B68B3F1805F15
S2140811E014D0B3F1805F03D8B3F1006F07D022E0C4
S2140811F0B3F1C05F11D0B3F1005F15D01BE0114A00
S21408120001213B6801FA03F3536314E00E4A0121F7
S2140812103B6801FA03F353630DE00C4A01213B686F
S21408122001FA03F3536306E0094A01213B6801FA11
S21408123003F3536300BF002318460C37BD4680BC33
S214081240704700BF000E0E4000100E4000120E4001
S21408125000140E4080B485B000AF78603960002373
S214081260FB817B68B3F1805F1AD0B3F1805F03D847
S214081270B3F1006F07D03CE0B3F1C05F1DD0B3F107
S214081280005F29D035E01D4BDB6B01213A6801FA77
S21408129002F21340002B01D100232AE0012328E0A4
S2140812A0174BDB6B01213A6801FA02F21340002B58
S2140812B001D100231DE001231BE0124BDB6B01214B
S2140812C03A6801FA02F21340002B01D1002310E01D
S2140812D00123FB81FB890CE00B4BDB6B01213A6891
S2140812E001FA02F21340002B01D1002301E001238A
S2140812F0FFE718461437BD4680BC7047000E0E4000
S21408130000100E4000120E4000140E4080B483B049
S21408131000AF0346FB71084997F907305B09FA796D
S21408132002F01F02012000FA02F241F8232000BF53
S2140813300C37BD4680BC704700E100E080B483B03F
S21408134000AF0346FB71094997F907305B09FA793C
S21408135002F01F02012000FA02F2203341F823208F
S21408136000BF0C37BD4680BC704700BF00E100E0F8
S21408137080B483B000AF0346FB71094997F907307C
S2140813805B09FA7902F01F02012000FA02F26033C4
S21408139041F8232000BF0C37BD4680BC704700BF0D
S2140813A000E100E080B483B000AF03463960FB710B
S2140813B097F90730002B0BDA0D49FB7903F00F037A
S2140813C0043B3A68D2B21201D2B20B441A7609E04C
S2140813D0084997F907303A68D2B21201D2B20B44DC
S2140813E083F8002300BF0C37BD4680BC704700BF9B
S2140813F000ED00E000E100E080B500AF1620294BC4
S21408140098471620284B984700211620274B9847C0
S2140814101620274B98470820224B98470820224B2F
S214081420984700210820214B98470820204B9847CA
S21408143001212048204B98471B201A4B98471B2011
S214081440194B984700211B20184B98471B20184B10
S21408145098471C20134B98471C20134B984700218D
S2140814601C20124B98471C20114B98471E200D4BEA
S21408147098471E200C4B984700211E200B4B984778
S2140814801E200B4B98472120064B98472120064BD9
S214081490984700212120054B98472120044B984760
S2140814A000BF80BD3D13080071130800A51308008F
S2140814B00D13080000080E40CD21080080B400AFC8
S2140814C00D4B0E4AC3F8E4200B4B0D4AC3F8802296
S2140814D0094BFF229A60084B40F64122C3F88C223B
S2140814E0054B40F29732C3F88422034B10225A6009
S2140814F000BFBD4680BC704700400940004D5750AD
S2140815000506070080B483B000AF0346FB7109499F
S21408151097F907305B09FA7902F01F02012000FAF2
S21408152002F2603341F8232000BF0C37BD4680BC6A
S214081530704700BF00E100E080B500AF164B1B788F
S214081540DBB20133DAB2144B1A70144B1B68194617
S2140815501348144B9847114B1B689AB2124B1A80C3
S214081560124B1B78DBB2012B10D1114B00221A60EC
S2140815700A4B00221A600F4B1B6801330D4A136092
S2140815800D4B01221A700D4B00221A6000210C48E0
S2140815900C4B984700BF80BD660907206C090720DA
S2140815A07C7608003147080064090720830907206D
S2140815B07009072060090720580907205C090720DA
S2140815C0000008404921080098B500AF294B1B6861
S2140815D00133284A1360284B1B68012B22D1274B5E
S2140815E01A68274B1B689A4204D101212548264BC6
S2140815F0984739E01F4B1B68022B35D11F4B1B68D9
S214081600013B1E4A136000211E481F4B98471B4B80
S2140816101B681B2200211B481C4CA047154B0022A8
S2140816201A6021E0144B1B68002B1DD1134B1A6857
S214081630134B1B689A4204D101211248124B984753
S21408164012E00C4B1B68022B0ED10C4B1B680133A7
S2140816500A4A1360094B1B681A46002109480C4BB6
S2140816609847044B00221A6001210648094B984700
S21408167000BF98BD940E0720C40E0720A80E0720AA
S2140816800400072000000840DD200800F91B0800B9
S214081690FD2008004921080080B400AF074B1B68EE
S2140816A05A1C06490A604FF6E852934202D9034B81
S2140816B000221A6000BFBD4680BC70475409072048
S2140816C080B586B000AF21203B4B984700237B614E
S2140816D000233B610023FB600023BB6000237B6084
S2140816E0364B1B680133354A1360344B1B68012B95
S2140816F025D1334B1B680133314A1360314BDB6B02
S2140817005B0A03F00103304A13602F4B1B68012B5A
S21408171008D12E4B1B68002B04D12D4B1B680133B8
S2140817202B4A1360284B1B68284A13607B690133D1
S2140817307B61224B00221A60264B05221A607B69C1
S214081740022B07D13B6901333B6100237B61214BA8
S21408175000221A603B69052B07D1FB680133FB6042
S21408176000233B611B4B01221A60FB68022B07D142
S214081770BB680133BB600023FB60164B02221A606D
S214081780BB68052B07D17B6801337B600023BB60F1
S214081790104B03221A607B68022B04D100237B605F
S2140817A00C4B04221A6000210B480C4B984700BFCC
S2140817B01837BD4680BD00BF051508006809072014
S2140817C07009072000120E407409072078090720C0
S2140817D06C090720540907200080084049210800A2
S2140817E080B582B000AF0346FB71FB79012B00D0B1
S2140817F012E00C4B40F64122C3F88C22094A0A4BE9
S2140818001B68C2F88432074B10225A604FF080518A
S2140818105520064B984700BF002318460837BD4694
S21408182080BD00BF0040094008000720593908005D
S21408183080B483B000AF0346FB71FB79012B00D060
S21408184003E0054B10229A6000BF002318460C37A9
S214081850BD4680BC704700BF0040094080B584B0D4
S21408186000AF0346FB710023FB60FB79013B072BA7
S21408187036D801A252F823F099180800B1180800C3
S214081880E1180800E1180800A5180800BD180800A7
S214081890C9180800D51808001523FB604FF0006328
S2140818A0BB601EE00D23FB604FF00063BB6018E0D2
S2140818B01623FB604FF00063BB6012E00B23FB604F
S2140818C04FF00063BB600CE01723FB604FF0C0537B
S2140818D0BB6006E01223FB604FF0C053BB6000E01D
S2140818E000BFF968B868034B9847002318461037B6
S2140818F0BD4680BD4D11080080B584B000AF0346D4
S214081900FB710023FB60FB79013B072B36D801A24D
S21408191052F823F0351908004D1908007D190800FB
S2140819207D190800411908005919080065190800AA
S214081930711908001523FB604FF00063BB601EE0BA
S2140819400D23FB604FF00063BB6018E01623FB60B6
S2140819504FF00063BB6012E00B23FB604FF00063A0
S214081960BB600CE01723FB604FF0C053BB6006E07B
S2140819701223FB604FF0C053BB6000E000BFF9685D
S214081980B868034B9847002318461037BD4680BDF5
S214081990D111080080B586B000AF0346FB7100235E
S2140819A0FB73FB79013B062B3AD801A252F823F0C9
S2140819B0CD190800D9190800E5190800F11908001A
S2140819C0FD190800091A0800151A08000A237B6181
S2140819D04FF0C0533B6124E009237B614FF0C053AE
S2140819E03B611EE007237B614FF0C0533B6118E064
S2140819F007237B614FF0C0533B6112E00C237B61E9
S214081A004FF080533B610CE008237B614FF0C053D6
S214081A103B6106E018237B614FF0C0533B6100E052
S214081A2000BF79693869044B98470346FB73FB7B0C
S214081A3018461837BD4680BD5512080080B584B0D4
S214081A4000AF0346FB7100237B73FB79012B02D0A2
S214081A50022B08D00FE00120094B98470346FB816C
S214081A6000237B7307E00220054B98470346FB815B
S214081A7001237B7300BFFB8918461037BD4680BD1F
S214081A80550F080090B589B000AF03460A46FB71AB
S214081A901346BB710023FB61BB79DB011B4A92FB33
S214081AA0F3F35A1E1A4B1046984703460C46C7E9E6
S214081AB00434184BD7E9040198470346FB60FB79C2
S214081AC0012B0BD0022B12D0002B00D018E0FB689D
S214081AD02122F9691048114CA04711E0BB79FB6038
S214081AE0FB681B2200210E480E4CA04708E0BB7975
S214081AF0FB60FB681C22012109480B4CA04700BF6D
S214081B0000BF18462437BD4690BD00BF00BD01057E
S214081B10D5450800A1460800008008409D1B08001F
S214081B2000000840F91B0800691C080080B500AFD3
S214081B30164B174AC3F8E420164B154AC3F8E42098
S214081B401B20154B98471C20134B98472120124BF7
S214081B5098470E4B4CF203025A600C4B4CF20302A9
S214081B605A640A4B4CF20302C3F88420074B10222F
S214081B705A62064B10225A66044B1022C3F8A42059
S214081B80044B10225A6200BF80BD00BF0000084008
S214081B90004D495400400840E93E080080B584B02E
S214081BA000AFF860B9603B601346FB7100200D4B30
S214081BB098470023BB600C4B4CF203025A603A6805
S214081BC0B968F868094B9847B968F868084B9847A1
S214081BD01022B968F868074B984700BF18461037B0
S214081BE0BD4680BD693F080000800840FD2008000B
S214081BF0BD2008002121080080B584B000AFF86039
S214081C00B9603B601346FB710020104B98471B20B9
S214081C100F4B98474CF20302B968F8680D4B984783
S214081C200D4B4CF203025A603A68B968F8680B4BD9
S214081C309847102200210848094B9847B968F86861
S214081C40084B984700BF1037BD4680BD693F08005F
S214081C50E93E08008520080000000840FD2008002E
S214081C6021210800BD20080080B584B000AFF860C8
S214081C70B9603B601346FB710020104B98471C2048
S214081C800F4B98474CF20302B968F8680D4B984713
S214081C900D4B4CF203025A643A68B968F8680B4B65
S214081CA09847102201210848094B9847B968F868F0
S214081CB0084B984700BF1037BD4680BD693F0800EF
S214081CC0E93E08008520080000000840FD200800BE
S214081CD021210800BD20080080B584B000AFF86058
S214081CE0B9603B601346FB710020114B98471D20D6
S214081CF0104B98474CF20302B968F8680E4B9847A1
S214081D000E4B4CF20302C3F884203A68B968F868A8
S214081D100B4B98471022022108480A4B9847B96887
S214081D20F868094B984700BF1037BD4680BD00BF0E
S214081D30693F0800E93E08008520080000000840C2
S214081D40FD20080021210800BD20080080B582B0CB
S214081D5000AF0346FB71FB791846034B98470023F0
S214081D6018460837BD4680BDE117080080B582B022
S214081D7000AF0346FB71FB791846034B98470023D0
S214081D8018460837BD4680BD3118080080B582B0B1
S214081D9000AF0346FB71FB791846034B98470023B0
S214081DA018460837BD4680BD5D18080080B582B065
S214081DB000AF0346FB71FB791846034B9847002390
S214081DC018460837BD4680BDF918080080B588B0A3
S214081DD000AF78600220294B98470346FB81012014
S214081DE0264B98470346BB810120254B9847034658
S214081DF09BB2BB820220224B984703469BB2FB82CB
S214081E0003201F4B984703469BB23B8304201C4B7A
S214081E10984703469BB27B830520194B9847034691
S214081E209BB27B820620164B984703469BB23B82A2
S214081E300720134B984703469BB2BB83BA897B6837
S214081E401A80FA897B685A807A8A7B68DA803A8AA6
S214081E507B689A80BA8A7B681A81FA8A7B685A8174
S214081E603A8B7B689A817A8B7B68DA81BA8B7B6837
S214081E701A82002318462037BD4680BD3D1A080042
S214081E809519080080B584B000AF786001233B72CE
S214081E9007237B727B681B887B817B685B88BB819A
S214081EA0064B1B88FB8107F108031846044B984726
S214081EB000BF00BF18461037BD4680BD640907201E
S214081EC0C51E080080B584B000AF78607B681B78B4
S214081ED03B727B685B787B727B685B887B817B6800
S214081EE09B88BB817B68DB88FB81BB68144A93614F
S214081EF0FB68134AD361124B08229A71104B0022D2
S214081F001A600F4B03221A710D4B0122DA710C4B23
S214081F1000225A710A4B40F2FC72DA60084B4FF402
S214081F2020121A6100BF0648064B98470346012B45
S214081F30F9D00120044B984700BF1037BD4680BD36
S214081F40580A0720A10508005D06080080B500AFFE
S214081F500A4B98470A4B98470A4B98470A4B9847A4
S214081F600A4B98470A4B98470A4B98474FF47A719A
S214081F700020094B984700BF80BD00BF95010800A8
S214081F80F913080025100800BD1408002D1B0800CA
S214081F90790708004D0D08009D1F080080B582B01F
S214081FA000AF03463960FB713B68DAB2FB7911462D
S214081FB01846034B9847002318460837BD4680BD89
S214081FC0851A080080B586B000AFF860B9607A60F8
S214081FD000237B61FB68002B12D04FF0FF3313E021
S214081FE00B4B1B680B4A1268B96810469847BB68C3
S214081FF00133BB607B6901337B617B68013B7B6097
S2140820007B68002BECDC7B6918461837BD4680BD1C
S2140820109C0E0720A40E072080B586B000AFF86097
S214082020B9607A6000237B61FB68012B1ED0FB68D1
S214082030022B1BD0FB68032B18D04FF0FF3319E098
S2140820400E4B1A680E4B1868BB68591CB9601B788B
S214082050194690470346002B02DA4FF0FF3309E093
S2140820607B6901337B617B68013B7B607B68002B67
S214082070E6D17B6918461837BD4680BDA00E0720F6
S214082080A40E072080B487B000AFF860B9607A6005
S214082090FA68BB689B0113447B617B6902221A605D
S2140820A07B694FF0FF329A627B691B6A7B697A68A4
S2140820B05A6000BF1C37BD4680BC704780B483B0EA
S2140820C000AF786039607A683B689B011344052244
S2140820D01A6000BF0C37BD4680BC704780B483B01A
S2140820E000AF786039607A683B689B011344022227
S2140820F01A6000BF0C37BD4680BC704780B485B0F8
S21408210000AFF860B9607A60FA68BB689B01134450
S2140821101C337A681A6000BF1437BD4680BC704707
S21408212080B487B000AFF860B9607A60FA68BB68B8
S2140821309B0113447B617B697A685A6200BF1C372F
S214082140BD4680BC704700BF80B485B000AF7860DD
S21408215039607A683B689B011344FB60FB681B6A1E
S21408216018461437BD4680BC704700BF80B485B09B
S21408217000AF786039600023FB607B68AC221A6089
S2140821803B681A683B685B68B2FBF3F31B09FB60A5
S214082190FB68002B03D0FB68B3F5803F01D301230F
S2140821A00FE07B68FA681A623B689A687B685A6030
S2140821B07B6840F20222C3F820217B6850221A600E
S2140821C0002318461437BD4680BC704780B483B0D9
S2140821D000AF786039607B683A689A6000BF0C3751
S2140821E0BD4680BC704700BF80B483B000AF78603F
S2140821F00B46FB707B685B6903F00203002B01D17A
S214082200012303E0FA787B68DA61002318460C3766
S214082210BD4680BC704700BF80B483B000AF78600E
S21408222039607B685B6903F00103002B01D1012349
S21408223005E07B689B69DAB23B681A70002318468B
S2140822400C37BD4680BC704780B489B000AFF860D4
S214082250B9607A60BB681A017B689A4202D8102374
S214082260FB6101E00823FB617B68DA00FB69B9685B
S21408227001FB03F35B081A44FB69B96801FB03F327
S214082280B2FBF3F3BB61BB69DB087B61BB6903F098
S21408229007033B617B69002B03D07B69B3F5803F5E
S2140822A001D301230FE0FB69082B05D1FB685B68A7
S2140822B043F40022FB685A603B691A047B691A4398
S2140822C0FB681A62002318462437BD4680BC704750
S2140822D080B582B000AF786078680D4B98477B6809
S2140822E000225A607B6800225A627B6800229A6243
S2140822F07868084B98477868074B98477868074B7C
S21408230098477868064B984700BF0837BD4680BD93
S214082310A5240800C1230800F123080009240800A2
S2140823202524080080B584B000AFF860B9607A60EC
S214082330F8681A4B98471A4B00221A60BB68002B9D
S21408234009D0BB681B687A681946F868154B984721
S2140823500346002B01D001231BE0BB685A68BB6804
S2140823609B681A43BB681B691A43BB68DB681A4339
S2140823700B4B1B6813430A4A1360094B1B68084A31
S2140823801360FB685A68064B1B681A43FB685A605A
S214082390002318461037BD4680BD00BFD12208006E
S2140823A07C0907204922080080B483B000AF786013
S2140823B07B6840221A6000BF0C37BD4680BC704759
S2140823C080B483B000AF78607B6888221A6000BF4C
S2140823D00C37BD4680BC704780B483B000AF7860C9
S2140823E07B6810221A6000BF0C37BD4680BC704759
S2140823F080B483B000AF78607B6824221A6000BF80
S2140824000C37BD4680BC704780B483B000AF786098
S2140824107B684FF480721A6000BF0C37BD4680BCDC
S214082420704700BF80B483B000AF78607B684FF415
S21408243000221A6000BF0C37BD4680BC704700BF3C
S21408244080B483B000AF786039607B685B6903F05E
S2140824500203002B01D1012305E03B68C3F3080201
S2140824607B68DA61002318460C37BD4680BC704787
S21408247080B483B000AF786039607B685B6903F02E
S2140824800103002B01D1012306E07B689B69C3F397
S21408249008023B681A60002318460C37BD4680BC05
S2140824A0704700BF80B483B000AF78607B68044A8A
S2140824B0C3F8E42000BF0C37BD4680BC704700BF99
S2140824C00041535580B483B000AF0346FB710849FA
S2140824D097F907305B09FA7902F01F02012000FA23
S2140824E002F241F8232000BF0C37BD4680BC704777
S2140824F000E100E080B483B000AF0346FB710949F1
S21408250097F907305B09FA7902F01F02012000FAF2
S21408251002F2203341F8232000BF0C37BD4680BCAA
S214082520704700BF00E100E080B483B000AF034608
S214082530FB71094997F907305B09FA7902F01F021F
S214082540012000FA02F2603341F8232000BF0C375E
S214082550BD4680BC704700BF00E100E080B483B091
S21408256000AF03463960FB7197F90730002B0BDA8A
S2140825700D49FB7903F00F03043B3A68D2B2120107
S214082580D2B20B441A7609E0084997F907303A6838
S214082590D2B21201D2B20B4483F8002300BF0C3724
S2140825A0BD4680BC704700BF00ED00E000E100E0DB
S2140825B080B483B000AF78607B68072B25D801A26B
S2140825C052F823F0E5250800EB250800F125080059
S2140825D0F7250800FB250800FF2508000326080045
S2140825E0072608004FF4FA4310E04FF400430DE0C6
S2140825F04FF400430AE0084B08E0084B06E0084B97
S21408260004E0074B02E0064B00E0002318460C37B0
S214082610BD4680BC704700BF00093D0000127A0026
S214082620001BB70080B500AF0620044B984702464B
S2140826301346DB009B1A5B00184680BDB1250800D0
S21408264080B500AF024B984703465B08184680BD26
S2140826502526080080B582B000AF78607868034BFE
S214082660984700BF0837BD4680BD00BFE93E080052
S21408267080B58CB000AF78603960404B9847034609
S2140826803B623B681B687B623B689B68BB623B6837
S2140826901B68BB603B685B68FB603B689B683B618C
S2140826A03B681B7B7B610023BB617B68344A934293
S2140826B008D10820334B984707F120031946786855
S2140826C0314B98477B68314A934211D111202D4BE4
S2140826D098472A4B9847024607F108031946786830
S2140826E02B4B984778682B4B984778682A4B98471F
S2140826F07B682A4A934211D11220224B98471F4BD7
S2140827009847024607F1080319467868204B984709
S2140827107868204B984778681F4B98477B68204A0C
S214082720934211D11320174B9847144B98470246EB
S21408273007F1080319467868154B98477868154BCB
S21408274098477868144B98477B68164A934211D185
S21408275014200C4B9847094B9847024607F1080384
S214082760194678680A4B984778680A4B98477868F5
S214082770094B984700BF3037BD4680BD4126080044
S21408278000080E40552608006D2108000080094004
S21408279025230800A9230800D923080000C00940FB
S2140827A000000A4000400A4080B582B000AF78605A
S2140827B00B46FB707B68274A93420AD100BFFB781A
S2140827C019467868244B98470346002BF7D101230F
S2140827D03CE07B68214A93420AD100BFFB78194641
S2140827E078681F4B98470346002BF7D101232DE046
S2140827F07B681C4A93420AD100BFFB781946786862
S214082800174B98470346002BF7D101231EE07B6839
S214082810154A93420AD100BFFB7819467868104BD0
S21408282098470346002BF7D101230FE07B680F4A31
S21408283093420AD100BFFB7819467868084B984738
S2140828400346002BF7D1012300E00023184608377B
S214082850BD4680BD00080E40E921080000800940FA
S2140828604124080000C0094000000A4000400A4011
S21408287080B584B000AF786039600023FB607B6861
S2140828802B4A934207D100BF39687868294B984786
S2140828900346002BF8D17B68274A93420DD100BF28
S2140828A007F10C0319467868244B98470346002B13
S2140828B0F6D1FB68DAB23B681A707B68204A934206
S2140828C00DD100BF07F10C03194678681B4B9847D3
S2140828D00346002BF6D1FB68DAB23B681A707B68B1
S2140828E0184A93420DD100BF07F10C0319467868C1
S2140828F0124B98470346002BF6D1FB68DAB23B68C2
S2140829001A707B68104A93420DD100BF07F10C037A
S21408291019467868094B98470346002BF6D1FB689A
S214082920DAB23B681A7000BF1037BD4680BD00BFDC
S21408293000080E401922080000800940712408008B
S21408294000C0094000000A4000400A4080B582B036
S21408295000AF786039600F4A7B6813600E4B0F4AE9
S2140829601A600F4B0F4A1A60396878680E4B9847FA
S2140829700E4B1B689B68002118460D4B98470B4B5F
S2140829801B685B6800211846094B984700BF083744
S214082990BD4680BDA40E0720A00E0720A927080064
S2140829A09C0E07207128080071260800D804072006
S2140829B0F547080080B584B000AF3B4600221A6091
S2140829C05A609A60DA604FF4E1333B604FF4006374
S2140829D0BB600820054B98473B4619460448054BFC
S2140829E0984700BF1037BD4680BD00BF5526080073
S2140829F000080E404D29080090B587B000AFA54BDB
S214082A009847A54B9847A54B9847A54B9847A54880
S214082A10A54B9847A548A44B9847A54BA54AC3F885
S214082A20E420A34B4FF440725A66A14B4FF4C022E1
S214082A305A609F4B4FF410221A670E209E4B9847F9
S214082A400D209D4B984724209B4B98479B4B994AB3
S214082A50C3F8E420994B40F2CF221A60974B40F215
S214082A604F221A61954B80225A61944B40F24F22AE
S214082A705A63924B40F24F225A66914B8D4AC3F8DE
S214082A80E4208F4B4FF4FF221A608D4B8D4A1A6153
S214082A908B4B4FF4FE225A63894B8B4A5A66844BFB
S214082AA04FF440725A66824B4FF4C0225A66874BE0
S214082AB0874AC3F8E420854B864AC3F88022834BAE
S214082AC040F64122C3F88C22804A834B1B68C2F822
S214082AD084327A4B774AC3F8E420784B40F24F2288
S214082AE01A60764B40F24F221A61744B0F225A66D0
S214082AF0724B4FF400721A636D4BDB6B9B0B03F043
S214082B000103764A1360754B1B68754A13601820D4
S214082B10744B98471820744B984700211820734B1D
S214082B2098471820724B9847724B3B6141F6A213A0
S214082B30FB603B691B2200216F48704CA0470023AE
S214082B40BB60FB681D2202216B486D4CA0470B2119
S214082B504FF0C0506B4B98470D214FF00060694B03
S214082B6098470B214FF00060664B984789E1664B03
S214082B701A78664B1A70654B1B78272B05D1644864
S214082B80644B9847614B00221A70604B1B78292BC0
S214082B9016D10B214FF0C0505F4B984700237B613E
S214082BA002E07B6901337B617B695C4A9342F8DD0E
S214082BB00B214FF0C050534B9847544B00221A70C5
S214082BC0574B1B78262B00F2518101A252F823F0AE
S214082BD06D2C0800312D0800252E08006D2E0800E3
S214082BE06D2E08006D2E08006D2E08006D2E08004C
S214082BF06D2E08006D2E08006D2E08006D2E08003C
S214082C006D2E08006D2E08006D2E08006D2E08002B
S214082C106D2E08006D2E08006D2E08006D2E08001B
S214082C206D2E08006D2E08006D2E08006D2E08000B
S214082C306D2E08006D2E08006D2E08006D2E0800FB
S214082C406D2E08006D2E08006D2E08006D2E0800EB
S214082C506D2E08006D2E08006D2E08006D2E0800DB
S214082C606D2E08006D2E0800FD2D08002D4B1B78D4
S214082C70DBB2202B07D12B4B00221A702A4B984721
S214082C80274B01221A70214B00221A70274B00226C
S214082C901A60ECE02D360800D53608004D1F0800EF
S214082CA0B52908008C760800314708009876080091
S214082CB0000E0E40004F4950E93E080000140E4032
S214082CC000120E4000F8074000F007400040094098
S214082CD0004D5750050607000800072090090720F2
S214082CE094090720F5240800292508005D25080012
S214082CF0C5240800BA22640000000840F91B080032
S214082D00D91C08004D110800380907208C0907202F
S214082D10B00E0720851E0800D11108007F9698007F
S214082D20800907203C090720A13008003109072040
S214082D309B4B1B78DBB2202B1BD1994B00221A70B9
S214082D40984B9847984B1B78DBB2012B0ED1974BC4
S214082D5001221A70964B01221A70964B01221A709D
S214082D60954B01221A70954B02221A70944B012239
S214082D701A70944B1B78DBB2212B19D1914B002289
S214082D801A70914B9847914B00221A60874B002285
S214082D901A70874B00221A70864B00221A70864BD0
S214082DA000221A70854B00221A70854B01221A7071
S214082DB0874B1B78DBB2232B13D1854B00221A7066
S214082DC0844B1B681846844B98477D4B01221A7023
S214082DD0764B01221A70744B01221A707F4B002220
S214082DE01A607F4B1B78DBB2252B07D17C4B002261
S214082DF01A707C4B1B680A337A4A13607A4B1B7826
S214082E00DBB2262B07D1784B00221A70754B1B684D
S214082E100A3B744A1360754B00221A70744B0022E2
S214082E201A6024E0714B1B78282B00D01DE0714BEC
S214082E309847714B9B78002B0BD1614B01221A7077
S214082E4007206E4B984708206C4B98476C4B984762
S214082E500AE007206B4B984708206A4B98476A4B4E
S214082E609847574B02221A7000BF00E000BF5F4B1E
S214082E7000221A70654B1B78DBB2013BDAB2634B53
S214082E801A70624B1B78DBB2002B7FF470AE604B77
S214082E901968604BA3FB01239A0813469B0013444A
S214082EA0CA1A002A01D1534B9847404B1B78DBB20D
S214082EB0012B7FF45BAE3F4B1B78012B7FF456AE9D
S214082EC03D4B1B78DBB2012B7FF450AE3B4B1B7897
S214082ED0DBB2022B02D1364B01221A70344B1B7818
S214082EE0DBB2012B40F0CD804B4B1B881A463D4B7E
S214082EF01B689A4240F2B480474B1B881A46394BE7
S214082F001B6864339A420AD9444B1B683C3B434AC5
S214082F101360434A414B1B68C2F88832B1E03E4B07
S214082F201B881A462F4B1B6850339A420AD93B4BCC
S214082F301B68323B394A1360394A384B1B68C2F85B
S214082F4088329EE0344B1B881A46264B1B6814337F
S214082F509A4212D3304B1B881A46224B1B685033B2
S214082F609A420AD82D4B1B68283B2C4A13602C4AD9
S214082F702A4B1B68C2F8883283E0274B1B881A4600
S214082F80184B1B680A339A424CD9244B1B68143BCF
S214082F90224A1360224A214B1B68C2F8883270E026
S214082FA03C090720A1300800840907208309072068
S214082FB08209072058090720810907206009072089
S214082FC0800907203D090720CD3008005C09072046
S214082FD03E0907207C0A0720F1300800340907203C
S214082FE03F09072088090720400907208C09072081
S214082FF0310907207D320800C80E0720AD1D0800DD
S214083000113308008D1D0800F1320800780A0720E1
S21408301054090720CDCCCCCC64090720080007202B
S21408302000400940194B1B881A46194B1B68053384
S2140830309A420AD9174B1B680A3B164A1360164A67
S214083040144B1B68C2F888321BE0124B1B68023B05
S214083050104A1360104A0F4B1B68C2F8883210E0FB
S2140830600A4B1B881A460A4B1B689A4209D2094B18
S2140830701B680133074A1360074A064B1B68C2F8E9
S2140830808832064B00221A7070E500BF64090720D4
S214083090880907200800072000400940580907202B
S2140830A080B500AF074B08221A63064B40225A63C6
S2140830B0044B4FF400725A630120034B984700BF35
S2140830C080BD00BF00140E404D1D080080B500AF3F
S2140830D00120054B9847054B0F225A63034B4FF4C4
S2140830E000721A6300BF80BD6D1D080000140E40F4
S2140830F090B585B000AF78600023FB6096E0564A2E
S214083100FB6832F833309BB21A467B689A4213D172
S2140831105248534B9847504AFB68DB0013445B8879
S2140831209BB21A464F4B1A604B4AFB68DB001344A7
S2140831305B684D4A13607DE0474AFB6832F83330D7
S2140831409BB21A467B689A426DD2FB680133424AA4
S21408315032F833309BB21A467B689A4263D94348A2
S2140831603F4B98473C4AFB68DB0013445B889BB29E
S2140831701846FB680133384ADB0013445B889BB269
S2140831801946354AFB68DB0013445B889BB2CA1AAB
S214083190FB680133304931F833309BB21C462E4960
S2140831A0FB6831F833309BB2E31A92FBF3F3194607
S2140831B0294AFB6832F833309BB21A467B689B1A5A
S2140831C003FB01F30344274A1360234AFB6832F8DB
S2140831D033309BB21A467B689A1AFB6801331E493D
S2140831E0DB000B4459681C48FB68DB0003445B683B
S2140831F0CB1A03FB02F3FA680132174931F832207A
S21408320092B210461449FA6831F8322092B2821AFD
S214083210B3FBF2F21049FB68DB000B445B6813440F
S214083220114A136006E0FB680133FB60FB68132B4A
S2140832307FF765AF0B4B1B6819460D48084B984738
S2140832400C4A084B1B68C2F888320B4B01221A70CE
S21408325000BF1437BD4690BD0C000720A4760800B2
S214083260314708000800072088090720B4760800B8
S214083270C4760800004009408109072080B500AFE1
S2140832801848194B9847174B9B88DAB2174B1A7091
S214083290144BDB88DAB2154B5A70124B1B89DAB21C
S2140832A0124B9A700F4B5B89DAB2104BDA700D4BE3
S2140832B09B89DAB20D4B1A710A4BDB89DAB20B4BD3
S2140832C05A71084B1B8ADAB2084B9A71054B1B8851
S2140832D01A46064B5A61034B5B881A46034B9A619B
S2140832E000BF80BDB00E0720CD1D0800C80E072001
S2140832F080B500AF0520044B9847044B9847062036
S214083300014B984700BF80BD8D1D0800CD300800D2
S21408331080B500AF0520044B9847044B9847062015
S214083320014B984700BF80BDAD1D0800A1300800BE
S21408333080B582B000AF78607B68072B31D801A2D1
S21408334052F823F0A1330800653308006D330800EF
S214083350753308007D330800853308008D33080070
S214083360973308000020114B98471AE001200F4BAE
S214083370984716E000200E4B984712E010200C4B9A
S21408338098470EE020200A4B98470AE03E21002086
S214083390084B984705E03E210120064B984700E079
S2140833A000BF00BF0837BD4680BD00BF053D08000A
S2140833B0713D0800113E080080B582B000AF786005
S2140833C07B68072B26D801A252F823F0ED330800B5
S2140833D0F1330800F133080003340800033408000A
S2140833E0033408000334080003340800012312E0FD
S2140833F00B4B98470346002B14BF01230023DBB270
S21408340009E0084B98470346002B14BF0123002306
S214083410DBB200E0002318460837BD4680BD00BF73
S2140834203D3D0800893E080080B483B000AF786050
S2140834307B68072B25D801A252F823F05D340800D4
S21408344063340800693408006F34080073340800D1
S214083450773408007B3408007F3408004FF4FA43BA
S21408346010E04FF400430DE04FF400430AE0084B29
S21408347008E0084B06E0084B04E0074B02E0064B62
S21408348000E0002318460C37BD4680BC704700BFD6
S21408349000093D0000127A00001BB70080B582B014
S2140834A000AF0346FB7100BFFB791846054B9847EB
S2140834B0034683F00103DBB2002BF5D100BF0837C3
S2140834C0BD4680BDB933080080B586B000AFF86049
S2140834D07A603B600B46FB727B68002B07D13B6823
S2140834E0002B04D1FB684FF470021A6019E0FB7ACF
S2140834F018460E4B984702467B68B2FBF3F37B618F
S2140835007B693A6802FB03F37B613B68013B1A045C
S214083510074B13407A68D2B2134343F47C52FB68D5
S2140835201A6000BF1837BD4680BD00BF29340800A2
S2140835300000FF0780B582B000AF786039603B684E
S214083540002B08D1094B9847094A7B681B6843F04B
S2140835500053936205E0064A7B681B6843F4803391
S214083560D36100BF0837BD4680BD00BFA13E080036
S21408357000060E4080B582B000AF78607B68002BEE
S21408358003D1054B9847034602E0044B9847034689
S21408359018460837BD4680BDB93E0800D13E08002B
S2140835A080B582B000AF0346FB71FB79033B042B62
S2140835B008D8FB791846064B9847FB791846054BFA
S2140835C0984700E000BF00BF0837BD4680BD00BF73
S2140835D0313308009D34080080B582B000AF7860AB
S2140835E000BF7868044B98470346002BF9D00023A1
S2140835F018460837BD4680BD7535080080B500AF4B
S2140836000620044B984702461346DB009B1A5B00CD
S214083610184680BD2934080080B500AF024B98478D
S21408362003465B08184680BDFD35080090B583B094
S21408363000AF104B9847034618460F4B984706208E
S2140836400E4B9847381D0E23012206210C4CA04726
S2140836503B1D002118460B4B984700200A4B9847FD
S21408366010200A4B98470A4B984700BF0C37BD46B0
S21408367090BD00BF19360800D5410800A1350800DE
S214083680C934080035350800D9350800853C0800D7
S2140836905140080080B582B000AF78607868034B68
S2140836A0984700BF0837BD4680BD00BFE93E080002
S2140836B080B500AF0B20064B98470C20044B984764
S2140836C00D20034B98470E20014B984700BF80BD3E
S2140836D09536080080B500AF214B4FF400425A607B
S2140836E0204B98474FF060513B201F4B98474FF0B0
S2140836F0605155201C4B98474FF0605156201A4B86
S21408370098471A496820184B984719495C20164B61
S21408371098474FF000624FF440711648164B98478A
S2140837204FF000611920104B98474FF000611A209F
S2140837300D4B98474FF000611B200B4B98474FF0F6
S21408374000611C20084B98474FF000612B20064B61
S21408375098474FF000612A20034B984700BF80BD6A
S214083760501A0E40B136080059390800790000286A
S21408377001000028000E0E40953A080080B485B077
S21408378000AFF860B9607A607B68002B03D0FB68EE
S214083790BA685A6602E0FB68BA681A6600BF143749
S2140837A0BD4680BC704700BF80B487B000AFF860E5
S2140837B0B9607A60FB687A685A64BB68B3F1805F60
S2140837C01FD0B3F1805F05D8002B27D0B3F1006F68
S2140837D00AD01FE0B3F1405F20D0B3F1605F1DD080
S2140837E0B3F1205F1AD015E0FB681B6F7B61FB689E
S2140837F01A6F7B68D9437B690B401A40FB681A67C7
S21408380008E0FB681B6F7B617A687B691A43FB6874
S2140838101A6700BFFB687A685A6000E000BF1C376A
S214083820BD4680BC704700BF80B584B000AFF86066
S214083830B9607A60B968F868194B98477B6803F0EE
S21408384001031A46B968F868164B98477B6803F070
S2140838500A03002B03D0FB68BA681A6202E0FB680A
S214083860BA685A627B6803F00203002B04D0FB6830
S214083870BA68C3F8802008E07B6803F00803002BCA
S21408388003D0FB68BA68C3F88020FB68BA685A6138
S214083890FB68BA681A6000BF1037BD4680BD00BF17
S2140838A00D3908007D37080080B584B000AFF86091
S2140838B0B9607A603B60B968F868124B9847BA698D
S2140838C0B968F868104B98473B68002B03D0FB682C
S2140838D0BA681A6502E0FB68BA685A657B68002B06
S2140838E003D0FB68BA681A6302E0FB68BA685A63D2
S2140838F0FB68BA681A61FB68BA681A6000BF1037B6
S214083900BD4680BD0D3908007D37080080B483B0F9
S21408391000AF786039607B683A685A6400BF0C3735
S214083920BD4680BC704700BF80B483B000AF7860E7
S2140839307B68DB6C18460C37BD4680BC704700BFFA
S21408394080B483B000AF78607B689B6C18460C37F1
S214083950BD4680BC704700BF90B587B002AF7860A0
S21408396039607B685B0903F5001303F207735B0293
S214083970FB603B6803F0F043B3F1205F46D0B3F139
S214083980205F06D8B3F1006F0AD0B3F1805F22D06B
S21408399070E0B3F1405F45D0B3F1605F42D069E0B4
S2140839A07B6803F01F03012202FA03F31A464FF05E
S2140839B00061F868334B98477B6803F01F030122C1
S2140839C002FA03F319463B6803F001031A46F8683F
S2140839D02D4B984750E07B6803F01F03012202FA3C
S2140839E003F31A464FF08051F868264B98477B68D1
S2140839F003F01F03012202FA03F319463B6803F09B
S214083A0001031A46F868204B984735E07B6803F0B0
S214083A101F03012202FA03F33A681946F8681B4B9B
S214083A20984729E07B6803F01F03012202FA03F394
S214083A3019463B6803F06053B3F1605F0CBF01237F
S214083A400023DBB21A463B6803F00403002B14BFBE
S214083A5001230023DBB218463B6803F00103002B62
S214083A6014BF01230023DBB200930346F868084C12
S214083A70A04701E0002300E0012318461437BD469E
S214083A8090BD00BFA93708007D3708002938080010
S214083A90A938080090B587B002AFF860B9607A60B8
S214083AA07B6803F0F043B3F1205F2ED0B3F1205FBC
S214083AB006D8B3F1006F0AD0B3F1805F16D04CE099
S214083AC0B3F1405F27D0B3F1605F24D045E0BA6811
S214083AD04FF00061F868244B98477B6803F00103B1
S214083AE01A46B968F868214B984738E0BA684FF024
S214083AF08051F8681C4B98477B6803F001031A4608
S214083B00B968F868194B984729E07A68B968F86878
S214083B10174B984723E07B6803F06053B3F1605F68
S214083B200CBF01230023DBB21A467B6803F00403AC
S214083B30002B14BF01230023DBB219467B6803F071
S214083B400103002B14BF01230023DBB200930B46AE
S214083B50B968F868074CA04701E0002300E0012395
S214083B6018461437BD4690BDA93708007D370800AB
S214083B7029380800A938080080B584B000AF7860F6
S214083B8039607868244B9847F8607868234B9847DC
S214083B900246FB681340FB60FB68002B37D0002307
S214083BA0BB6031E01E4ABB681B0113441A683B68B9
S214083BB09A4226D11A4ABB681B01134404331A6872
S214083BC0FB681340002B1CD0154ABB681B01134426
S214083BD00C331B681249BA6812010A441068104967
S214083BE0BA6812010A4404321268114698470C4A09
S214083BF0BB681B01134404331B68DB43FA68134095
S214083C00FB60BB680133BB60FB68002BCAD100BFF2
S214083C101037BD4680BD00BF293908004139080065
S214083C209809072080B500AF0B210248024B984739
S214083C3000BF80BD000E0E40793B080080B500AF7F
S214083C400C210248024B984700BF80BD00100E406A
S214083C50793B080080B500AF0D210248024B984713
S214083C6000BF80BD00120E40793B080080B500AF4B
S214083C700E210248024B984700BF80BD00140E4034
S214083C80793B080080B485B000AF78601C491C4BAF
S214083C901B6B23F070027B6813430B634FF40063BF
S214083CA0FB6007E0FB68002B01D1012323E0FB68DB
S214083CB0013BFB60124B9B6E03F00803002BF1D010
S214083CC00F4A0F4B1B6B23F0030343F002031363E7
S214083CD04FF40063FB6007E0FB68002B01D101236B
S214083CE009E0FB68013BFB60054B9B6E03F008038D
S214083CF0002BF1D0002318461437BD4680BC704709
S214083D0000060E4080B483B000AF78607B68012B55
S214083D1007D1084A074B9B6843F0254343F48013B2
S214083D209360044B044A1A6000BF0C37BD4680BC3B
S214083D30704700BF101A0E40080000A580B400AFF8
S214083D40094B5B6903F08003002B07D0074B9B6E7B
S214083D5003F08003002B01D0012300E0002318465F
S214083D60BD4680BC704700BF101A0E4000060E40C5
S214083D7080B485B000AF78600023FB60214B1B6AD7
S214083D8003F00103002B0ED01E491E4B1B6A23F4BA
S214083D905C1323F078037A68134343F45C1343F008
S214083DA008030B620BE00123FB601649154B1A6AE1
S214083DB0154B13407A681A43144B13430B6200BF23
S214083DC0104B9B6E03F40033002BF9D00D4A0D4BB5
S214083DD01B6A23F09B7323F4803343F45C1313624B
S214083DE0FB68002B09D0074A064B1B6A23F45C13B2
S214083DF023F0010343F45C13136200BF1437BD4677
S214083E0080BC704700060E408600C8FF09FF3700D2
S214083E1080B483B000AF786039607B68002B08D028
S214083E201649164B1B6A164A1A40164B13430B6262
S214083E301EE01249114B1B6A23F45C1323F003039C
S214083E403A68120292B2134343F45C1343F0010338
S214083E500B6200BF094B9B6E03F00103002BF9D0E1
S214083E60064A064B1B6A43F09B7343F4803313627F
S214083E7000BF0C37BD4680BC704700BF00060E402A
S214083E80FCFFC8FE0200370180B400AF034B9B6EF0
S214083E9003F480331846BD4680BC704700060E40C3
S214083EA080B400AF034B4FF000529A6200BFBD4685
S214083EB080BC704700060E4080B400AF034B9B6E74
S214083EC003F002031846BD4680BC704700060E4045
S214083ED080B400AF034B9B6E03F040031846BD4604
S214083EE080BC704700060E4080B483B000AF786090
S214083EF07B682C2B01D901232FE07B681F2B13D856
S214083F00184B9A6901217B6801FA03F31A400121CC
S214083F107B6801FA03F39A421ED0124A01217B6895
S214083F2001FA03F3136117E07B68203B7B600D4BB7
S214083F30D3F8082101217B6801FA03F31A4001210E
S214083F407B6801FA03F39A4206D0064A01217B6889
S214083F5001FA03F3C2F80031002318460C37BD46B1
S214083F6080BC704700060E4080B483B000AF78600F
S214083F707B68002B04D0074B074AC3F8E42003E00D
S214083F80044B064AC3F8E42000BF0C37BD4680BC85
S214083F90704700BF00060E4001434D5000434D5089
S214083FA080B400AFFEE700BF80B582B000AF1E4BFE
S214083FB07B601E4B3B607A683B689A420CD007E0F1
S214083FC03B681A1D3A607A68111D796012681A6093
S214083FD03B68174A9342F3D3164B3B6004E03B68B2
S214083FE01A1D3A6000221A603B68134A9342F6D3B9
S214083FF0124B7B60124A7B6823F0604323F07F03F2
S21408400093607B68B3F1005F09D37B680D4A9342DF
S21408401005D80B4A0A4B9B6843F0005393600A4B3B
S21408402098470A4B9847FEE7547708000000072091
S2140840301409072014090720F40E072000000800BA
S21408404000ED00E0FFFF0F20E1460800F929080010
S21408405080B400AF574B1B6B03F00303032B00F22F
S2140840608A8001A252F823F0794008009940080097
S214084070E9400800E94008004F4B5B6903F08003FD
S214084080002B04D04D4B4FF400421A6073E04B4BA4
S2140840904FF4FA421A606EE0464B1B6A03F08073D0
S2140840A0002B03D0454B464A1A6064E0434B454A0A
S2140840B01A60404B1B6A03F07003102B04D0202BA9
S2140840C008D0002B0ED00EE03C4B1B685B003B4A2A
S2140840D0136008E0394B1A6813465B001344374AE6
S2140840E0136000E000BF46E0324B1B6A03F08073A3
S2140840F0002B03D0314B324A1A601CE02F4B314A52
S2140841001A602C4B1B6A03F07003102B04D0202B6C
S21408411008D0002B0ED00EE0284B1B685B00274A01
S214084120136008E0254B1A6813465B001344234ABD
S214084130136000E000BF1F4B1B6B03F00303022B4A
S21408414015D11C4B9A6A204B13401B0C01331B4A93
S214084150126802FB03F3194A1360164B9B6ADBB21C
S214084160164A1268B2FBF3F3144A136002E0134BC4
S214084170164A1A6000BF0F4B1B6B03F07003702BB8
S21408418008D10E4B1B68124AA2FB03235B080B4A96
S21408419013600AE0074B1B6B03F070031B09074A02
S2140841A0126822FA03F3054A136000BFBD4680BCB6
S2140841B0704700BF00060E40101A0E40AC000720DD
S2140841C0001BB70000093D000000FF07001C4E0E4C
S2140841D0ABAAAAAA80B483B000AF78607B68254AE9
S2140841E0934206D8244B00221A60244B00221A60F9
S2140841F03BE07B68224A934208D81F4B4FF48072F4
S2140842001A601E4B4FF480721A602EE07B681D4AB7
S214084210934208D8184B4FF400721A60174B4FF4A5
S21408422000721A6021E07B68174A934208D8124B3E
S2140842304FF440721A60114B4FF440721A6014E043
S2140842407B68124A934208D80B4B4FF480621A6078
S2140842500A4B4FF480621A6007E0074B4FF4A062DF
S2140842601A60064B4FF4A0621A6000BF0C37BD46B2
S21408427080BC7047BFEA2101000A0E40000C0E40C1
S2140842807FF0FA02FF8FD003FFB3C4047F4A5D05B0
S21408429080B485B000AF78600A4B1B68002B02D14B
S2140842A0084B094A1A60074B1B68FB60054B1A68DF
S2140842B07B681344034A1360FB6818461437BD46E8
S2140842C080BC7047080A0720F82E072080B483B001
S2140842D000AF78604FF0FF3318460C37BD4680BCF9
S2140842E0704700BF80B483B000AF786039603B6821
S2140842F04FF400525A60002318460C37BD4680BC5F
S214084300704700BF80B483B000AF786001231846BA
S2140843100C37BD4680BC704780B485B000AFF860E7
S214084320B9607A60002318461437BD4680BC7047CB
S21408433081F0004102E000BF83F0004330B54FEA49
S21408434041044FEA430594EA050F08BF90EA020FB6
S2140843501FBF54EA000C55EA020C7FEA645C7FEA49
S214084360655C00F0E2804FEA5454D4EB5555B8BF6C
S2140843706D420CDD2C4480EA020281EA030382EADD
S214084380000083EA010180EA020281EA0303362D6F
S21408439088BF30BD11F0004F4FEA01314FF4801C42
S2140843A04CEA113102D0404261EB410113F0004F54
S2140843B04FEA03334CEA133302D0524263EB43030B
S2140843C094EA050F00F0A780A4F10104D5F1200EA9
S2140843D00DDB02FA0EFC22FA05F2801841F1000104
S2140843E003FA0EF2801843FA05F359410EE0A5F1D8
S2140843F020050EF1200E012A03FA0EFC28BF4CF009
S214084400020C43FA05F3C01851EBE37101F00045BE
S21408441007D54FF0000EDCF1000C7EEB00006EEBCB
S2140844200101B1F5801F1BD3B1F5001F0CD3490855
S2140844305FEA30004FEA3C0C04F101044FEA4452AC
S21408444012F5800F80F09A80BCF1004F08BF5FEA33
S214084450500C50F1000041EB045141EA050130BD13
S2140844605FEA4C0C404141EB010111F4801FA4F1B6
S2140844700104E9D191F0000F04BF01460020B1FA0B
S21408448081F308BF2033A3F10B03B3F120020CDA43
S2140844900C3208DD02F1140CC2F10C0201FA0CF021
S2140844A021FA02F10CE002F11402D8BFC2F1200C86
S2140844B001FA02F120FA0CFCDCBF41EA0C0190403C
S2140844C0E41AA2BF01EB0451294330BD6FEA040485
S2140844D01F3C1CDA0C340EDC04F11404C4F1200270
S2140844E020FA04F001FA02F340EA030021FA04F382
S2140844F045EA030130BDC4F10C04C4F1200220FAD9
S21408450002F001FA04F340EA0300294630BD21FA16
S21408451004F0294630BD94F0000F83F4801306BFDC
S21408452081F480110134013D4EE77FEA645C18BFD0
S2140845307FEA655C29D094EA050F08BF90EA020F67
S21408454005D054EA000C04BF1946104630BD91EA5F
S214084550030F1EBF0021002030BD5FEA545C05D162
S2140845604000494128BF41F0004130BD14F58004A1
S2140845703CBF01F5801130BD01F0004545F0FE4115
S21408458041F470014FF0000030BD7FEA645C1ABF4A
S214084590194610467FEA655C1CBF0B46024650EA81
S2140845A0013406BF52EA033591EA030F41F40021AD
S2140845B030BD00BF90F0000F04BF0021704730B533
S2140845C04FF4806404F132044FF000054FF0000108
S2140845D050E700BF90F0000F04BF0021704730B5C9
S2140845E04FF4806404F1320410F0004548BF40429E
S2140845F04FF000013EE700BF42004FEAE2014FEAF3
S21408460031014FEA02701FBF12F07F4393F07F4FCD
S21408461081F06051704792F0000F14BF93F07F4FFF
S214084620704730B54FF4607401F0004521F0004142
S21408463020E700BF50EA010208BF704730B54FF0C8
S21408464000050AE050EA010208BF704730B511F0CD
S214084650004502D5404261EB41014FF4806404F105
S21408466032045FEA915C3FF4DCAE4FF003025FEA87
S214084670DC0C18BF03325FEADC0C18BF033202EB0F
S214084680DC02C2F1200300FA03FC20FA02F001FA69
S21408469003FE40EA0E0021FA02F11444C1E600BF08
S2140846A04A0011D212F5001211D20DD56FF47873A4
S2140846B0B3EB62520ED44FEAC12343F0004343EAF9
S2140846C0505323FA02F070474FF00000704750EA44
S2140846D0013002D14FF0FF3070474FF000007047AE
S2140846E070B50F4E0F4D761BB61018BF002405D0B8
S2140846F0013455F8043B9847A642F9D10A4E0B4DAB
S21408470003F012F8761BB61018BF002406D0013442
S21408471055F8043B9847A642F9D170BD70BD00BF56
S21408472034770800347708003C77080034770800A8
S2140847300FB410B5074B82B004AC54F8042B1868B5
S21408474023468168019400F06FF902B0BDE8104076
S21408475004B07047D804072070B4840746D0541EA7
S214084760002A41D0CDB2034602E0621EE4B31446E6
S21408477003F8015B9A07F8D1032C2ED9CDB245EA87
S21408478005250F2C45EA054519D9264603F11002DA
S214084790103E0F2E42F8105C42F80C5C42F8085C9B
S2140847A042F8045C02F11002F2D8A4F1100222F0DA
S2140847B00F0204F00F041032032C13440DD91E46C2
S2140847C02246043A032A46F8045BFAD8221F22F047
S2140847D003020432134404F003042CB1C9B21C4487
S2140847E003F8011BA342FBD170BC7047144603466E
S2140847F0C2E700BF00290CBF022200224FF48063E4
S21408480000F000B82DE9F043514D83B02D680446FA
S2140848100F4690461E4615B1AB6B002B79D0B8F103
S214084820020F04D0B8F1010F7FD8002E7DDB214699
S214084830284601F03BF9216B41B104F14003994247
S21408484002D0284601F08EFA00232363B4F90C3010
S2140848500022A26162601A0654D423F44A6323F045
S2140848600303B8F1020FA38139D001AB6A4621468B
S214084870284601F015FDA3891843A08126B327B35F
S214084880AB6B002B4DD0009BB4F90C009E421CBFAE
S21408489040F40060A081B8F1010F08BF40F00100A5
S2140848A083B208BFA08103F0080080B227602761A2
S2140848B0666118B313F001002FD000207642A66177
S2140848C0A06003B0BDE8F083009E304601F05CFDB2
S2140848D0074668B3A38943F08003A381D0E7002086
S2140848E004F1430243F0020300250121A381A560D9
S2140848F022602261616103B0BDE8F083A06003B066
S214084900BDE8F0832169284601F02CFAB4F90C308A
S214084910A3E7284601F05EF981E7A66003B0BDE884
S214084920F083284601F056F9ADE74FF0FF30E2E78E
S214084930DDF80090B14506D0484601F025FD07464B
S21408494008B14E46C6E7B4F90C304FF0FF30C7E75B
S214084950D804072020F0030110F00300C0F100007F
S21408496051F8043B00F1040C4FEACC0C6FF000023F
S2140849701CBF22FA0CF213434FF0010C4CEA0C2C25
S2140849804CEA0C4CA3EB0C0222EA030212EACC1205
S21408499004BF51F8043B0430F4D0C2F1000102EA27
S2140849A00102B2FA82F2C2F11F0200EBD20070478F
S2140849B04B6E2DE9F0479C0492462CD593681268F6
S2140849C03BB30F46804602F1080919E96000B608AD
S2140849D017D0043D002401E0A64210D03A4655F808
S2140849E0041F404601F05EF9431C04F10104F3D1AC
S2140849F00023CAF80830CAF80430BDE8F087DAF8A9
S214084A000830A3EB8603CAF8083009F10809002B1A
S214084A10DBD10020ECE701F08DFA0023CAF8083055
S214084A20CAF80430BDE8F0872DE9F04FABB01C4655
S214084A30009190460493059018B1836B002B00F004
S214084A40DE800098B0F90C108AB2950407D4436E3D
S214084A5041F4005223F400538281436692B2110750
S214084A6040F1B180009B1B69002B00F0AC8002F07F
S214084A701A020A2A00F0B5800DF1680AD346002308
S214084A8002930F930E93CDF834A098F8003044465E
S214084A90FBB1252B02D11CE0252B03D014F8013FCF
S214084AA0002BF9D1C8EB04059DB10E9B0F9A013374
S214084AB02A44072BCBF80080CBF804500F920E93AD
S214084AC07BDD002A40F01F85D346029B0E922B44BE
S214084AD002932378002B00F03B844FF0000300215C
S214084AE08DF82F3004F10108637808460E460C4608
S214084AF04FF0FF32019208F10108A3F12002582A6C
S214084B0000F28B83DFE812F03D038903890345032F
S214084B108903890389038903890389037E006B0255
S214084B208903860070028903CC015D025D025D027E
S214084B305D025D025D025D025D025D028903890316
S214084B4089038903890389038903890389038903F8
S214084B50D1018903890389038903890389038903A2
S214084B608903890389031A02890389038903890348
S214084B708903E502890389030803890389038903EE
S214084B8089038903890389038903890389032B0316
S214084B9082038903890389035E03820389038903E1
S214084BA06303890370038D028B00E0028903930276
S214084BB08903B202890389034A030BF1080B029B97
S214084BC02B44029385E70099059800F057FE0028C5
S214084BD040F04585009B9A8902F01A020A2A7FF45B
S214084BE04BAF0099B1F90E30002BFFF645AF2346C0
S214084BF04246059800F00CFE2BB0BDE8F08F00F09A
S214084C00E9FF1EE7049A134614680433002C04933D
S214084C1002DA644246F0040698F800306BE74FF074
S214084C20000304988DF82F30034630218DF8301095
S214084C3001997822002906948DF83120046803F13A
S214084C4004034FF0000546F00202C0F20C8526F079
S214084C50800654EA050246F00206049340F0B5843E
S214084C60B348019B002B40F06284994657460023C0
S214084C7001930393019B039A9342B8BF13461D46BC
S214084C80B9F1000F00D0013516F00203079318BFDC
S214084C90023516F08403089340F0E882069B5C1BF6
S214084CA0002C40F3E382102C40F33C85DFF8849216
S214084CB0DDF838E0DC460F9AC3461023A84670464F
S214084CC04D46DDF8149007E000F1020E08460CF198
S214084CD0080C103C102C13DD411C103207290F92CB
S214084CE0CCF80050CCF804300E91EDDD002A40F0E8
S214084CF0A582103C102C10464FF0010ED446EBDC73
S214084D00A94670464546D846E346224407280F92E9
S214084D10CBF80090CBF804400E9000F36D839DF816
S214084D202F300BF1080B00F1010E002B40F0A78284
S214084D30079B002B00F0BA8202320CA90223BEF1B0
S214084D40070F0F92CDF838E08BE80A0040F370831F
S214084D50002A40F00084089B4FF0010E802B104676
S214084D60D34640F0A782069B5C1B002C40F3A28229
S214084D70102C40F3F884DFF8C091DE461023C346B3
S214084D80A8464D46DDF8149007E000F1020C0846E8
S214084D900EF1080E103C102C13DD411C10320729AA
S214084DA00F92CEF80050CEF804300E91EDDD002AB2
S214084DB040F00C83103C102C4FF0010C1046D646E1
S214084DC0EBDCA9464546D846F3462244BCF1070F15
S214084DD00F92CBF80090CBF80440CDF838C000F31B
S214084DE0C883019B03990BF1080B5C1A002C0CF185
S214084DF0010E604600F364820399BEF1070F0A4469
S214084E000F92CBF80070CBF80410CDF838E040F3DA
S214084E10C582002A40F0328370070E9238D5069B6A
S214084E205C1B002C34DDD346102C40F39684DFF848
S214084E3004910E994F461026DDF8149006E0881C5B
S214084E4019460BF1080B103C102C13DD4B1C1032C6
S214084E50072B0F92CBF80070CBF804600E93EEDDAC
S214084E60002A40F08582103C102C4FF001001146B5
S214084E70D346EBDCB946224407280F92CBF80090BD
S214084E80CBF804400E9040F39282002A40F00C843F
S214084E90029B069AAA42ACBF9B185B19029390E243
S214084EA046F0800698F8003025E60694002940F07B
S214084EB0858446F01006B30640F10483049907314A
S214084EC021F00701D1E9002314461D460831049154
S214084ED0002A73F10003C0F27C83019B9DF82F9093
S214084EE0002BC0F20B8354EA050326F0800600F078
S214084EF0DE80002D08BF0A2CC0F0DE80574620460C
S214084F0029460A22002302F0F3F9303207F8012D69
S214084F102046294600230A2202F0EAF904460D46EE
S214084F2054EA0503EBD1C7EB0A030393A2E600BFD6
S214084F30FC76080018770800D8760800069400293A
S214084F4040F0388446F0100616F0200300F0A182E0
S214084F504FF00002049B8DF82F20073323F0070339
S214084F6003F10802D3E90045019B0492002B0ADBF3
S214084F7054EA050326F0800605D1019B002B00F0B5
S214084F802784002400254FF000095746E20842EA25
S214084F904572E90804F007030D461446303354EA10
S214084FA0050207F8013DF1D1F407BCD5302BBAD07D
S214084FB030227B1E07F8012CC3EB0A0203921F4619
S214084FC058E6A3F13002002418F8013B04EB8404E9
S214084FD002EB4404A3F13002092AF5D98DE598F8C6
S214084FE0003001212B2086E598F8003008F10105ED
S214084FF02A2B00F0CC83A3F13002092AA84698BFD2
S214085000002500F2B58318F8013B05EB850502EB91
S2140850104505A3F13002092AF5D945EAE572019259
S2140850206BE5069400298FD08DF82F008CE74FF09B
S2140850300003049A069417688DF82F30141D019BF8
S214085040002F00F07F83002BC0F253831A460021FE
S214085050384601F04DFC002800F08E83C31B0393EE
S214085060002304949DF82F90019303E606940029E4
S21408507040F09D8316F0200934D116F0100303D1B2
S21408508016F0400940F01F83049A0025134614685A
S214085090019A8DF82F90002A03F10403C0F22783A3
S2140850A054EA050226F0800604937FF422AF019B9B
S2140850B0002B3FF4DBAD00242AAF303407F8414D0F
S2140850C0C7EB0A030393D5E546F0200698F80030A8
S2140850D011E50694002940F0758346F0100616F090
S2140850E02009CAD04FF00002049B8DF82F20073302
S2140850F023F0070303F10802D3E90045019B049255
S214085100002BC0F2F98154EA050326F080064FF01A
S21408511000097FF4EEAECAE70694002940F05583EE
S214085120B206B24841D5049A073222F0070202F1C5
S21408513008010491D2E9004516F0010900F07E81C5
S21408514054EA050240F02B824FF000038DF82F300A
S214085150019B002BC0F2F38226F0800681E5049AB4
S2140851604FF00001136801258DF8403013460433CC
S21408517006948DF82F100493039510AF002301931F
S21408518082E598F8003000287FF4B5AC012120208D
S214085190B1E446F0010698F80030ACE4069400291D
S2140851A040F02A83B2069248BDD40499F7060A4608
S2140851B000F19D81750640F19A8104320C880492AC
S2140851C00025B9E746F0400698F8003093E498F8CA
S2140851D000306C2B03BF98F8013046F0200608F123
S2140851E0010846F0100686E4002940F00283B4065B
S2140851F040F12082049A134604330493029B1168F4
S214085200DD171A462B46C1E900233EE4069400291A
S2140852103FF451AE8DF82F004DE60694002940F075
S214085220E582002B00F094808DF840304FF00003A4
S21408523001258DF82F30039510AF9FE70DAA00992A
S21408524048460993FFF7B4FB002840F088800E987C
S214085250D4460F9A00F1010E099B3AE50DAA00996B
S2140852600598FFF7A5FB002879D1D3460E989DF838
S2140852702F300F9A00F1010E002B3FF459AD013282
S2140852800DF12F010123BEF1070F0F92CDF838E07C
S2140852908BE80A0040F3C080002A40F04D81079949
S2140852A0002940F0BF809E461046D346089B802BB8
S2140852B03FF459AD019B03995C1A002C7FF79CAD0F
S2140852C0102CDFF8309125DDDC461023C346A846AF
S2140852D04D46DDF8149007E000F1020E08460CF182
S2140852E0080C103C102C11DD411C103207290F92B7
S2140852F0CCF80050CCF804300E91EDDDD2B9103C55
S214085300102C4FF0010E1046D446EDDCA946454653
S214085310D846E3462244BEF1070F0F92CBF800901A
S214085320CBF80440CDF838E02EDC0BF1080B0EF174
S214085330010E61E50DAA009948460193FFF738FB70
S21408534068B90E98D4460F9A00F1010E019BC8E77B
S2140853500F9B23B105980DAA0099FFF729FB009B20
S2140853609B895A0600F17B8102982BB0BDE8F08F26
S2140853700DAA00994846FFF71BFB0028EFD10E99A7
S214085380D3460F9A481C5EE5002A40F0FA80D346BA
S214085390039A01231B920F921A970E930BF1080B90
S2140853A0710704D5069B5C1B002C3FF73DAD029B9E
S2140853B00699A942ACBF5B185B190293002A40F015
S2140853C0AD8000230E93D346FFF75FBB0DAA009966
S2140853D048460793FFF7ECFA0028C0D10E98D64641
S2140853E00F9A00F1010C079BD4E400BFE87608008A
S2140853F0FC760800D8760800002A7FF42FAF9DF8C0
S2140854002F30002B00F0F38001231A469E46D34621
S2140854100DF12F011B931A9170460BF1080B0EF134
S214085420010E85E49E46D3460CA902221A911B92C9
S21408543070460BF1080B0EF1010E37E7019B8DF84D
S2140854402F90002BC0F21B8154EA050326F0800635
S2140854503FF407AC5746230943EA0573290904F0C5
S2140854600F020D461C46835C07F8013D54EA050307
S214085470F1D1C7EB0A030393FFF7FCBB0DAA00990B
S2140854800598FFF795FA00287FF469AFD3460F9A78
S21408549086E716F0100200F0B58004998DF82F30D4
S2140854A00A460C680199043200294FF00005C0F23C
S2140854B0528154EA050126F0800604923FF45DAD59
S2140854C0994662E5049AF706134609D4750607D581
S2140854D0B2F900400433E517049322462B46F7E456
S2140854E01C680433E517049322462B46F0E4146838
S2140854F00432049200251FE64FF0000954EA05031B
S2140855007FF4F7ACD8E50DAA00990598FFF750FA8E
S21408551000287FF424AFD346FFF751BB0DAA0099A5
S2140855200598FFF745FA00283FF44BAF17E7002425
S21408553000254FF000098DE70DAA00990598FFF79A
S21408554037FA00287FF40BAF0E98D3460F9A00F16F
S214085550010EFFF7EDBB0DAA00990598FFF728FA8C
S21408556000287FF4FCAE0E98D3460F9A00F1010E81
S2140855709CE6002A40F0C8804FF0010E1046D3463D
S21408558098E60DAA00990598FFF712FA00287FF406
S214085590E6AE0E9BD3460F9A03F1010E2CE48DF867
S2140855A031304FF0000330228DF83020019A8DF804
S2140855B02F30002A46F00203C0F2BB8026F0800691
S2140855C046F002064FF0000944E74FF000098C4801
S2140855D040E7019B64424FF02D0965EB4505002B1B
S2140855E08DF82F90FFF685AC26F0800681E4079BA1
S2140855F0002B63D00CAB02221A931B924FF0010EBD
S214085600D34615E716F040093BD004998DF82F20AD
S2140856100B460C880199043300294FF00005C0F2A8
S2140856208C8054EA050126F0800604933FF4A5AC66
S2140856309146AAE4F0060AD4710608D5049A1368B7
S21408564004320492BDF808201A80FFF71EBA049A9E
S214085650136804320492029A1A60FFF716BA4FF0DB
S214085660FF30FFF7C9BA1646654854EA05020493A0
S2140856704FF000097FF4EEAE00240025EAE6049B0E
S214085680F3E7049A8DF82F9013461468019A0433AA
S214085690002A4FF0000550DB54EA050226F0800683
S2140856A004937FF472AC68E40DAA00990598FFF796
S2140856B07FF900287FF453AE0F9A78E610464FF02D
S2140856C0010ED346F6E504998DF82F300A460C8865
S2140856D00199043200294FF0000555DB54EA05010C
S2140856E026F08006049299467FF403ACDFE4049320
S2140856F004E738460494FFF72DF9002303909DF835
S2140857002F900193FFF7B6BA0DAA00990598FFF7F0
S2140857104FF900287FF423AE0E98D3460F9A00F16F
S214085720010EC7E50E980F9A0130DFF8DC90FFF7F8
S214085730ECBA1E464FF000098CE6049323E44FF0BB
S214085740000999E7062B28BF06230393049423EA47
S214085750E3752C4F12E5049215E40E98DFF8A8902E
S2140857600130FFF788BBF446DFF8A090FFF72DBBA3
S21408577000220192FFF7C1B9019B0494039301909C
S2140857809DF82F90FFF776BA04929946B6E6049AE3
S21408579013680432002B0193049298F80130A84647
S2140857A0BFF6A9A94FF0FF320192FFF7A4B98DF80A
S2140857B02F005FE48DF82F00FFF7C4BB8DF82F008D
S2140857C0FFF777BB8DF82F0087E48DF82F00A7E446
S2140857D09946F30705D52AAF302307F8413DFFF76A
S2140857E0A2BB019B57460393FFF744BA8DF82F00D8
S2140857F017E58DF82F00FAE48DF82F00D2E400BFE5
S214085800FC7608001077080018770800D876080095
S214085810F0B50C468989ADF26C4D656E21F0020133
S214085820666AADF80C10E169E789199500250791B5
S214085830099606951AAE4FF4806569460096049652
S21408584002950595ADF80E700646FFF7EDF8051EAD
S21408585007DB3046694600F029F9002818BF4FF0E4
S214085860FF35BDF80C305B0603D5A38943F040032B
S214085870A38128460DF26C4DF0BD00BF38B5304BFD
S214085880054618680C4610B1836B002B38D0B4F95F
S2140858900C2093B218070CD52069A8B113F00102A2
S2140858A01ED0636900225B42A361A260F0B10020AB
S2140858B038BDD9063BD5580725D4206942F00803D9
S2140858C0A3819BB20028E9D103F42072B2F5007FC9
