S013000052656E616C79785F444D312E737265630D
S214080000604A0720A9CA0900A1CA0900A1CA0900AE
S214080010A1CA0900A1CA0900A1CA09000000000077
S214080020000000000000000000000000A1CA09004F
S214080030A1CA090000000000A1CA0900F189090048
S214080040A1CA0900A1CA0900A1CA0900A1CA0900D3
S214080050A1CA0900A1CA0900A1CA0900A1CA0900C3
S21408006041890900A1CA090000000000B9C20900B8
S214080070D1C20900E9C2090001C309000000000056
S21408008000000000A1CA0900A1CA0900A1CA090007
S214080090A1CA0900A1CA0900A1CA0900A1CA090083
S2140800A0A1CA090000000000A1CA09007D8909004C
S2140800B0C1D90900A1CA0900D1890900A1CA090045
S2140800C0A1CA0900B1890900A1CA0900A1CA090084
S2140800D0A1CA0900A1CA0900A1CA0900A1CA090043
S2140800E0A1CA0900A1CA0900A1CA09003D7B0900E6
S2140800F0A1CA090010B5054C237833B9044B13B1CF
S2140801000448AFF300800123237010BDD4170720DE
S2140801100000000040A70A00084B10B51BB10848AD
S2140801200849AFF300800848036803B910BD074BB9
S214080130002BFBD0BDE81040184700BF00000000A9
S21408014040A70A00D817072040A70A0000000000AA
S21408015080B582B000AF78607B68072B30D801A2E4
S21408016052F823F0C1010800850108008D01080037
S214080170950108009D010800A5010800AD010800CA
S214080180B70108000020104B984719E001200E4BD5
S214080190984715E000200D4B984711E010200B4BB0
S2140801A098470DE02020094B984709E000203E219B
S2140801B0074B984704E001203E21054B984700BFAF
S2140801C00837BD4680BD00BF9DC3090009C40900A5
S2140801D0A9C4090080B582B000AF78607B68072B99
S2140801E026D801A252F823F0090208000D020800DA
S2140801F00D0208001F0208001F0208001F02080060
S2140802001F0208001F020800012312E00B4B984744
S2140802100346002B14BF01230023DBB209E0084B7A
S21408022098470346002B14BF01230023DBB200E0E7
S214080230002318460837BD4680BD00BFD5C3090051
S21408024021C5090080B483B000AF78607B68072BAF
S21408025025D801A252F823F0790208007F02080088
S214080260850208008B0208008F0208009302080027
S214080270970208009B0208004FF4FA4310E04FF478
S21408028000430DE04FF400430AE0084B08E0084B33
S21408029006E0084B04E0074B02E0064B00E00023AC
S2140802A018460C37BD465DF8047B704700093D00CC
S2140802B000127A00001BB70080B582B000AF034674
S2140802C0FB7100BFFB791846054B9847034683F039
S2140802D00103DBB2002BF5D10837BD4680BD00BF51
S2140802E0D501080080B586B000AFF8607A603B603C
S2140802F00B46FB727B68002B07D13B68002B04D1AA
S214080300FB684FF470021A6019E0FB7A18460D4B2A
S214080310984702467B68B2FBF3F37B617B693A68D1
S21408032002FB03F37B613B68013B1A04064B134050
S2140803307A68D2B2134343F47C52FB681A601837C3
S214080340BD4680BD450208000000FF0780B582B0A4
S21408035000AF786039603B68002B08D1084B984797
S214080360084A7B681B6843F00053936205E0054A19
S2140803707B681B6843F48033D3610837BD4680BD6D
S2140803803DC5090000060E4080B582B000AF786013
S2140803907B68002B03D1054B9847034602E0044BC5
S2140803A09847034618460837BD4680BD55C5090018
S2140803B071C5090080B582B000AF0346FB71FB79B2
S2140803C0033B042B08D8FB791846054B9847FB795E
S2140803D01846044B984700E000BF0837BD4680BD66
S2140803E051010800B902080080B582B000AF7860F5
S2140803F000BF7868044B98470346002BF9D00023C3
S21408040018460837BD4680BD8903080080B500AF8A
S2140804100620044B984702461346DB009B1A5B00EF
S214080420184680BD4502080080B500AF024B9847C5
S21408043003465B08184680BD0D04080090B583B0D7
S21408044000AF104B9847034618460F4B98470620B0
S2140804500E4B98473B1D1846062101220E230C4CCE
S214080460A0473B1D184600210A4B984700200A4B18
S21408047098471020094B9847094B98470C37BD46B4
S21408048090BD00BF29040800D1CC0900B5030800B8
S214080490E50208004D030800E903080019C309002F
S2140804A051CB090080B584B000AFF860B9607A60B7
S2140804B07B681B0203F47062BB681343F86819462E
S2140804C0034B9847002318461037BD4680BD00BF2B
S2140804D0B900072080B584B000AF786039607B68C3
S2140804E01B6823F47063FB603B681B0203F47062AE
S2140804F0FB68134378681946024B98471037BD4681
S21408050080BD00BFB900072080B483B000AF786014
S2140805107B681B6803F470631B0A18460C37BD46D5
S2140805205DF8047B704700BF80B586B000AFF86002
S214080530B9607A60BB680E2B02D0BB680F2B02D15D
S2140805404FF0FF3320E0FB68114A934214BF0123A3
S2140805500023DBB27B610F4B1B681A460E4B1A60F2
S2140805600D4B1A687B681B0223F07F4323F0FF03BA
S214080570B968C9B20B4343F0B44378691946904743
S214080580FB689B6803F0060318461837BD4680BD0F
S214080590000A0E4008001000F017072080B483B049
S2140805A000AF78607B68DB6818460C37BD465DF898
S2140805B0047B704780B582B000AF78607868024BDD
S2140805C098470837BD4680BD8DC5090080B582B0FE
S2140805D000AF78607B68044A934202D11820034B28
S2140805E098470837BD4680BD00800040B50508001E
S2140805F080B483B000AF78607B6808221A607B6896
S21408060020221A607B6804221A600C37BD465DF803
S214080610047B704780B584B000AF786039600023EB
S214080620FB607B684FF0FF329A627B681B6A7868CB
S2140806300F4B984778680F4B98473B685A683B6853
S2140806401B68786811461A460B4B98470346012BD9
S21408065001D10123FB603B685B7A012B02D17B68E2
S21408066040221A60FB6818461037BD4680BD00BF9A
S214080670F9060800F10508007D06080080B487B072
S21408068000AFF860B9607A6000237B61BB68184ADF
S214080690934201D9012324E0BB685B007A68B2FB69
S2140806A0F3F3043B3B6105E07B6901337B613B69FF
S2140806B05B083B613B69FF2B02D97B69062BF3D9A4
S2140806C00C4A3B6913603B69DAB23B691B029BB272
S2140806D01A437B691B0403F4E0231A43FB681A6178
S2140806E0002318461C37BD465DF8047B704700BFDC
S2140806F0801A0600F417072080B483B000AF78602D
S2140807007B6880221A607B681B6B0C37BD465DF8D9
S214080710047B704780B487B000AFF860B9607A6031
S2140807203B60BB68B3F5402F0BD3174B7B61BB68A8
S214080730A3F540231B0A7B82BB689BB2DBB23B82D5
S2140807400AE0124B7B61BB68A3F500231B0A7B8279
S214080750BB689BB2DBB23B82FB68002B02D0FB680F
S2140807607A691A607B68002B02D07B687A8A1A80BE
S2140807703B68002B02D03B683A8A1A801C37BD4675
S2140807805DF8047B704700BF000C0E40000A0E4060
S21408079080B487B000AFF8607B600B467B81134659
S2140807A03B81FB680D4A934206D17B8903F50063BB
S2140807B01A023B89134405E07B8903F540631A0255
S2140807C03B8913447B617B68002B02D07B687A697F
S2140807D01A601C37BD465DF8047B7047000A0E4059
S2140807E080B487B000AFF860B9607A603B60FB6899
S2140807F023F47F5323F03F037B61BB6823F47F53C6
S21408080023F03F0303F57F533F333B617B68002BA0
S21408081002D07B687A691A603B68002B02D03B6876
S2140808203A691A601C37BD465DF8047B704700BFFE
S21408083080B582B000AF78603960074879683A6852
S214080840064B9847064879683A68044B9847002349
S21408085018460837BD4680BD000A0E40A5040800A5
S214080860000C0E4090B58FB000AFF860B9607A60A3
S2140808703B604D4BBB6207F1180107F1160207F102
S21408088014030846F968494CA047BB691846484B04
S21408089098477862BB6918460621464B984776E023
S2140808A0BB8AC3F580727B68934228BF13463B62B7
S2140808B0B969FA8A07F110030846114600223E4C29
S2140808C0A047BB8A5B429AB23B6A9BB2D31A9BB2DA
S2140808D003F58073FB833B691A46BB8AB86A1146E0
S2140808E01A46364B9847BB8A1A46BB6A13441846BC
S2140808F0B9683A6A314B9847BB8A1A463B6A13442A
S214080900BA6AD118BB8A1A463B691A443B6A13442A
S2140809101A46FB8B084611461A46284B98473B69E9
S214080920FB6200233B630AE0FB6A1A1DFA621E4953
S2140809303A6B51F822201A603B6B01333B633B6BE2
S2140809403F2BF1D93B68002B07D0BB69FA8A1846BB
S21408095003211B4B9847786306E0BB69FA8A18465A
S2140809600121174B984778637B6B002B01D07B6B74
S21408097016E0BA683B6A1344BB607A683B6AD31AC7
S2140809807B60FB8A01339BB2FB820023BB827B68B9
S214080990002B85D1BB691846796A064B9847002311
S2140809A018463C37BD4690BDF817072015070800BF
S2140809B009050800D5040800910708006D870A0095
S2140809C02905080090B58BB000AFF860B9607A606A
S2140809D03B604023FB8407F1180207F11403F8680C
S2140809E0B9681E4CA0477B68002B02D0BA697B68A2
S2140809F01A603B68002B02D07A693B681A60BA69AD
S214080A0007F11C0107F11203084611461A4600238F
S214080A10134CA0477A6907F11003002011461A46BE
S214080A2000230F4CA04710E0FB697A8A1846082175
S214080A300C4B984738623B6A002B01D03B6A09E0AA
S214080A407A8AFB8C13449BB27B827A8A3B8A9A42C8
S214080A50EAD3002318462C37BD4690BDE1070800A8
S214080A60150708002905080090B58BB000AFF86098
S214080A70B9607A603B604023FB8407F1180207F1EF
S214080A801403F868B9681E4CA0477B68002B02D090
S214080A90BA697B681A603B68002B02D07A693B68A3
S214080AA01A60BA6907F11C0107F1120308461146D5
S214080AB01A460023134CA0477A6907F11003002052
S214080AC011461A4600230F4CA04710E0FB697A8AA5
S214080AD0184609210C4B984738623B6A002B01D010
S214080AE03B6A09E07A8AFB8C13449BB27B827A8A3B
S214080AF03B8A9A42EAD3002318462C37BD4690BD57
S214080B00E1070800150708002905080080B582B027
S214080B1000AF78607B68022B01D9112312E0786851
S214080B200A4B98470346012B01D100230AE00848E0
S214080B300B217A68074B98470346002B01D1002300
S214080B4000E0102318460837BD4680BD590B08003C
S214080B50000A0E402905080080B584B000AF78600A
S214080B607B68022B01D9112319E00F480D210022BA
S214080B700E4B98470346002B01D010230FE00A4877
S214080B800B4B9847F8607B68012202FA03F31A4673
S214080B90FB681340002B01D0012300E00023184611
S214080BA01037BD4680BD00BF000A0E402905080064
S214080BB09D05080080B500AF0020024B9847034605
S214080BC0184680BD0D0B080080B582B000AF124BEA
S214080BD000221A600423FB71104B98470346FB71EA
S214080BE0FB79002B01D00E4B98470E4B98470346CF
S214080BF0FB71FB79002B01D0094B98470A4B9847A5
S214080C000346FB71FB79002B01D0054B9847002360
S214080C1018460837BD4680BD301907202D0C080039
S214080C20818B0800E5120900090E090080B400AFA0
S214080C303F4B14221A803E4B91225A803C4B00228E
S214080C409A803B4B42F21072DA80394B394A9A60E6
S214080C50374B394ADA60364B364A1A61344B364ACD
S214080C605A61334B354A9A61314B354ADA61304B13
S214080C70324A1A622E4B334A5A622D4B324A9A62CD
S214080C802B4B304ADA622A4B304A9A63284B304A52
S214080C90DA63274B2F4A1A64254B2D4A5A64244B8D
S214080CA02D4A9A64224B2D4ADA64214B2C4A1A653F
S214080CB01F4B42F21072A3F854201D4B0022A3F8D3
S214080CC056201B4B42F21072A3F85820184B0022ED
S214080CD0A3F85A20164B42F21072A3F85C20144B65
S214080CE00022A3F85E20124B0522A3F86020104BC2
S214080CF01422A3F862200E4B1E22A3F864200C4B85
S214080D000522A3F866200A4B1E22A3F86820084B83
S214080D100522A3F86A20064B124A5A63044B074A70
S214080D201A6300231846BD465DF8047B704700BF6B
S214080D30A82207200080BB4400002F440000C843B8
S214080D40000048C3000096C300007A44000014421E
S214080D500000C8410000A0420080BB4300007A4360
S214080D60000034420000C8C390B585B000AF042325
S214080D70FB730023BB8100237B8100233B81002378
S214080D80FB8007F10C0312201946634B9847BA8973
S214080D90624B104698470246614B10466149984791
S214080DA003461A46604B1A6007F10C0313201946CF
S214080DB0594B9847BA89594B104698470246584B9C
S214080DC010465849984703461A46584B1A6007F182
S214080DD00C0314201946504B9847BA894F4B1046B7
S214080DE0984702464E4B10464E49984703461A46C1
S214080DF04F4B1A6007F10C0307201946464B9847D5
S214080E00BA89464B104698470246454B104649490C
S214080E10984703461A46484B1A6007F10C030B20FE
S214080E2019463D4B9847BA893C4B104698470246A8
S214080E30424B10464249984703461A46414B1A60A9
S214080E4007F10C030C201946334B9847BA89334BE5
S214080E50104698470246394B104639499847034684
S214080E601A46394B1A6007F10A030E2019462A4B10
S214080E7098477B89A3F57A72344B10469847024602
S214080E80334B1A6007F108030F201946224B984780
S214080E903B89A3F57A722D4B1046984702462D4B90
S214080EA01A60BB1D102019461B4B9847FB88A3F5F4
S214080EB07A72264B104698470246274B1A60214BF3
S214080EC01968214B1A68254B084611469847034669
S214080ED01C461F4B19681F4B1A68204B08461146BC
S214080EE0984703461A46154B204611469847034628
S214080EF01A460B4B10464FF08041984703461A4651
S214080F000E4B10461649984703461A46154B1A6064
S214080F1018461437BD4690BD69FD080055820A007C
S214080F206D840A0000002041201907202419072094
S214080F30281907200000C8422C190720F1800A004B
S214080F4000007A44A0220720101907205D820A00B4
S214080F5014190720181907201C190720F5800A00FD
S214080F600000C8410C19072080B582B000AF984B26
S214080F7098470346FB71FB79002B01D0954B9847A1
S214080F80954B93F8DE31002B3BD0944BB3F8583092
S214080F90002B32D0924B1B680133914A1360904B5A
S214080FA000221A608C4B012283F8D2218D4B1B78C5
S214080FB08C4A0133DB0013441D229A80864B93F833
S214080FC0DD310133DAB2844B83F8DD21864B01220A
S214080FD01A70864B1D221A70824B1B781A46814B54
S214080FE013442E229A70824B98470346FB71FB796E
S214080FF0002B06D0774B984703E0774B042283F8FC
S214081000D221754B93F89E32002B48D0724B93F83A
S2140810109132012B04D1714B93F84B30002B09D138
S2140810206D4B93F89132002B35D16C4B93F84B30BF
S214081030002B30D1684B93F89232012B2AD0664B9E
S214081040012283F89222674B1B78664A0133DB003D
S214081050134429229A80604B93F89D320133DAB202
S2140810605D4B83F89D22604B01221A705F4B292244
S2140810701A705C4B1B781A465A4B13442E229A70E9
S2140810805B4B98470346FB71FB79002B02D0514B0C
S214081090984704E003E0504B042283F892224E4B14
S2140810A093F8AE32002B48D04B4B93F8A132012B65
S2140810B004D14A4B93F84B30002B09D1464B93F892
S2140810C0A132002B35D1454B93F84B30002B30D14D
S2140810D0414B93F8A232012B2AD03F4B012283F8CA
S2140810E0A222404B1B783F4A0133DB0013442922D7
S2140810F09A80394B93F8AD320133DAB2364B83F81F
S214081100AD22394B01221A70384B2A221A70354BF9
S2140811101B781A46334B13442E229A70344B984742
S2140811200346FB71FB79002B02D02A4B984704E054
S21408113003E0294B042283F89222274B93F8BE3209
S214081140002B5BD0244B93F8B132012B04D1234BF0
S21408115093F84C30002B09D11F4B93F8B132002B73
S21408116048D11E4B93F84C30002B43D11A4B93F8BA
S214081170B232012B2AD0184B012283F8B222194B1F
S2140811801B78184A0133DB0013442B229A80124B33
S21408119093F8BD320133DAB20F4B83F8BD22124BF7
S2140811A001221A70114B2B221A700E4B1B781A4606
S2140811B00C4B13442E229A700D4B98470346FB712E
S2140811C0FB79002B02D0034B984717E016E000BFC8
S2140811D0690D0800818B0800701E0720D823072099
S2140811E0301907208024072009190720A422072081
S2140811F065290800A04B042283F8B2229E4B93F878
S214081200CE32002B48D09C4B93F8C132012B04D128
S2140812109A4B93F84C30002B09D1974B93F8C13270
S214081220002B35D1954B93F84C30002B30D1924B90
S21408123093F8C232012B2AD08F4B012283F8C222A0
S2140812408F4B1B788E4A0133DB0013442C229A807E
S214081250894B93F8CD320133DAB2874B83F8CD2227
S214081260884B01221A70884B2C221A70844B1B78E4
S2140812701A46834B13442E229A70844B984703468B
S214081280FB71FB79002B02D0814B984704E003E002
S214081290794B042283F8C222774B93F80E32002B40
S2140812A032D0764B1B8B002B2AD0734B012283F847
S2140812B00222734B1B78724A0133DB001344202248
S2140812C09A806D4B93F80D320133DAB26A4B83F885
S2140812D00D226C4B01221A706B4B20221A70684B39
S2140812E01B781A46664B13442E229A70674B98470B
S2140812F00346FB71FB79002B06D0654B984703E045
S2140813005D4B042283F802225B4B93F81E32002BB7
S21408131032D05A4B5B8B002B2AD0574B012283F8CE
S2140813201222574B1B78564A0133DB0013442122FE
S2140813309A80514B93F81D320133DAB24E4B83F83C
S2140813401D22504B01221A704F4B21221A704C4B0B
S2140813501B781A464A4B13442E229A704B4B9847D2
S2140813600346FB71FB79002B06D0494B984703E0F0
S214081370414B042283F812223F4B93F82E32002B5F
S21408138033D03E4BB3F84430002B2AD03A4B0122D8
S21408139083F822223A4B1B78394A0133DB00134480
S2140813A022229A80344B93F82D320133DAB2324B2C
S2140813B083F82D22334B01221A70334B22221A70DF
S2140813C02F4B1B781A462E4B13442E229A702F4BFF
S2140813D098470346FB71FB79002B06D02C4B9847A1
S2140813E003E0254B042283F82222234B93F81E346D
S2140813F0002B62D0204B93F81234012B54D0254B87
S2140814001A6B254B10462549984703461946244B20
S2140814101A68244B0846114698470346002B00D105
S2140814204BE0154B012283F81224154B1B78144AFF
S2140814300133DB00134441229A800F4B93F81D3486
S2140814400133DAB20C4B83F81D240E4B01221A70B6
S2140814500D4B41221A700A4B1B781A46084B134448
S2140814602E229A70094B98470346FB71FB79002B8E
S21408147023D0074B984720E0701E0720D823072064
S2140814808024072009190720A422072065290800B8
S214081490818B0800A8220720F1800A0000007A4401
S2140814A00C19072041860A009B4B93F81234012B2F
S2140814B003D1994B042283F81224974B93F82E34C1
S2140814C0002B4AD0944B93F82234012B3CD0934BF4
S2140814D05A6B934B10469349984703461946924BC6
S2140814E01A68924B0846114698470346002B00D1C7
S2140814F033E0894B012283F822248D4B1B788C4AD3
S2140815000133DB00134442229A80834B93F82D3430
S2140815100133DAB2804B83F82D24864B01221A70E9
S214081520854B42221A70824B1B781A46804B13440E
S2140815302E229A70814B98470346FB71FB79002B45
S2140815400BD07F4B984708E0734B93F82234012B57
S21408155003D1714B042283F822246F4B93F84E3242
S214081560002B44D06D4B9A686D4B10466D499847D2
S21408157003461946734B1A68734B08461146984734
S2140815800346002B2AD0644B012283F84222684B7C
S2140815901B78674A0133DB00134424229A805E4B8B
S2140815A093F84D320133DAB25B4B83F84D22614B28
S2140815B001221A70604B24221A705D4B1B781A465B
S2140815C05B4B13442E229A705C4B98470346FB717C
S2140815D0FB79002B0BD05A4B984708E04E4B93F8F4
S2140815E04232012B03D14C4B042283F842224A4B49
S2140815F093F83E32002B44D0484BDA68484B1046E6
S21408160048499847034619464E4B1A68474B0846BA
S214081610114698470346002B2AD03F4B012283F8F1
S2140816203222434B1B78424A0133DB001344232201
S2140816309A80394B93F83D320133DAB2364B83F849
S2140816403D223C4B01221A703B4B23221A70384B22
S2140816501B781A46364B13442E229A70374B9847F7
S2140816600346FB71FB79002B0BD0354B984708E0F7
S214081670294B93F83232012B03D1274B042283F8E7
S2140816803222254B93F86E32002B6ED018202F4945
S21408169007222F4B9847FB79002B01D0284B9847F9
S2140816A01E4B1A691E4B10461E4998470346194694
S2140816B0284B1A68244B0846114698470346002BC1
S2140816C04AD0154B012283F86222194B1B78184A18
S2140816D00133DB00134426229A800F4B93F86D32B1
S2140816E00133DAB20C4B83F86D22124B01221A70C2
S2140816F0114B26221A700E4B1B781A460C4B1344B5
S2140817002E229A700D4B98470346FB71FB79002BE7
S2140817102BD00B4B984728E0701E0720A8220720DE
S214081720F1800A0000007A440C1907207D860A001A
S2140817308024072009190720A42207206529080005
S214081740818B0800A022072041860A0010A20A0002
S214081750E9D1090010190720964B93F86232012B3D
S21408176003D1944B042283F86222924B93F85E329C
S214081770002B44D0904B5A69904B10469049984796
S214081780034619468F4B1A688F4B084611469847EA
S2140817900346002B2AD0874B012283F852228B4B14
S2140817A01B788A4A0133DB00134425229A80814B32
S2140817B093F85D320133DAB27E4B83F85D22844BB0
S2140817C001221A70834B26221A70804B1B781A4601
S2140817D07E4B13442E229A707F4B98470346FB7124
S2140817E0FB79002B0BD07D4B984708E0714B93F89C
S2140817F05232012B03D16F4B042283F852226D4BD1
S2140818009B7F002B42D06B4B5B7C012B03D1744B28
S2140818101B78002B0AD1674B5B7C002B33D1704BAF
S2140818201B7883F00103DBB2002B2CD0614B9B7C2A
S214081830012B27D05F4B01229A74644B1B78634AAE
S2140818400133DB00134401229A805A4B5B7F013335
S214081850DAB2584B5A775E4B01221A705D4B01225A
S2140818601A705A4B1B781A46584B13442E229A70F5
S214081870594B98470346FB71FB79002B02D0574B10
S214081880984703E002E04B4B04229A74494B93F8BE
S2140818903E30002B46D0474B93F83130012B04D10D
S2140818A04F4B93F84630002B0CD1424B93F831300F
S2140818B0002B33D14A4B93F8463083F00103DBB252
S2140818C0002B2BD03B4B012283F832203F4B1B7852
S2140818D03E4A0133DB00134403229A80354B93F8C3
S2140818E03D300133DAB2334B83F83D20384B0122C2
S2140818F01A70384B03221A70344B1B781A46334B2F
S21408190013442E229A70344B98470346FB71FB7992
S214081910002B02D0314B984704E003E0254B042205
S21408192083F83220234B93F85E30002B5ED0214B91
S21408193093F85130012B04D1294B93F84630002BED
S2140819400CD11C4B93F85130002B4BD1244B93F8F9
S214081950463083F00103DBB2002B43D0154B01223F
S21408196083F85220194B1B78184A0133DB001344BE
S21408197003229A800F4B93F85D300133DAB20D4B91
S21408198083F85D20124B01221A70124B05221A703A
S2140819900E4B1B781A460D4B13442E229A700E4B8C
S2140819A098470346FB71FB79002B02D00B4B9847F0
S2140819B01CE01BE0701E0720A8220720F1800A0002
S2140819C000007A44101907207D860A008024072024
S2140819D009190720A422072065290800818B08001A
S2140819E0D8230720A64B042283F85220A44B93F84A
S2140819F04E30002B46D0A24B93F84130012B04D131
S214081A00A04B93F84730002B0CD19D4B93F84130F0
S214081A10002B33D19B4B93F8473083F00103DBB29E
S214081A20002B2BD0964B012283F84220964B1B782E
S214081A30954A0133DB00134404229A80904B93F8AE
S214081A404D300133DAB28E4B83F84D208F4B01228E
S214081A501A708F4B04221A708B4B1B781A468A4BC7
S214081A6013442E229A708B4B98470346FB71FB79DA
S214081A70002B02D0884B984704E003E0804B0422F2
S214081A8083F842207E4B93F86E30002B46D07C4B72
S214081A9093F86130012B04D17A4B93F84730002B2A
S214081AA00CD1774B93F86130002B33D1754B93F8F4
S214081AB0473083F00103DBB2002B2BD0704B01229A
S214081AC083F86220704B1B786F4A0133DB0013449F
S214081AD006229A806A4B93F86D300133DAB2684B67
S214081AE083F86D20694B01221A70694B06221A701A
S214081AF0654B1B781A46644B13442E229A70654B26
S214081B0098470346FB71FB79002B02D0624B984737
S214081B1004E003E05A4B042283F86220584B93F8FB
S214081B20DE33002B46D0574B93F84030002B04D0BA
S214081B30534B93F8D133012B0CD0524B93F84030CB
S214081B4083F00103DBB2002B34D04D4B93F8D1332E
S214081B50002B2FD14A4B93F8D233012B20D0484B79
S214081B60022283F8E223464B012283F8D223464B0F
S214081B701B78454A0133DB0013443D229A80434BC9
S214081B8001221A70424B3D221A703F4B1B781A46A8
S214081B903D4B13442E229A70404B01221A7006E0E1
S214081BA0374B002283F8DD23384B00221A703C4B53
S214081BB000221A70324B93F8EE33002B43D0314B89
S214081BC093F84030002B04D02D4B93F8E133012BCB
S214081BD00CD02C4B93F8403083F00103DBB2002B7B
S214081BE031D0274B93F8E133002B2CD1244B93F8B4
S214081BF0E233012B1DD0224B93F8EE33002B1FD077
S214081C001F4B022283F8D2231D4B012283F8E223BE
S214081C101E4B01221A701E4B3E221A701A4B1B7856
S214081C201A46194B13442E229A701C4B02221A701D
S214081C3006E0134B002283F8ED23144B00221A709B
S214081C40174B01221A700E4B93F85E31002B65D0A5
S214081C500B4B93F85231012B57D0094BD3F854212C
S214081C60104B104610499847034619460F4B1A68FA
S214081C700F4B0846114698470346002B1AD14DE0ED
S214081C80701E0720D823072080240720091907205C
S214081C90A422072065290800818B0800341C072029
S214081CA008010720F1800A0000007A44141907206A
S214081CB041860A008E4B012283F852218D4B1B78F1
S214081CC08C4A0133DB00134415229A80884B93F81C
S214081CD05D310133DAB2864B83F85D21864B0122EB
S214081CE01A70864B15221A70824B1B781A46814B3F
S214081CF013442E229A70824B98470346FB71FB7951
S214081D00002B0BD07F4B984708E0794B93F852315D
S214081D10012B03D1764B042283F85221744B93F897
S214081D206E31002B4BD0724B93F86231012B3DD0AD
S214081D306F4BD3F86821744B10467449984703468E
S214081D401946734B1A68734B08461146984703465C
S214081D50002B00D133E0664B012283F86221654BE5
S214081D601B78644A0133DB00134416229A80604BC2
S214081D7093F86D310133DAB25D4B83F86D215E4B13
S214081D8001221A705D4B16221A705A4B1B781A4697
S214081D90584B13442E229A70594B98470346FB71AA
S214081DA0FB79002B0BD0574B984708E0504B93F81D
S214081DB06231012B03D14E4B042283F862214C4B2F
S214081DC093F87E31002B4BD0494B93F87231012B98
S214081DD03DD0474BD3F874214B4B10464B49984798
S214081DE0034619464C4B1A684C4B0846114698470A
S214081DF00346002B00D133E03D4B012283F87221C5
S214081E003C4B1B783B4A0133DB00134417229A806D
S214081E10374B93F87D310133DAB2354B83F87D21A1
S214081E20354B01221A70354B17221A70314B1B7826
S214081E301A46304B13442E229A70314B9847034665
S214081E40FB71FB79002B0BD02E4B984708E0284BEC
S214081E5093F87231012B03D1254B042283F87221A3
S214081E60234B93F88E31002B63D0214B93F88231A5
S214081E70012B55D01E4BD3F88821234B10462349F7
S214081E80984703461946244B1A68224B08461146BB
S214081E9098470346002B00D14BE0154B012283F8E8
S214081EA08221144B1B78134A0133DB001344182293
S214081EB09A800F4B93F88D310133DAB20C4B83F8C6
S214081EC08D210D4B01221A700C4B18221A70094BE3
S214081ED01B781A46074B13442E229A70084B9847CD
S214081EE00346FB71FB79002B23D0064B984720E06E
S214081EF0701E07208024072009190720A42207201F
S214081F0065290800818B0800F1800A0000007A44E1
S214081F10141907207D860A001819072041860A002A
S214081F209B4B93F88231012B03D1994B042283F8FB
S214081F308221974B93F87E32002B4BD0944BD3F8E4
S214081F407422944B10469449984703461946934B77
S214081F501A68934B0846114698470346002B30D01C
S214081F608B4B93F87232012B2BD0894B012283F8C6
S214081F7072228C4B1B788B4A0133DB0013442722D2
S214081F809A80834B93F87D320133DAB2804B83F81C
S214081F907D22854B01221A70844B27221A70814BAA
S214081FA01B781A467F4B13442E229A70804B98470C
S214081FB00346FB71FB79002B02D07E4B984709E05D
S214081FC008E0734B93F87232012B03D1704B04224E
S214081FD083F872226E4B93F88E32002B4AD0764BDB
S214081FE0DA6A6C4B10466C499847034619466B4BA1
S214081FF01A68724B0846114698470346002B30D09D
S214082000634B93F88232012B2BD0614B012283F865
S2140820108222644B1B78634A0133DB001344282270
S2140820209A805B4B93F88D320133DAB2584B83F8BB
S2140820308D225D4B01221A705C4B28221A70594B70
S2140820401B781A46574B13442E229A70584B9847BB
S2140820500346FB71FB79002B02D0564B984709E0E4
S21408206008E04B4B93F88232012B03D1484B0422ED
S21408207083F88222464B93F8FE30002B46D0444B1A
S214082080D3F8F4104E4B1A68454B08461146984745
S2140820900346002B2AD03E4B012283F8F220414B00
S2140820A01B78404A0133DB0013440F229A80384BD2
S2140820B093F8FD300133DAB2354B83F8FD203A4BFE
S2140820C001221A70394B0F221A70364B1B781A46A3
S2140820D0344B13442E229A70354B98470346FB71AF
S2140820E0FB79002B12D0334B98470FE0284B93F818
S2140820F0F230012B0AD1264B042283F8F220244B17
S214082100002283F8FD20284B00221A70204B93F8F3
S2140821100E31002B66D01E4BD3F80811284B1A68D0
S214082120264B0846114698470346002B4AD0184BBC
S21408213093F80231012B55D0154B012283F8022162
S214082140184B1B78174A0133DB00134410229A8079
S2140821500F4B93F80D310133DAB20D4B83F80D218E
S214082160114B01221A70114B10221A700D4B1B7856
S2140821701A460C4B13442E229A700D4B984703466A
S214082180FB71FB79002B2DD00A4B98472AE000BF3D
S214082190701E0720F1800A0000007A441C190720E8
S2140821A041860A008024072009190720A422072050
S2140821B065290800818B0800A82207207D860A006A
S2140821C020190720A04B93F80231012B0AD19E4B09
S2140821D0042283F802219C4B002283F80D219B4B96
S2140821E000221A70984B93F83E31002B4AD0984B31
S2140821F0996C984B1A68984B0846114698470346B8
S214082200002B2FD0904B93F83231012B3AD08E4BBF
S214082210012283F83221914B1B78904A0133DB0068
S214082220134413229A80884B93F83D310133DAB26F
S214082230854B83F83D21854B01221A70884B132263
S2140822401A70864B1B781A46844B13442E229A70B3
S214082250844B98470346FB71FB79002B12D0824BC0
S21408226098470FE0784B93F83231012B0AD1764B1A
S214082270042283F83221744B002283F83D21734BE5
S21408228000221A70704B93F84E31002B4AD0704BD0
S214082290D96C704B1A68754B084611469847034622
S2140822A0002B2FD0684B93F84231012B3AD0664B5F
S2140822B0012283F84221694B1B78684A0133DB0008
S2140822C0134414229A80604B93F84D310133DAB2E6
S2140822D05D4B83F84D215D4B01221A70604B14222A
S2140822E01A705E4B1B781A465C4B13442E229A7063
S2140822F05C4B98470346FB71FB79002B12D05A4B70
S21408230098470FE0504B93F84231012B0AD14E4BB9
S214082310042283F842214C4B002283F84D214B4B74
S21408232000221A70484B93F81E31002B4BD0464BB0
S214082330D3F814114E4B1A68474B0846114698476F
S2140823400346002B2FD0404B93F81231012B3AD07E
S2140823503D4B012283F81221404B1B783F4A01333C
S214082360DB00134411229A80374B93F81D31013352
S214082370DAB2354B83F81D21344B01221A70384BDC
S21408238011221A70354B1B781A46344B13442E22EA
S2140823909A70344B98470346FB71FB79002B12D092
S2140823A0314B98470FE0284B93F81231012B0AD18E
S2140823B0254B042283F81221234B002283F81D2183
S2140823C0224B00221A70204B93F82E31002B61D036
S2140823D01D4BD3F82811264B1A68244B084611467D
S2140823E098470346002B45D0174B93F82231012B0C
S2140823F050D0154B012283F82221184B1B78174A18
S2140824000133DB00134412229A800F4B93F82D31C8
S2140824100133DAB20C4B83F82D210C4B01221A70CB
S2140824200F4B12221A700D4B1B781A460B4B13448F
S2140824302E229A700B4B98470346FB71FB79002BAC
S21408244028D0094B984725E0701E07200919072051
S214082450A82207202819072041860A00802407207A
S214082460A422072065290800818B08007D860A00BB
S214082470241907208C4B93F82231012B0AD18A4B5A
S214082480042283F82221884B002283F82D21874BCB
S21408249000221A70844B93F88E30002B4AD0844B57
S2140824A05B881AB2834B104698470146824B1A68D7
S2140824B0824B0846114698470346002B2AD07A4B8B
S2140824C0012283F882207E4B1B787D4A0133DB008D
S2140824D0134408229A80744B93F88D300133DAB28D
S2140824E0714B83F88D20714B01221A70754B0822A8
S2140824F01A70734B1B781A46714B13442E229A7027
S214082500714B98470346FB71FB79002B12D06F4B33
S21408251098470FE0644B93F88230012B0AD1624B40
S214082520042283F88220604B002283F88D205F4BBC
S21408253000221A705C4B93F87E30002B4AD05C4B16
S2140825401B881AB25B4B1046984701465A4B1A68C6
S2140825505F4B0846114698470346002B2AD0524B35
S214082560012283F87220564B1B78554A0133DB004C
S214082570134407229A804C4B93F87D300133DAB225
S214082580494B83F87D20494B01221A704D4B072290
S2140825901A704B4B1B781A46494B13442E229A70D6
S2140825A0494B98470346FB71FB79002B12D0474BE3
S2140825B098470FE03C4B93F87230012B0AD13A4B00
S2140825C0042283F87220384B002283F87D20374B8C
S2140825D000221A70344B93F89E30002B0AD1324BE7
S2140825E093F8AE30002B05D12F4B93F8BE30002B56
S2140825F000F0FA80374B00221A703648364B984758
S2140826000346FB71FB79002B01D0304B9847314BC2
S2140826101B780A2B62D00B2B00F0A380092B40F006
S214082620E3802C4B1B78204A1B01134401229A7026
S2140826301D4B042283F8A2201B4B042283F8B220E9
S2140826401F4B1B781846234B1B7899B21C4A431C11
S214082650DB0013440A469A801E4B1B7812491A015F
S2140826600A44083252790132D1B20F4A1B01134488
S21408267008330A465A710D4B01221A70154B1A7800
S214082680104B1A700E4B1B781A460D4B13442E220D
S2140826909A700D4B98470346FB71FB79002B02D0C6
S2140826A00A4B9847A0E09FE0701E072009190720EC
S2140826B0A82207205D820A002C19072041860A00F6
S2140826C080240720A422072065290800818B08009B
S2140826D07D860A0008190720D92D0800944B1B7818
S2140826E0944A1B01134401229A70924B042283F8E1
S2140826F09220904B042283F8B2208F4B1B78184602
S2140827008B4B1B7899B28C4A431CDB0013440A4651
S2140827109A80874B1B7887491A010A4408325279EF
S2140827200132D1B2834A1B01134408330A465A7150
S214082730824B01221A707E4B1A78814B1A707E4B98
S2140827401B781A467C4B13442E229A707D4B98476A
S2140827500346FB71FB79002B02D07B4B984743E07E
S21408276042E0734B1B78734A1B01134401229A708C
S214082770704B042283F892206E4B042283F8A22022
S2140827806D4B1B7818466A4B1B7899B26A4A431CED
S214082790DB0013440A469A80654B1B7865491A0184
S2140827A00A44083252790132D1B2624A1B011344F4
S2140827B008330A465A71614B01221A705C4B1A7824
S2140827C05F4B1A705C4B1B781A465B4B13442E22E1
S2140827D09A705C4B98470346FB71FB79002B02D036
S2140827E0594B9847FFE700BF584B1B78002B00F063
S2140827F09980504B93F8CE30002B0AD14D4B93F866
S214082800DE30002B05D14B4B93F8EE30002B00F052
S21408281089804F4BB3F842301A464E4B1B689A4293
S2140828200CD04D4B00221A604C4B1B6801334B4AA8
S21408283013604B4B1B680133494A1360464B1B68B1
S214082840282B32D93B4B93F8C230012B2DD0394B6D
S214082850012283F8C220384B1B78374A0133DB0045
S21408286013440C229A80334B93F8CD300133DAB2F6
S214082870304B83F8CD202F4B042283F8C2202F4BF1
S21408288001221A702E4B0C221A702B4B1B781A46F4
S214082890294B13442D229A702A4B98470346FB71FE
S2140828A0FB79002B01D0284B98472C4B1B68022B32
S2140828B032D9204B93F8E230012B2DD01D4B012244
S2140828C083F8E2201C4B1B781B4A0133DB001344B9
S2140828D00E229A80174B93F8ED300133DAB2154B77
S2140828E083F8ED20134B042283F8E220134B0122D1
S2140828F01A70134B0E221A700F4B1B781A460E4B83
S21408290013442D229A700F4B98470346FB71FB79A8
S214082910002B01D00C4B98470D4BB3F842301A46A3
S2140829200C4B1A60002318460837BD4680BD00BF0A
S21408293008190720701E0720802407200919072079
S214082940A422072065290800818B08009D1B072004
S214082950D8230720F8180720FC1807200019072096
S2140829600419072080B400AF0B4B1B78002B0CD043
S2140829700A4B1B78092B08D8084B01225A70074BBC
S2140829801B780133DAB2054B1A7000231846BD4689
S2140829905DF8047B704700BF0919072080240720CC
S2140829A080B400AF0B4B1B78002B0CD00A4B1B785F
S2140829B0092B08D8084B01225A70074B1B7801339D
S2140829C0DAB2054B1A7000231846BD465DF8047B3C
S2140829D0704700BF09190720BC26072080B485B0B9
S2140829E000AFBA607B600346FB730B46BB73FB7B8A
S2140829F00F4A1B011344BA7B5A70FB7B0C4A1B0117
S214082A00134408337A681A60FB7B094A1B0113448F
S214082A10BA685A60FB7B064A1B01134408333A7EA1
S214082A201A71002318461437BD465DF8047B7047B4
S214082A30701E072080B584B000AF03460A46FB71B7
S214082A401346BB710023FB73FB79002B57D0FB7929
S214082A50422B54D8FB793D2B05D0FB793E2B02D070
S214082A60FB793C2B13D1FB792B4A1B011344083303
S214082A7001229A71FB79284A1B01134402229A7094
S214082A80FB79254A1B011344083300225A71234B4D
S214082A901B78002B32D0FB791F4A1B011344FA79A6
S214082AA01A70BB79002B14D0FB791B4A1B01134400
S214082AB0083301229A71FB79174A1B011344022234
S214082AC09A70FB79144A1B011344083300225A7182
S214082AD014E0FB79104A1B011344083300229A714C
S214082AE0FB790D4A1B01134404229A70FB790A4AA3
S214082AF01B011344083300225A7102E001E0042344
S214082B00FB73FB7B002B01D0054B9847FB7B1846D5
S214082B101037BD4680BD00BF701E0720E80B072093
S214082B20818B080080B485B000AF0346FB71002394
S214082B30FB73FB79002B0BD0FB79422B08D8FB796B
S214082B40084A1B01134402229A700023FB7301E013
S214082B500423FB73FB7B18461437BD465DF8047BDD
S214082B60704700BF701E072080B500AF1F4B93F854
S214082B70CE33002B38D01E4B9B8B012B27D11D4BF9
S214082B801B88002B23D1194B012283F8C2231A4B2A
S214082B901B78194A0133DB0013443C229A80134BF6
S214082BA093F8CD330133DAB2104B83F8CD23134BA9
S214082BB001221A70124B3C221A700F4B1B781A46C9
S214082BC00D4B13442F229A700E4B984707E0074B7D
S214082BD0042283F8C223054B002283F8CD23044B36
S214082BE09B8B9AB2034B1A80184680BD701E07202E
S214082BF0D82307200A190720BC260720091907200A
S214082C00A4220720A129080080B584B000AF034697
S214082C103960FB710023FB73FB79002B1AD0FB7914
S214082C20422B17D8FB79114A1B0113449B78012BBA
S214082C3006D0FB790D4A1B0113449B78032B03D15E
S214082C403B6801221A7002E03B6800221A700023D3
S214082C50FB7301E00423FB73FB7B002B01D0044BC2
S214082C609847FB7B18461037BD4680BD701E072068
S214082C70818B080080B584B000AF03460A46FB7116
S214082C801346BB710023FB73FB79002B60D0FB79DE
S214082C90422B5DD8FB79344A1B01134408339B79D1
S214082CA0002B52D0BB79002B38D0FB792E4A1B015B
S214082CB0134401229A702D4B1B78FA7991B22B4A4D
S214082CC00133DB0013440A469A80FB7926491A0129
S214082CD00A44083252790132D1B2234A1B011344FE
S214082CE008330A465A71224B01221A70214AFB7988
S214082CF01370FB793C2B07D11C4B1B781A461B4BD1
S214082D0013442D229A7006E0184B1B781A46174B68
S214082D1013442E229A70184B984716E0FB79124AED
S214082D201B0113449B78012B0FD1FB790E4A1B011C
S214082D30134404229A70FB790B4A1B011344083388
S214082D4000225A710A4B00221A700023FB7301E016
S214082D500423FB73FB7B002B01D0084B984700230A
S214082D6018461037BD4680BD701E072080240720F1
S214082D7009190720A422072065290800818B080066
S214082D8080B483B000AF0023FB710F4B1B88013360
S214082D909AB20D4B1A800D4B00221A600C4B1B681A
S214082DA001330B4A1360084B1B88142B05D9094BB3
S214082DB000221A60044B00221A80002318460C379B
S214082DC0BD465DF8047B70473419072000190720B4
S214082DD0FC1807200419072080B483B000AF786079
S214082DE03B4B1B881A461346DB001344394A128F9E
S214082DF01344394A82FB03129210DB17D31A9AB28D
S214082E00334B1A80354B1B78032B59D801A252F83E
S214082E1023F000BF252E08005D2E0800252E08008A
S214082E208B2E08002A4B1B88322B0AD9284B1B8866
S214082E30B3F5FA6F05D27B680A221A70274B01226F
S214082E401A70234B1B88B3F5FA6F06D97B680B22DA
S214082E501A70224B03221A7032E031E01C4B1B8892
S214082E60B3F5FA6F05D97B680B221A701B4B032241
S214082E701A70174B1B88312B06D87B6809221A70E4
S214082E80164B02221A701BE01AE0114B1B88322BD5
S214082E900AD90F4B1B88B3F5FA6F05D27B680A224E
S214082EA01A700E4B01221A70094B1B88312B06D854
S214082EB07B6809221A70094B02221A70FFE700BFC6
S214082EC0002318460C37BD465DF8047B704700BFE4
S214082ED036190720D823072067666666381907203C
S214082EE080B584B000AF0346FB710023FB73FB7903
S214082EF0043B0C2B00F2A88001A252F823F000BF76
S214082F00352F0800D12F080049300800493008003E
S214082F104930080049300800493008009F2F08004B
S214082F2049300800ED2F0800493008003130080005
S214082F30FB2F08000720964B98470346FB73022092
S214082F4040F24C41934B984701204FF46171914BE6
S214082F5098471A200121904B9847904B1B78012BD5
S214082F6015D115208A4B98470346FB738C4B1B7864
S214082F70012B0CD18B4B984740F6AC508A4B9847A0
S214082F8001208A4B9847052089498A4B98478A4BDF
S214082F901A788A4B1A70884B02221A7054E0864BAD
S214082FA01B78002B13D10720794B98470346FB73F1
S214082FB0824B1B781A46824B9B5C1846744B984784
S214082FC00346FB737D4B1A787B4B1A703CE03BE05C
S214082FD07C4B00221A601A2000216F4B984711205C
S214082FE06B4B9847744B00221A702DE0764B0022E4
S214082FF01A80714B00221A7026E00520644B984709
S2140830000346FB7302204FF47A71624B98470120FF
S2140830104FF47A715F4B98476C4B61221A806B4B62
S2140830201B8818466A4B9847634B0C221A700BE0AD
S214083030664B42221A80654B1B881846644B984795
S2140830405D4B0C221A7000BF5B4B1B78152B00F2E9
S2140830507C8501A252F823F04B3B08004B3B080046
S214083060B13008005F310800C9340800FF34080092
S2140830701B350800513508006D35080093350800E3
S214083080AF350800E5350800013608004136080067
S2140830905338080087380800C33A08004B3B080036
S2140830A0073B08004B3B08004B3B08004B3B08001F
S2140830B0FB79013B072B4FD801A252F823F000BF3B
S2140830C0E1300800E9300800593108005931080095
S2140830D05931080009310800593108003131080013
S2140830E03C4B01221A7038E03A4B1B78002B0AD06A
S2140830F0314B1A78314B1A702F4B03221A70354B06
S21408310000221A7029E028E02F4B00221A8005209A
S2140831101F4B98470346FB73FB7B002B07D1264BB8
S2140831201A78264B1A70244B10221A7015E014E0F1
S214083130254B00221A800620154B98470346FB733A
S214083140FB7B002B07D11C4B1A781C4B1A701A4BAA
S21408315012221A7001E000E000BF00F0F7BCFB790D
S214083160013B072B00F2AE8101A252F823F000BF04
S214083170C5340800D9310800C5340800C53408002D
S214083180C53408000D340800C53408009D3408000E
S214083190CDB5090061B40900352A08006A1D072064
S2140831A0931B0720C1B30900C9B40900819308001E
S2140831B000009642F9920800391907203A190720A4
S2140831C00C0107204C1907203E1907204219072032
S2140831D099B809003B190720964B1B78012B4CD150
S2140831E00023BB814223BB81BB891846924B984774
S2140831F002204FF4FA71914B984701204FF47A71E8
S2140832008E4B98478E4B1B889BB29AB2013292B26D
S21408321091B28B4A11801BB2B3F5617F28DD894BCA
S21408322000221A80864B00221A80874B9847052072
S214083230864B98470346FB731320854B98470346EF
S214083240FB735120834B98470346FB73FB7B002B8D
S2140832500ED11A200021804B9847804B1A78804B55
S2140832601A707E4B0C221A707C4B1A787C4B1A709C
S2140832701A200021784B9847C7E0724B1B889BB2F0
S2140832809AB2013292B291B26E4A11801BB2782B72
S21408329040F3BB80674B1B78012B0DD1694B00228E
S2140832A01A8002204FF4FA71644B984701204FF4B5
S2140832B07A71624B984771E0634B9847694B984719
S2140832C0604B00221A8002204FF47A715B4B9847B5
S2140832D0012040F24C41594B9847634B44221A80D0
S2140832E0614B1B881846544B9847604B1B78012B3C
S2140832F054D102204FF41671504B9847012040F2E3
S2140833004C414E4B98475A4B98471A200021524B2F
S2140833109847554B46221A80534B1B881846464BEF
S2140833209847544B98474FF47A60534B9847012078
S214083330524B984705205249524B98470220524B09
S21408334098470320504B9847504B98470220002137
S2140833504F4B98474F4B984764204F4B9847012050
S2140833604FF47A514A4B9847C8204B4B9847012050
S2140833704FF4FA51464B98474FF41670464B984709
S214083380012041F28831424B98474FF44870424B2F
S2140833909847012040F6C4113D4B9847324B3D22D2
S2140833A01A80314B1B881846234B984702204FF447
S2140833B07A71224B984701204FF47A711F4B984731
S2140833C00520224B98470346FB731320204B98474B
S2140833D00346FB7304201E4B984751201D4B984705
S2140833E00346FB73FB7B002B0FD11A2001211A4BD7
S2140833F098471A4B1A781A4B1A70184B0C221A70E0
S214083400164B1A78164B1A705DE05CE00D4B0022DE
S2140834101A8005200D4B98470346FB73FB7B002B51
S21408342007D10E4B1A780E4B1A700C4B10221A70D6
S21408343049E048E06A1D072099B8090061B4090008
S214083440401907203E19072075B80900CDB50900B0
S21408345009B40900B9BB0800352A0800391907203D
S2140834603A19072059B7090042190720151E0720E0
S2140834705DB50900C1B30900C9B409008193080005
S2140834800000A042F9920800E9B3090085B70900D0
S21408349099740900557209001D420900944B0022D0
S2140834A01A800620934B98470346FB73FB7B002B3A
S2140834B007D1914B1A78914B1A708F4B12221A70BB
S2140834C001E000E000BF41E3FB79012B02D0022BAC
S2140834D004D013E08A4B01221A700FE0884B1B7841
S2140834E0002B0AD0844B1A78844B1A70824B05221C
S2140834F01A70834B00221A70FFE700BF26E3FB7999
S214083500022B04D0032B04D0012B04D004E000BF08
S2140835101CE300BF1AE300BF18E3FB79012B02D0B7
S214083520022B04D013E0764B01221A700FE0744B7E
S2140835301B78002B0AD0704B1A78704B1A706E4B9B
S21408354007221A706E4B00221A70FFE700BFFDE2D2
S214083550FB79022B04D0032B04D0012B04D004E003
S21408356000BFF3E200BFF1E200BFEFE2FB79012BF8
S21408357002D0022B0BD00BE05F4B1A785F4B1A7009
S2140835805D4B09221A705E4B00221A7000E000BFDD
S214083590DCE2FB79022B04D0032B04D0012B04D0E9
S2140835A004E000BFD2E200BFD0E200BFCEE2FB7963
S2140835B0012B02D0022B04D013E0514B01221A70C3
S2140835C00FE04F4B1B78002B0AD04B4B1A784B4B0F
S2140835D01A70494B0B221A70494B00221A70FFE7E3
S2140835E000BFB3E2FB79022B04D0032B04D0012BD7
S2140835F004D004E000BFA9E200BFA7E200BFA5E22E
S214083600FB79002B01D0022B19E03E4B1B889BB29E
S2140836109BB201339BB29AB23A4B1A803A4B1B883C
S21408362001339AB2384B1A80384B00221A80324B34
S2140836301A78324B1A70304B0D221A7000BF85E28A
S214083640FB79032B00F2038101A252F823F000BF96
S214083650613608004F3808004F380800A1360800C1
S214083660284B1B889BB29BB201339BB29AB2254B60
S2140836701A80254B1B8801339AB2234B1A80224B9B
S2140836801B882A2B03D11320214B984707E01E4B93
S2140836901B882E2B03D113201E4B9847D8E0D7E063
S2140836A01D4B01221A701D4B00221A60154B1B88F1
S2140836B09AB21A4B1A80194B16229A70114B1B880D
S2140836C09AB2174B1A80174B1B78012B40F099803B
S2140836D0154B1B68B3F5C87F00F09280B3F5C87F1A
S2140836E024D8C82B00F08280B3F5967F60D088E097
S2140836F03E190720CDB50900391907203A190720C1
S2140837003B19072052190720501907203C19072093
S214083710E9B3090009B40900901B072054190720CB
S21408372058190720671A0720681A0720B3F5FA7F82
S21408373020D0B3F5487F64D1914B1B881BB2372B3A
S21408374004DC8F4B1B881BB22C2B0EDC8D4B1B68A6
S21408375001338C4A13608B4B1B68032B04DD1A203D
S2140837600121894B984704E003E0864B00221A6043
S21408377047E046E0824B1B881BB24B2B04DC804B91
S2140837801B881BB23E2B0EDC7E4B1B6801337D4A22
S21408379013607C4B1B68032B04DD1A2001217A4B2F
S2140837A0984704E003E0774B00221A6029E028E0F7
S2140837B0734B1B881BB27A2B04DC714B1B881BB21D
S2140837C06D2B0EDC6F4B1B6801336E4A13606D4B16
S2140837D01B68032B04DD1A2001216B4B984704E075
S2140837E003E0684B00221A600BE00AE0644B1B8873
S2140837F01BB2BE2B03DD1A200121634B984700E05D
S21408380000BF0620614B98470346FB73604B0022B7
S2140838101A8037205F4904225F4B984749205F4942
S21408382002225D4B98475E4B1B6801335C4A136067
S214083830FB7B002B0AD15B4B1A785B4B1A70594BF3
S2140838400E221A704E4B00221A8001E000E000BFDC
S2140838507CE1FB79002B01D0022B13E0484B1B8838
S2140838609BB29BB201339BB29AB2454B1A804F4B20
S21408387000221A804B4B1A784B4B1A70494B0F2272
S2140838801A7000BF62E1FB79032B00F2188101A2CF
S21408389052F823F0A5380800BF3A0800BF3A0800D7
S2140838A0E5380800364B1B889BB29BB201339BB2A7
S2140838B09AB2334B1A80364B1B8801339AB2344B74
S2140838C01A80334B1B882A2B03D11320384B984772
S2140838D007E02F4B1B882E2B03D11320354B984718
S2140838E0EEE0EDE0344B01221A702A4B00221A60F3
S2140838F0234B1B889AB2274B1A80264B15229A70A0
S2140839001F4B1B889AB2254B1A802C4B1B78012B11
S21408391040F0AF802A4B1B68B3F5C87F00F0A8803C
S214083920B3F5C87F06D8C82B00F08A80B3F5967F13
S21408393068D09EE0B3F5FA7F46D0B3F5487F40F0EE
S21408394098800F4B1B881BB2372B04DC0C4B1B884C
S2140839501BB22C2B0EDC1B4B1B680133194A136059
S214083960184B1B68032B04DD1A200121064B9847C9
S21408397004E003E0134B00221A607AE079E000BF07
S2140839805219072044190720752C0800CDB50900E0
S2140839905019072054190720E9D10900581907209B
S2140839A04C190720391907203A1907203C1907200F
S2140839B0E9B3090009B40900901B0720671A072015
S2140839C0681A072048190720634B1B881BB24B2B25
S2140839D004DC614B1B881BB23E2B0EDC5F4B1B685E
S2140839E001335E4A13605D4B1B68032B04DD1A2007
S2140839F001215B4B984704E003E0584B00221A600D
S214083A0037E036E0544B1B881BB27A2B04DC524B4B
S214083A101B881BB26D2B0EDC504B1B6801334F4ABC
S214083A2013604E4B1B68032B04DD1A2001214C4BF8
S214083A30984704E003E0494B00221A6019E018E0B2
S214083A40454B1B881BB2BE2B11DD464B98470420FE
S214083A50454B98473220454B98470420444B984797
S214083A603220424B98471A2001213D4B984700E0E8
S214083A7000BF05203F4B98470346FB733E4B00228A
S214083A801A8037203D4904223D4B984749203D4936
S214083A9002223B4B98473C4B1B6801333A4A13605B
S214083AA0FB7B002B0AD1394B1A78394B1A702A4BF4
S214083AB000221A80354B0C221A7001E000E000BF85
S214083AC044E0FB79042B0BD0072B00D01AE0052026
S214083AD0284B98470346FB732C4B11221A7011E0AB
S214083AE00720244B98470346FB73284B1A78284B25
S214083AF01A70264B02221A7013201B4B984703464F
S214083B00FB7300BF22E0FB79042B0BD0092B00D0F7
S214083B101AE00620174B98470346FB731B4B1322E5
S214083B201A7011E00720134B98470346FB73174B90
S214083B301A78174B1A7013200B4B98470346FB73DB
S214083B40124B02221A7000BF00E000BF002318467E
S214083B501037BD4680BD00BF5219072048190720F8
S214083B60752C080049B60900E9B309001D4209008A
S214083B7009B40900CDB509005019072054190720C3
S214083B80E9D10900581907204C19072039190720C8
S214083B903A19072090B484B000AF78600023FB6021
S214083BA081E04549FA6813465B0013445B000B4402
S214083BB01B889BB21AB27B689A420CD13E49FA68B7
S214083BC013465B0013445B000B449B889BB21BB2F6
S214083BD03A4A13606BE03849FA6813465B001344A8
S214083BE05B000B441B889BB21AB27B689A4257D27A
S214083BF0FB685A1C304913465B0013445B000B44B1
S214083C001B889BB21AB27B689A4249D92A49FA6835
S214083C1013465B0013445B000B441B889BB21BB225
S214083C207A68D11AFB685A1C234813465B0013446B
S214083C305B0003449B889BB218B21F4CFA68134675
S214083C405B0013445B0023449B889BB21BB2C31AD9
S214083C5003FB01F1FB685A1C174813465B00134424
S214083C605B0003441B889BB218B2134CFA681346D1
S214083C705B0013445B0023441B889BB21BB2C31A29
S214083C80B1FBF3F10C48FA6813465B0013445B007B
S214083C9003449B889BB21BB20B44084A136006E099
S214083CA0FB680133FB60FB68132B7FF77AAF10378E
S214083CB0BD4690BC704700BF5C050720441A072025
S214083CC090B585B000AF78600023FB600023FB60EA
S214083CD079E11949FA6813465B0013449B000B44C4
S214083CE01B889BB21A467B689A422DD11249FA68FD
S214083CF013465B0013449B000B445B889BB21A4632
S214083D000E4B1A600C49FA6813465B0013449B0076
S214083D100B445B681A460A4B1A600749FA6813464A
S214083D205B0013449B000B4408331B681A46054B7C
S214083D301A60024B1B684AE1240107201823072053
S214083D40202307201C230720A349FA6813465B0094
S214083D5013449B000B441B889BB21A467B689A4206
S214083D6080F02E81FB685A1C9B4913465B0013445F
S214083D709B000B441B889BB21A467B689A4240F20B
S214083D801F81FB685A1C944913465B0013449B002A
S214083D900B445B889BB218468F49FA6813465B004B
S214083DA013449B000B445B889BB2C11AFB685A1CE1
S214083DB0894813465B0013449B0003441B889BB248
S214083DC01C468548FA6813465B0013449B00034468
S214083DD01B889BB2E31A91FBF3F2804B1046984778
S214083DE00346BB607C49FA6813465B0013449B0095
S214083DF00B441B889BB21A467B689A1A784B104667
S214083E0098470246774B1046B968984703461C46BB
S214083E107149FA6813465B0013449B000B445B88A1
S214083E209BB21A466D4B1046984702466E4B204684
S214083E301146984703461A466C4B10469847024662
S214083E406B4B1A60FB685A1C634913465B001344A5
S214083E509B000B4459686048FA6813465B00134495
S214083E609B0003445B68C91AFB685A1C5A481346E9
S214083E705B0013449B0003441B889BB21C465648B1
S214083E80FA6813465B0013449B0003441B889BB2E6
S214083E90E31A91FBF3F2514B104698470346BB6072
S214083EA04D49FA6813465B0013449B000B441B8875
S214083EB09BB21A467B689A1A494B104698470246A0
S214083EC0484B1046B968984703461C464249FA6864
S214083ED013465B0013449B000B445A683F4B10463E
S214083EE098470246404B20461146984703461A46CE
S214083EF03E4B1046984702463E4B1A60FB685A1CD3
S214083F00354913465B0013449B000B440833196875
S214083F103148FA6813465B0013449B000344083391
S214083F201B68C91AFB685A1C2B4813465B001344C7
S214083F309B0003441B889BB21C462748FA68134616
S214083F405B0013449B0003441B889BB2E31A91FB57
S214083F50F3F2224B104698470346BB601E49FA68A0
S214083F6013465B0013449B000B441B889BB21A46FF
S214083F707B689A1A1A4B104698470246194B104601
S214083F80B968984703461C461349FA6813465B0007
S214083F9013449B000B4408331A68104B1046984786
S214083FA00246114B20461146984703461A460F4BC1
S214083FB0104698470246104B1A600D4B1B6806E0E1
S214083FC0FB680133FB60FB68092B7FF782AE184657
S214083FD01437BD4690BD00BF240107205D820A0045
S214083FE055820A0005830A00F5800A00DD860A0065
S214083FF018230720202307201C23072090B585B008
S21408400000AF0346FB800023FB60ADE05A4AFB681E
S2140840109B0013445B889BB2B7F906201BB29A42F2
S2140840200CD1554AFB6832F823309BB21AB2534B70
S214084030104698470246524B1A6092E04E4AFB6872
S2140840409B0013445B889BB2B7F906201BB29A42C2
S21408405060DDFB680133484A9B0013445B889BB2CB
S214084060B7F906201BB29A4254DAFB680133424A73
S21408407032F823309BB21AB23F49FB6831F8233036
S2140840809BB21BB2D31A642202FB03F2FB6801330D
S21408409039499B000B445B889BB219B23648FB68CB
S2140840A09B0003445B889BB21BB2CB1A92FBF3F2CD
S2140840B0324B104698470346BB60B7F906202E4990
S2140840C0FB689B000B445B889BB21BB2D21A2B4B37
S2140840D01046984702462B4B1046B9689847034641
S2140840E01A46294B10462949984703461C46224A31
S2140840F0FB6832F823309BB21AB2204B104698471A
S2140841000246234B20461146984703461A461C4B40
S2140841101A6026E0184B5B889BB2B7F906201BB2DC
S2140841209A420ADA144B1B889BB21AB2134B1046F3
S21408413098470246124B1A6013E00F4BB3F86630E6
S2140841409BB2B7F906201BB29A420ADD0A4BB3F8AF
S21408415064309BB21AB2094B104698470246084B81
S2140841601A60FB680133FB60FB68192B7FF74EAFBC
S2140841701437BD4690BD00BF7C0307205D820A0049
S2140841801423072005830A006D840A000000C8422D
S214084190F5800A0090B585B000AF0346FB80002383
S2140841A0FB60ADE05A4AFB689B0013445B889BB2F1
S2140841B0B7F906201BB29A420CD1554AFB6832F86A
S2140841C023309BB21AB2534B104698470246524BBE
S2140841D01A6099E04E4AFB689B0013445B889BB2C2
S2140841E0B7F906201BB29A4260DDFB680133484ADD
S2140841F09B0013445B889BB2B7F906201BB29A4211
S21408420054DAFB680133424A32F823309BB21AB2BA
S2140842103F49FB6831F823309BB21BB2D31A64229D
S21408422002FB03F2FB68013339499B000B445B88A9
S2140842309BB219B23648FB689B0003445B889BB266
S2140842401BB2CB1A92FBF3F2324B10469847034642
S214084250BB60B7F906202E49FB689B000B445B88B9
S2140842609BB21BB2D21A2B4B1046984702462B4BD2
S2140842701046B968984703461A46294B10462949F6
S214084280984703461C46224AFB6832F823309BB2FE
S2140842901AB2204B104698470246234B2046114632
S2140842A0984703461A461C4B1A602DE0184B5B8845
S2140842B09BB2B7F906201BB29A420ADA144B1B883F
S2140842C09BB21AB2134B104698470246124B1A6016
S2140842D013E00F4BB3F866309BB2B7F906201BB253
S2140842E09A420ADD0A4BB3F864309BB21AB2094BFD
S2140842F0104698470246084B1A60FB680133FB6075
S214084300FB68192B7FF74EAF1437BD4690BD00BF2C
S214084310E40307205D820A005C19072005830A006B
S2140843206D840A000000C842F5800A0080B584B093
S21408433000AF0346FB800023FB6077E03E4AFB683D
S2140843409B0013445B889BB2B7F906201BB29A42BF
S2140843500CD1394AFB6832F823309BB21AB2374B75
S214084360104698470246364B1A6062E0324AFB68A7
S2140843709B0013445B889BB2B7F906201BB29A428F
S21408438051DDFB6801332C4A9B0013445B889BB2C3
S214084390B7F906201BB29A4245DAFB680133264A6B
S2140843A032F823309BB21AB22349FB6831F823301F
S2140843B09BB21BB2D31A642202FB03F2FB680133DA
S2140843C01D499B000B445B889BB219B21A48FB68D0
S2140843D09B0003445B889BB21BB2CB1A92FBF3F399
S2140843E07B81B7F90A20B7F906101348FB689B00CB
S2140843F003445B889BB21BB2CB1A03FB02F3114A39
S21408440082FB03125211DB17D21A0B49FB6831F8EC
S21408441023309BB21BB21A44084B104698470246F4
S214084420074B1A6005E0FB680133FB60FB681A2B34
S21408443084DD1037BD4680BD840407205D820A00EF
S214084440601907201F85EB5180B584B000AF03467E
S214084450FB800023FB6077E03E4AFB689B00134422
S2140844605B889BB2B7F906201BB29A420CD1394A30
S214084470FB6832F823309BB21AB2374B104698477F
S2140844800246364B1A6062E0324AFB689B001344C9
S2140844905B889BB2B7F906201BB29A4251DDFB68CF
S2140844A001332C4A9B0013445B889BB2B7F906205D
S2140844B01BB29A4245DAFB680133264A32F82330A3
S2140844C09BB21AB22349FB6831F823309BB21BB261
S2140844D0D31A642202FB03F2FB6801331D499B00D2
S2140844E00B445B889BB219B21A48FB689B000344CE
S2140844F05B889BB21BB2CB1A92FBF3F37B81B7F9AE
S2140845000A20B7F906101348FB689B0003445B882B
S2140845109BB21BB2CB1A03FB02F3114A82FB0312AF
S2140845205211DB17D21A0B49FB6831F823309BB2BD
S2140845301BB21A44084B104698470246074B1A60A7
S21408454005E0FB680133FB60FB681A2B84DD103737
S214084550BD4680BDF00407205D820A006419072066
S2140845601F85EB5190B587B000AF78604FF0000319
S2140845703B617B683B614FF00003FB6000237B6177
S2140845808FE04B4A7B6932F823309BB21A46494B78
S214084590104698470246484B1046396998470346DE
S2140845A0002B0CD0424A7B699B0013445B889AB266
S2140845B0424B104698470246414B1A606EE03C4A0A
S2140845C07B6932F823309BB21A463A4B1046984716
S2140845D002463C4B1046396998470346002B5DD087
S2140845E07B690133324A32F823309BB21A46314B84
S2140845F0104698470246344B104639699847034692
S214084600002B4BD07B690133294A9B0013445B88F7
S2140846109BB21946264A7B699B0013445B889BB26B
S214084620CA1A7B690133224931F823309BB21846EF
S2140846301F497B6931F823309BB2C31A92FBF3F209
S2140846401C4B104698470346FB60194A7B6932F8AC
S21408465023309BB21A46174B1046984702461B4B08
S21408466038691146984703461A46194B1046F968A2
S214084670984703461C460E4A7B699B0013445B8892
S2140846809BB21A460B4B104698470246114B2046DB
S2140846901146984703461A46094B1A607B69013348
S2140846A07B617B69312B7FF76CAF1C37BD4690BDAD
S2140846B07C1907205D820A002D860A0055820A00AA
S2140846C07419072041860A007D860A00F1800A00D0
S2140846D005830A00F5800A0090B587B000AF034648
S2140846E0FB80B7F906205B4B1046984703463B61AC
S2140846F00023FB82A7E0FB8A574A32F823309BB296
S2140847001A46544B104698470246544B1046396989
S21408471098470346002B0AD0FB8A4F4A9B0013444F
S2140847205B889BB2BB604E4ABB6813608FE0FB8A0F
S214084730494A32F823309BB21A46464B10469847E9
S2140847400246484B1046396998470346002B62D004
S214084750FB8A0133404A32F823309BB21A463D4B57
S214084760104698470246404B104639699847034614
S214084770002B50D0FB8A0133374A9B0013445B88D2
S2140847809BB21946FB8A344A9B0013445B889BB24B
S214084790CA1AFB8A0133304931F823309BB21846CF
S2140847A0FB8A2D4931F823309BB2C31A92FBF3F2E9
S2140847B0284B104698470346FB60FB8A264A32F881
S2140847C023309BB21A46234B104698470246274B7F
S2140847D038691146984703461A46254B1046F96825
S2140847E0984703461C46FB8A1B4A9B0013445B8873
S2140847F09BB21A46174B1046984702461D4B204652
S2140848001146984703461A461B4B104698470246D9
S214084810134B1A601BE0FB8A0F4A32F823309BB210
S2140848201A460C4B1046984702460F4B10463969F5
S21408483098470346002B03D0094B0A221A6006E065
S214084840FB8A0133FB82FB8A0D2B7FF654AF1C379D
S214084850BD4690BD5D820A004C0407202D860A00DE
S2140848607819072041860A007D860A00F1800A002A
S21408487005830A00F5800A00DD860A0080B400AFCA
S214084880214B4FF4FA725A611F4B4FF4B9729A6172
S2140848901D4B8722DA621C4B4FF4C872DA631A4B38
S2140848A040F277121A66184B40F26D121A66164BCB
S2140848B08D22C3F88C20144B8B22C3F88820124B09
S2140848C04FF4AF62C3F894200F4B4FF46172C3F8ED
S2140848D090200D4B4FF4AF625A670B4B4FF4617242
S2140848E01A67094B32221A66074B00225A66064B8D
S2140848F000225A63044BF0225A6500231846BD4628
S2140849005DF8047B704700BF8028072080B592B00A
S21408491000AF0346FB71042387F84730592387F80E
S214084920463007F10C0300221A60043300221A608E
S214084930043300221A60043300221A60043300226B
S2140849401A60043300221A60043300221A60043303
S21408495000221A60043300221A60043300221A6008
S214084960043300221A60043300221A60043300223B
S2140849701A800233FB790E2B07D03B2B00F0748489
S2140849800D2B00F0898300F070BCCB4B1B7E002BF0
S21408499000F08183C84B1B79013B212B00F27A83F8
S2140849A001A252F823F000BF314A0800694A0800FD
S2140849B0154B08003D4B0800955008009550080018
S2140849C09550080095500800955008009550080026
S2140849D09550080095500800955008009550080016
S2140849E0955008009550080095500800AD4B0800F3
S2140849F095500800955008009550080095500800F6
S214084A0095500800955008009550080095500800E5
S214084A10955008009550080095500800A14A0800CF
S214084A2095500800C94A0800F14A0800754B080066
S214084A30162387F8463001233B7307F10C0301332E
S214084A40012019469D4B9847034687F8473097F844
S214084A50462007F10C03104619460222984B984741
S214084A60034687F8473016E3162387F846300223AE
S214084A703B7307F10C030133022019468F4B984706
S214084A80034687F8473097F8462007F10C03104688
S214084A90194602228A4B9847034687F84730FAE2B7
S214084AA0162387F8463020233B7300237B7397F83A
S214084AB0462007F10C03104619460222804B9847F9
S214084AC0034687F84730E6E2162387F84630212360
S214084AD03B7300237B7397F8462007F10C031046B8
S214084AE019460222764B9847034687F84730D2E2A3
S214084AF0162387F8463023233B7397F8462007F19A
S214084B000C031046194602226D4B9847034687F851
S214084B104730C0E2162387F8463003233B7300234A
S214084B207B7397F8462007F10C03104619460222B5
S214084B30634B9847034687F84730ACE2162387F856
S214084B40463004233B7307F10C030133042019464F
S214084B505A4B9847034687F8473097F8462007F198
S214084B600C03104619460222554B9847034687F809
S214084B70473090E2162387F8463022233B7307F126
S214084B800C030133042019464C4B9847034687F814
S214084B90473097F8462007F10C03104619460222BC
S214084BA0474B9847034687F8473074E2162387F83A
S214084BB0463012233B73404B5B79252B21D83E4B5E
S214084BC05B797B737B7B1A463E4B53F822303B64FB
S214084BD097F84030BB7397F84130FB7397F842302C
S214084BE03B7497F843307B7497F8462007F10C031C
S214084BF0104619460622324B9847034687F8473030
S214084C0047E22D4B5B792D2B00F243822A4B5B79CA
S214084C107B73294B5B79263B072B00F2398201A26E
S214084C2052F823F0454C0800434D08009150080000
S214084C30C94C0800B74D0800195008009B4F0800DB
S214084C40294E08001F4B5B693B6497F84030BB73DE
S214084C5097F84130FB7397F842303B7497F8433027
S214084C607B74184B9B693B6497F84030BB7497F885
S214084C704130FB7497F842303B7597F843307B75A4
S214084C80104BDB6A3B6497F84030BB7597F84130A9
S214084C90FB7597F842303B7697F843307B7697F863
S214084CA0462007F10C03104619460E22044B984777
S214084CB0034687F84730ECE1BC250720DDBC090031
S214084CC0E9D1090080280720D14BD3F888303B6407
S214084CD097F84030BB7397F84130FB7397F842302B
S214084CE03B7497F843307B74C94BD3F88C303B64DD
S214084CF097F84030BB7497F84130FB7497F8423009
S214084D003B7597F843307B75C14BD3F8A4303B64AA
S214084D1097F84030BB7597F84130FB7597F84230E6
S214084D203B7697F843307B7697F8462007F10C03D6
S214084D30104619460E22B74B9847034687F8473061
S214084D40A7E1B34B5B6E3B6497F84030BB7397F8AC
S214084D504130FB7397F842303B7497F843307B74C6
S214084D60AB4B1B6E3B6497F84030BB7497F84130EA
S214084D70FB7497F842303B7597F843307B75A44B25
S214084D809B693B6497F84030BB7597F84130FB75D4
S214084D9097F842303B7697F843307B7697F846206C
S214084DA007F10C03104619460E229A4B98470346FD
S214084DB087F847306DE1964B9B6E3B6497F840301A
S214084DC0BB7397F84130FB7397F842303B7497F8FB
S214084DD043307B748E4BDB6E3B6497F84030BB7475
S214084DE097F84130FB7497F842303B7597F8433094
S214084DF07B75C8233B6497F84030BB7597F84130FD
S214084E00FB7597F842303B7697F843307B7697F8F1
S214084E10462007F10C03104619460E227D4B98478C
S214084E20034687F8473034E1794BDB6A3B6497F8EA
S214084E304030BB7397F84130FB7397F842303B74A9
S214084E4097F843307B74724B9B693B6497F8403005
S214084E50BB7497F84130FB7497F842303B7597F867
S214084E6043307B756A4B5B693B6497F84030BB758B
S214084E7097F84130FB7597F842303B7697F8433001
S214084E807B76634B5B6B3B6497F84030BB7697F852
S214084E904130FB7697F842303B7797F843307B777C
S214084EA05B4B1B6B3B6497F84030BB7797F84130F9
S214084EB0FB7797F8423087F8203097F8433087F822
S214084EC02130534B1B6D3B6497F8403087F82230EF
S214084ED097F8413087F8233097F8423087F824301F
S214084EE097F8433087F82530494BDB6D3B6497F8D5
S214084EF0403087F8263097F8413087F8273097F8FB
S214084F00423087F8283097F8433087F82930404BE6
S214084F105B6D3B6497F8403087F82A3097F8413045
S214084F2087F82B3097F8423087F82C3097F84330BC
S214084F3087F82D30364BDB693B6497F8403087F8A6
S214084F402E3097F8413087F82F3097F8423087F898
S214084F50303097F8433087F831302D4B9B6B3B64E5
S214084F6097F8403087F8323097F8413087F8333072
S214084F7097F8423087F8343097F8433087F835305A
S214084F8097F8462007F10C03104619462A22214BAB
S214084F909847034687F847307BE01D4B1B6F3B64FA
S214084FA097F84030BB7397F84130FB7397F8423058
S214084FB03B7497F843307B74154B5B6F3B6497F8EC
S214084FC04030BB7497F84130FB7497F842303B7515
S214084FD097F843307B754FF4C8733B6497F84030B6
S214084FE0BB7597F84130FB7597F842303B7697F8D3
S214084FF043307B7697F8462007F10C03104619468F
S2140850000E22044B9847034687F8473041E000BF16
S21408501080280720E9D10900964BD3F890303B64E6
S21408502097F84030BB7397F84130FB7397F84230D7
S2140850303B7497F843307B748E4BD3F894303B64BC
S21408504097F84030BB7497F84130FB7497F84230B5
S2140850503B7597F843307B754FF4FA733B6497F8C3
S2140850604030BB7597F84130FB7597F842303B7671
S21408507097F843307B7697F8462007F10C031046DE
S21408508019460E227C4B9847034687F8473000E0BF
S21408509000BF00E000BFE8E0784B1B7E002B00F066
S2140850A0E280764B1B79122B00D0DCE0734B5B79E1
S2140850B0252B18D8714B5B797B73704B9B7987F8D7
S2140850C040306E4BDB7987F841306C4B1B7A87F89B
S2140850D042306A4B5B7A87F843307B7B19463B6CD9
S2140850E0644A42F82130654B5B79053B202B00F279
S2140850F0B88001A252F823F07D51080085510800B7
S214085100635208006352080063520800635208009E
S2140851108D51080095510800A5510800AD510800AA
S214085120635208006352080063520800635208007E
S2140851306352080063520800C7510800635208000B
S21408514063520800CF510800DF510800EF510800ED
S214085150FF5108000F5208001F520800635208004B
S2140851606352080063520800635208002F52080072
S2140851703952080043520800535208003B6C3D4A17
S21408518053616FE03B6C3B4A93616BE03B6C394A7A
S214085190D36267E03B6C3A4AA2FB0323DB08354A36
S2140851A013635FE03B6C334A53635BE03B6C9BB234
S2140851B05B009AB2334B1A80324B1B880A339AB27A
S2140851C0304B1A804EE03B6C2A4A53654AE03A6CEC
S2140851D02D4B1046984702462C4B9A6442E03A6C90
S2140851E0294B104698470246284BDA643AE03A6C50
S2140851F0254B104698470246244B5A6332E03A6CD1
S214085200214B104698470246204B1A632AE03A6C10
S2140852101D4B1046984702461C4B5A6122E03A6CD2
S214085220194B104698470246184B1A611AE03B6C11
S2140852309AB2164B1A8015E03B6C9AB2134B5A80FA
S21408524010E03A6C104B1046984702460F4BDA604F
S21408525008E03A6C0C4B1046984702460B4B9A608F
S21408526000E000BF00BF00E000BF00231846483734
S214085270BD4680BD80280720E9D10900BC25072047
S214085280CDCCCCCCFE0B072055820A00A8220720DE
S21408529080B400AF2C4B00221A602C4B00221A60F8
S2140852A02B4B00221A602B4B00221A602A4B002236
S2140852B01A602A4B00221A70294B00221A70294BB2
S2140852C000221A80284B00221A80284B00221A80B7
S2140852D0274B00221A80274B00221A80264B0022D2
S2140852E01A70264B01221A70254B00221A60254B8D
S2140852F000221A60244B4FF000021A60234B4FF02E
S21408530000021A60224B4FF000021A60214B4FF041
S21408531000021A60204B4FF000021A601F4B4FF035
S21408532000021A601E4B4FF000021A601D4B4FF029
S21408533000021A601C4B4FF000021A600023184641
S214085340BD465DF8047B70474C1A0720501A0720A4
S214085350541A0720581A07205C1A0720601A0720D4
S214085360611A072028230720621A0720641A0720D4
S214085370242307202A230720661A0720671A0720EF
S214085380681A0720941A07206C1A0720701A072034
S214085390741A0720781A07207C1A0720801A072014
S2140853A0841A0720881A07208C1A072080B596B01A
S2140853B000AF0346FB71002387F84730002387F8C1
S2140853C05730002387F85630002387F846300023E6
S2140853D087F845300023A7F854300023FB630023E2
S2140853E03B64592387F85330002387F83B30002363
S2140853F0A7F85030002387F82830002387F829308C
S214085400002387F82A30002387F82B30002387F8F4
S2140854102C30FA7907F1470310461946AA4B9847E5
S214085420034687F84F3097F84730113B4B2B00F26E
S214085430EF8101A252F823F011580800115808000D
S2140854406955080011580800115808001158080036
S214085450115808001158080011580800115808007B
S2140854601158080011580800F95608005556080043
S2140854707956080087550800C75508003B560800A7
S214085480775508001158080081550800115808007B
S214085490115808001158080011580800115808003B
S2140854A0115808001158080011580800115808002B
S2140854B0115808001158080011580800115808001B
S2140854C0115808001158080011580800115808000B
S2140854D011580800115808001158080011580800FB
S2140854E011580800115808001158080011580800EB
S2140854F011580800115808001158080011580800DB
S21408550011580800115808001158080011580800CA
S21408551011580800115808001158080011580800BA
S21408552011580800115808001158080011580800AA
S214085530115808001158080011580800115808009A
S214085540115808001158080011580800115808008A
S214085550115808001158080011580800115808007A
S21408556057570800B55708000220584B9847034677
S21408557087F84F304DE107200021554B984748E102
S214085580544B984745E1544B1B7E002B1AD0524B80
S2140855901B7987F82430504B5B7987F825304E4BBB
S2140855A09B7987F826304C4BDB7987F82730BB8CFD
S2140855B01A464A4BDA61494BDB6906201946444BC2
S2140855C0984726E125E1444B1B7E002B34D0424BFE
S2140855D05B7987F82030404B9B7987F821303E4B23
S2140855E0DB7987F822303C4B1B7A87F823303A4B16
S2140855F01B79012B04D101200021354B98471BE06D
S214085600354B1B79022B04D104200021304B9847D8
S21408561012E0314B1B79002B0ED1304BDB690B2087
S21408562019462B4B9847342001212D4B9847352097
S21408563001212B4B9847ECE0EBE034200021284B67
S214085640984735200021264B98470D200021204BEF
S2140856509847DEE002200021224B984701200121CE
S2140856601F4B9847034687F84F301F4B00221A6097
S2140856701E4B00221A60CCE004200021194B9847E4
S2140856801B4B1B78042B03D13F200121194B98474D
S21408569036200021124B9847034687F84F303720AC
S2140856A000210F4B9847034687F84F300E4B0022D1
S2140856B01A600E4B00221A6001200021084B9847FA
S2140856C0034687F84F30A4E029650800E12E080055
S2140856D0614B0900C1B60900BC25072080280720B1
S2140856E0352A080025430900A01A07209C1A072017
S2140856F0481A0720752C0800934B1B7E002B29D0D0
S214085700914B1B793B77904B5B797B778E4B9B79DC
S214085710BB778D4BDB79FB77BB8B012019468B4B10
S2140857209847BB8B1A468A4BDA6536200021894B88
S2140857309847034687F84F3037200021854B98470F
S214085740034687F84F30844B00221A60834B0022AA
S2140857501A605EE05DE07E4BDB6BB3F5E17F28D830
S2140857607B4BDB6B0A337A4AD363794BDB6B0120BE
S2140857701946764B98470F2387F82830744BDB6B0F
S2140857803B6397F8303087F8293097F8313087F838
S2140857902A3097F8323087F82B3097F8333087F866
S2140857A02C3007F128032A20194605226C4B984707
S2140857B02FE02EE0664BDB6B632B28D9644BDB6B44
S2140857C00A3B634AD363624BDB6B012019465F4B87
S2140857D098470F2387F828305D4BDB6B3B6397F8B9
S2140857E0303087F8293097F8313087F82A3097F81C
S2140857F0323087F82B3097F8333087F82C3007F19B
S21408580028032A2019460522554B984701E000E050
S21408581000BF97F84730132B15D10C20514B9847EB
S214085820034687F84F300E204E4B9847034687F8B6
S2140858304F300D204B4B9847034687F84F304A4B5E
S2140858401A784A4B1A70484B1B780A2B00F25E8669
S21408585001A252F823F000BF855808000D6508001D
S2140858609F580800295908008F5B08006B5B0800E2
S2140858706D63080087600800016008008D610800F5
S2140858802562080097F84730052B02D0162B03D060
S21408589003E0374B984700E000BF00F03ABE97F8A1
S2140858A04730062B02D0122B08D03BE0314B9847E6
S2140858B0314B98472C4B09221A7033E02F48304B4F
S2140858C098470023A7F84C30B7F84C30002B06D181
